:020000040800F2
:10000000002500206D02000809470008E93B0008B0
:10001000054700085512000809710008000000009B
:100020000000000000000000000000005948000827
:10003000FD12000800000000194700085D48000894
:10004000870200088702000887020008870200086C
:10005000870200088702000887020008870200085C
:10006000870200088702000887020008870200084C
:10007000870200088702000887020008870200083C
:10008000870200088702000887020008870200082C
:10009000870200088702000887020008870200081C
:1000A000870200088702000887020008870200080C
:1000B00087020008870200088702000887020008FC
:1000C0008702000887020008870200081D47000811
:1000D00087020008870200088702000887020008DC
:1000E00087020008870200088702000887020008CC
:1000F00087020008870200088702000887020008BC
:1001000087020008870200088702000887020008AB
:10011000870200088702000887020008870200089B
:100120008702000887020008E5120008F1120008A3
:10013000870200088702000887020008870200087B
:100140008702000887020008870200080D470008A0
:10015000870200088702000887020008870200085B
:10016000870200088702000887020008870200084B
:1001700087020008870200088702000800000000CC
:10018000870200088702000800F002F800F05FF81C
:1001900014A696E8000CB244B344DA4501D100F04D
:1001A00056F8BAE80F000FA696E83000A5EB040554
:1001B00004EB0607AAEB0704A7F101074FEA1515A0
:1001C0004FEA3414A4F10104AC4201D300F03FF82B
:1001D00013F0010F18BFFB1A43F0010300F001F800
:1001E000DBE71847B07A0000D07A0000103A24BF4D
:1001F00078C878C1FAD8520724BF30C830C144BF8C
:1002000004680C6070470000704700000023002461
:1002100000250026103A28BF78C1FBD8520728BF16
:1002200030C148BF0B607047662907F0A3840020E7
:1002300070471FB507F091FC00F0C0FB04000020E0
:10024000002107F0FDFBE0601FBD10B510BD00F000
:10025000B5FC1146FFF7EDFF06F058FF00F0D3FCA8
:1002600003B4FFF7F2FF03BC00F014FD0948804718
:1002700009480047FEE7FEE7FEE7FEE7FEE7FEE788
:10028000FEE7FEE7FEE7FEE704480549054A064BA0
:10029000704700000949000889010008001F00207C
:1002A00000250020002100200021002053EA020C3C
:1002B00000F069802DE9F04B4FF00006002B1FBFC6
:1002C000B3FA83F503FA05F424FA05F65E4012BF8B
:1002D0001643B2FA82F502FA05F4C5F120051EBFF5
:1002E00022FA05FC44EA0C04203556EA044C4FEA95
:1002F000144418BF641C4FF000084FF000099042EE
:1003000071EB030C39D3002919BFB1FA81F701FA57
:1003100007F6B0FA80F700FA07F6C7F120071EBF0C
:1003200020FA07FC46EA0C062037B6FBF4FCA7EBE4
:100330000507103F07F01F0BCBF120062CFA06F63D
:100340000CFA0BFB44BFB3460026202FA4BF5E4629
:100350004FF0000B5BEA060C08BF4FF0010B19EBE6
:100360000B0948EB0608ABFB027C06FB02CC0BFB3F
:1003700003CCC01B71EB0C01C1E70B4602464146A2
:100380004846BDE8F08B13B5084318BF4FF0FF3067
:100390000146AFF30080BDE81C4070470FB41CB5A8
:1003A000074B06AA7B4469460090059800F0EDFAD9
:1003B0000020694600F0FCFA1CBC5DF814FB00004C
:1003C000090600002DE9F0474FF0000A894604466F
:1003D000C0F820A02046E1688847002876D025286C
:1003E00006D0D4E901219047206A401C2062F1E741
:1003F000E168204600258847C4F81CA0064600276F
:10040000C4F818A02A2E09D0304607F011FB38B3E3
:1004100004EB8708303EC8F8186019E059F8041B4F
:10042000204604EB87029161E1688847012F064668
:1004300018D1E069002820DA25F020051DE0D8F861
:10044000180000EB800006EB40003038C8F81800B8
:100450002046E1688847064607F0EAFA0028EED110
:10046000012F0AD02E2E08D12046E16888477F1C34
:100470000646022F45F02005C4DBA069002803DAF8
:10048000404245F00105A061E80701D025F01005C4
:10049000B6B1A6F14100192802D8203645F400650E
:1004A0004A463146204625604D46FFF7BDFE58B10D
:1004B000012806D0ED1D25F0070000F1080989E7A5
:1004C00004E005F1040985E730468AE7206ABDE8C3
:1004D000F08710B5431C02E010F8011B71B18107D1
:1004E000FAD14FF0013202C88C1A8C4314EAC211BF
:1004F000F9D0C01A0A0603D0C01E10BDC01A10BD24
:100500000A0401D0801E10BD0902FCD0401E10BD9F
:100510004FF0000200B5134694469646203922BF9C
:10052000A0E80C50A0E80C50B1F12001BFF4F7AFE7
:10053000090728BFA0E80C5048BF0CC05DF804EBC9
:10054000890028BF40F8042B08BF704748BF20F837
:10055000022B11F0804F18BF00F8012B7047704735
:10056000704770472DE9FF4F0C461E464FF0FF378E
:100570008BB0D2E90001DDF860800A908A46C1F3B1
:100580000A5505B93D46002108464FF00000BAF172
:10059000000F00F4400005DA00EB80004FF440014A
:1005A00001EA50004FEA9059B9F1010F00DDB94658
:1005B0000A9850EA4A000ED044F61050A5F2FF35D2
:1005C00045432F14B8F1000F1ED07542291E1EDDC1
:1005D000C9F100021CE0B8F1010F4FF0000001D09A
:1005E000302103E0F24305E02154401CB042FBDB24
:1005F00030460022002121540B99C1F80880C1E93E
:1006000000200FB0BDE8F08FBD1B6D1CDEE74A4631
:1006100000DA694206A800F05BFA06AB93E807002F
:1006200003AB83E8070050460A9906F021FE8DE8E7
:100630000700A0F500501F3800900398002D0ADD38
:1006400042F21F014A460844002303A9039068466A
:1006500007F08AF809E0A0F500504A461F38002349
:1006600003A90390684607F094F88DE8070000049A
:10067000000C03D04FF0FF30410800E01046B8F105
:10068000000F03D00022009215461EE0751E05D40F
:1006900000F098F9303262556D1EF9D5B34601224B
:1006A000084302D000227F1C04E02078302801D1CA
:1006B00000227F1E002A099784D01DE0112D07DA41
:1006C00000F080F9303262556D1C50EA0102F5D11C
:1006D000084302D00098C8B10EE00021681E05E072
:1006E000235C625C63542254401E491C8142F7DB48
:1006F000AB46A81B401E0990002004F80B000B9885
:10070000099AC0F80880C0E9002B7AE711264FF05B
:10071000000857E72DE9F04F88460446D21D22F025
:10072000070191B0D1E90001CDE90A0107F068F9AC
:1007300002460B98C00F01D02D2007E020688107EA
:1007400001D52B2002E0202101EAC000032A0990F4
:1007500001D0072A05DB03464146204600F078F920
:100760000BE12078800601D5E06900E00620B8F1B1
:10077000650F814606D0B8F1660F18D0B8F1670F43
:1007800070D131E00020B9F1110F009001DB11238D
:1007900001E009F101030AAA01A90CA8FFF7E2FE92
:1007A000DDE90C70002609F10105834647E00120D0
:1007B0004B4600904FF000470AAA01A90CA8FFF78A
:1007C000D1FEDDE90DB00C995D46002610B909F1A6
:1007D00001000D18B9EB050003D4C0F1FF3609F193
:1007E0000105A5EB09002BE0B9F1010F01DA4FF08B
:1007F00001090020B9F1110F0090484601DD1123D5
:1008000000E003460AAA01A90CA8FFF7ABFEDDE948
:100810000C704D4600268346207800070AD4AB456D
:1008200000DA5D4601A8012D04DD411911F8011C13
:10083000302907D04F4502DA17F1040F04DA0120FE
:1008400082460FE06D1EEEE7002F02DCED1B3E44FA
:1008500003E0781CA84200DD7D1CB81B00F1010AF2
:100860004FF000472078000703D4AA4501DB4FF082
:10087000FF3A0021B7F1004F0DF143088DF8431006
:1008800024D002202B23002F01DA7F422D230A21BE
:10089000021EA0F1010000DC5FB197FBF1FC97FBA9
:1008A000F1F201FB1C7C17460CF1300C08F801CD6D
:1008B000EEE7A8F1010003702188090501D5452163
:1008C00000E06521A0F1010800F8011C09980FA9BA
:1008D000A1EB0807FF1D00B10120411901EBEA70EF
:1008E000A1693844081A401EA0612078C00602D4CD
:1008F0002046AFF30080099828B1D4E90121904740
:10090000206A401C20622078C00622D52046AFF322
:1009100000801EE0002E04DBB34502DD01A8805DEF
:1009200000E03020D4E901219047206A401C206279
:10093000761CAAF101005FEA000A0AD100F03EF835
:10094000C0680168405CD4E901219047206A401CDE
:100950002062281EA5F10105DCDC07E0D4E90121B5
:1009600018F8010B9047206A401C2062381EA7F13E
:100970000107F3DC2046AFF30080032011B041E60D
:1009800001694A1C02610878704700B58FB0CDE953
:1009900001310021059105497944CDE90310114643
:1009A0006846FFF70FFD0FB000BD0000E5FFFFFF39
:1009B0000A6802F8010B0A6070470000004870479F
:1009C0001801002030B5B0F10A0271F100034FEABE
:1009D000900E4EEA817EB0EB0E0061EB91014FEA82
:1009E000101E4EEA017E10EB0E0041EB11114FEA92
:1009F000102E4EEA016E10EB0E0041EB11214FEA72
:100A0000104E4EEA014E10EB0E0041EB1141401822
:100A100041F100014FEAD00040EA41704FEAD101B4
:100A20004FEA810444EA907410EB800544EB010422
:100A30006D1944EB0404521BA3414FF0000348BF5F
:100A40000A3200D530BD401C41F1000130BD00002C
:100A50002DE9F0411F46044603260168072A01F4E8
:100A6000006004DB08B116A505E016A503E008B197
:100A700015A500E015A521F010002060A069C01E9A
:100A8000A0610FB1401EA0612046AFF300804FB1BE
:100A9000D4E9012138469047206A401C2062C01CDE
:100AA000206206E0206AFAE7D4E9012115F8010B7B
:100AB0009047761EF8D22046AFF30080BDE8F08163
:100AC0004E414E006E616E00494E4600696E6600F2
:100AD0002DE9F047814616468AB0354878440DC85E
:100AE0008DE80D0032487844801C03AC0DC884E8C2
:100AF0000D0041F69B300844372190FBF1F290FB4A
:100B0000F1F5A5F1800501FB12041B3C02D56442FE
:100B1000012000E00020DFF898A080460027FA447A
:100B2000AAF1BE0A0EE0E0070AD03246684607EB9B
:100B3000470101230AEB810106F02BFE8DE8070037
:100B400064107F1C002CEED1194F7F44AE3F19E09A
:100B5000E80715D007EB04100DF1180A90E80E0015
:100B60008AE80E00C068F04201D198190890324618
:100B7000012306A903A806F00CFE03AB83E80700D7
:100B80006D10641C002DE3D14FF00103324669461D
:100B9000B8F1000F03A802D006F0E6FD01E006F070
:100BA000F8FDC9E90001C9F808200AB0BDE8F087DE
:100BB0001471000000487047F80000207546FFF7E8
:100BC000F9FFAE4605006946534620F0070085460A
:100BD00018B020B5FFF758FBBDE820404FF00006E5
:100BE0004FF000074FF000084FF0000BAC46ACE8A8
:100BF000C009ACE8C009ACE8C009ACE8C00921F004
:100C000007018D46704710B50446AFF300802046BB
:100C1000BDE81040FFF724BB30B44FF0013C50F862
:100C2000042B51F8043BCCFA52F4D51A20D1FCB96C
:100C300050F8042B51F8043BCCFA52F4D51A17D1D2
:100C4000B4B950F8042B51F8043BCCFA52F4D51A3D
:100C50000ED16CB950F8042B51F8043BCCFA52F485
:100C6000D51A05D1002CDAD030BC4FF00000704707
:100C700029BAB1FA81F111F01801D1F120008440B4
:100C8000F2D1CA40CB4012F0FF0213F0FF0330BC98
:100C9000D01A704701491820ABBEFEE726000200BB
:100CA00070470000B0B52DED068B9FED1A8A40F21B
:100CB0005814C2F2000400206425B0EE489AB0EE49
:100CC00048AAC4E906002062204600F00DFA94ED1F
:100CD000030A94ED041A94ED052A05203AEE00AAC1
:100CE00039EE019A38EE028A00F0B4FC013DEBD1F6
:100CF0009FED090A8AEE001A89EE002A88EE000AA2
:100D000084ED061A84ED072A84ED080ABDEC068BF3
:100D1000B0BD00BF000000000000C8422DE9F04156
:100D200084B00025C4F202054FF080080027284651
:100D300010210022ADF80D808DF80F708DF80C7029
:100D4000ADF80A7000F06AFD41F6A064C2F200043A
:100D50004FF0FF360DF10D010DF10A02204603237D
:100D6000009602F087FD28461021012200F056FD72
:100D7000022000F06FFC4BF27E60ADF80D002846BB
:100D800010210022ADF80A7000F048FD0DF10D01B0
:100D90000DF10A0220460223009602F06BFD284660
:100DA0001021012200F03AFD322000F053FC2846C9
:100DB00010210022ADF80D808DF80F708DF80C70A9
:100DC000ADF80A7000F02AFD0DF10D010DF10A02D7
:100DD00020460323009602F04DFD284610210122F3
:100DE00000F01CFD022000F035FC40F27D40ADF823
:100DF0000D00284610210022ADF80A7000F00EFD0B
:100E00000DF10D010DF10A0220460223009602F0B9
:100E100031FD28461021012200F000FD322000F0B3
:100E200019FC7C20ADF80D00284610210022ADF8F9
:100E30000A7000F0F3FC0DF10D010DF10A022046DD
:100E40000223009602F016FD28461021012200F030
:100E5000E5FC0A2000F0FEFB41F2C850C2F200009F
:100E6000007841218DF80D108DF80E0028461021D4
:100E70000022ADF80A7000F0D1FC0DF10D010DF16A
:100E80000A0220460223009602F0F4FC28461021B4
:100E9000012200F0C3FC0A2000F0DCFB48F6400011
:100EA000ADF80D00284610210022ADF80A7000F0C0
:100EB000B5FC0DF10D010DF10A022046022300964A
:100EC00002F0D8FC28461021012200F0A7FC0A20DD
:100ED00000F0C0FB4BF2146005F58065ADF80D0025
:100EE000284601210022ADF80A7000F097FC0DF1B0
:100EF0000D010DF10A0220460223009602F0BAFC11
:100F000028460121012200F089FC322000F0A2FBDA
:100F1000284601210022ADF80D80ADF80A7000F0DE
:100F20007DFC0DF10D010DF10A0220460223009611
:100F300002F0A0FC28460121012200F06FFC0120F4
:100F400000F088FB1120ADF80D0028460121002299
:100F5000ADF80A7000F062FC0DF10D010DF10A020E
:100F600020460223009602F085FC2846012101223A
:100F700000F054FC322000F06DFB48F21070ADF828
:100F80000D00284601210022ADF80A7000F046FC51
:100F90000DF10D010DF10A0220460223009602F028
:100FA00069FC28460121012200F038FC0A2000F0EB
:100FB00051FB40F2F600C2F2000000780F218DF8DC
:100FC0000D108DF80E00284601210022ADF80A70A0
:100FD00000F024FC0DF10D010DF10A022046022360
:100FE000009602F047FC28460121012200F016FC81
:100FF0000A2000F02FFB04B0BDE8F081B0B586B048
:101000000025044600209221C4F2020505900491B7
:10101000CDE9020028461021002200F0FFFB41F636
:10102000A0604FF0FF3CC2F2000004A902AA08230E
:10103000CDF800C002F01EFC28461021012200F06D
:10104000EDFBBDF90A3041F2C852BDF90C50C2F2B5
:101050000002127800EE103A94ED091A9DF80E0085
:101060009DF80F10B8EEC03A00EE105AB1EE412ACA
:10107000032AB8EEC01A0DD0022A07D0012A14BFE5
:101080009FED180A9FED150A06E000BF9FED120ABA
:1010900002E000BF9FED120A23EE003A33EE022A6F
:1010A00084ED002A94ED0A2A40EA012021EE001A7C
:1010B00000B231EE421A02EE100AB8EEC22A94EDE6
:1010C0000B3A20EE020A30EE430A84ED011A84ED59
:1010D000020A06B0B0BD00BFAE676B3BAE67EB3A2D
:1010E000AE67EB3BAE676B3AB0B586B00446002006
:1010F00040F20045CDF81200ADF816000290CDF890
:101100000B008220C4F202058DF81100284601214F
:10111000002200F083FB41F6A0604FF0FF3CC2F2DA
:1011200000000DF1110102AA0723CDF800C002F062
:10113000A1FB28460121012200F070FB40F2F605D8
:10114000BDF90920C2F20005BDF90B302D7800EE83
:10115000102A94ED061A9DF80D009DF80E10B8EEB9
:10116000C03A00EE103A6A1EB1EE412A032AB8EEE8
:10117000C01A13D8DFE802F0020E060A9FED1A0A21
:101180000EE000BF9FED160A0AE000BF9FED170AB0
:1011900006E000BF9FED130A02E000BF9FED140AB6
:1011A00023EE003A33EE022A84ED032A94ED072A57
:1011B00040EA012021EE001A00B231EE421A02EE9E
:1011C000100AB8EEC22A94ED083A20EE020A30EE78
:1011D000430A84ED041A84ED050A06B0B0BD00BFD1
:1011E0000000FA3B00007A3C0000FA3C00007A3B29
:1011F00000007A3D10B52DED028B40F25814C2F27A
:1012000000042046B0EE408AFFF76EFF2046FFF74D
:10121000F5FE94ED030A94ED0C3A20EE080A94EDE5
:10122000041A30EE030A84ED0C0A94ED0D0A21EE47
:10123000081A94ED052A31EE000A84ED0D0A94EDAA
:101240000E0A22EE081A31EE000A84ED0E0ABDECF9
:10125000028B10BDFEE700000020704700207047A1
:1012600010B541F2CC54C2F2000440F6C851C2F2AB
:1012700000012046002203F017FD40F2C851C2F2DF
:101280000001204603F002FD002010BD10B541F220
:10129000CC54C2F200040146204603F0F7FC20467D
:1012A00003F0CEFC002010BD0020704741F2CC526C
:1012B000C2F20002D2F8BC22D2F81432002B1CBFBA
:1012C0000120704710B541F2CC54C2F200040A4626
:1012D0000146204603F0E8FC2046BDE8104003F03C
:1012E00067BD000041F6A800C2F2000000F01EB881
:1012F00041F60810C2F2000000F018B87047000074
:1013000072B600BFFEE7000090F83510022909D13F
:10131000052180F835100068016821F001010160A5
:10132000002070478021416501207047F0B581B0F1
:101330000021009140F22401C2F200010B68D0E9C3
:10134000166148F2B51537680822C1F64E358A4055
:101350003A42A3FB05350CD003681C68640708D526
:101360001C6824F004041C60B260426D42F001026B
:10137000426501228A403A4208D003685B691B0635
:1013800004D5B260426D42F00202426504228A40F6
:101390003A4208D003681B689B0704D5B260426DCF
:1013A00042F00402426510228A403A4219D0016894
:1013B0000B681B0715D5B2600B680A685B0309D47C
:1013C000D20509D40A6822F008020A60016C29B922
:1013D00007E000BF110341D4016C11B104468847F6
:1013E0002046C26D202101FA02F33B4243D001683E
:1013F0000F68FF063FD5B36090F835700B68052F76
:101400001CD123F016030B604B6923F080034B6162
:10141000036C0BB9836C1BB10B6823F008030B60E2
:101420003F219140B160012180F83510016D00220B
:10143000002980F8342054D158E000BF0A685B03CB
:1014400010D4D20512D40A6822F010020A600121D9
:1014500080F83510002180F8341007E0816C0029F5
:10146000BCD1BEE7110301D4416C00E0C16B11B1E6
:10147000044688472046416DC1B3416DC9072ED04F
:10148000052180F835100168AA0A0B6823F00103D2
:101490000B60009B0133934200931AD80B68DB0763
:1014A00017D0009B01339342009312D80B68DB07DF
:1014B0000FD0009B0133934200930AD80B68DB07DF
:1014C00007D0009B01339342009302D80B68DB07DF
:1014D000DFD1012180F83510002180F83410C16C73
:1014E00021B101B0BDE8F040084700BF01B0F0BD38
:1014F0002DE9F041044600F097F9ECB105460220D1
:1015000084F835000020216884F83400086820F051
:101510000100086021680868C00711D000F084F954
:10152000401B0528F6D9032520230320636584F892
:101530003550BDE8F08100BF0120BDE8F08100BF5B
:10154000086848F23F02CFF21002D4E9013500EA00
:10155000020C04F10C0898E8C10143EA0C032B4388
:101560001843D4E9072E304338431043626A40EAF7
:101570000E00042A40EA08031CD1206BD4E90A2E8D
:1015800040EA0E00184308604869BEF1000F20F0E1
:10159000030040EA020040F0040C11D0B8F5005FEF
:1015A00036D0B8F1000F45D1022A46D0012A3BD0EF
:1015B00032B942E00B60486920F0070040EA020CB3
:1015C00001F0F8004AF6AB221038CAF6AA22A0FBB6
:1015D00002231A0947F63043C1F814C0C0F60003CD
:1015E0009A5C40F2FF335F284FF03F0021EA03018D
:1015F00000FA02F088BF0431C4E9161288600023A3
:1016000001250020636584F83550BDE8F08100BFF6
:10161000032AD5D8012540230120DFE802F0030E7C
:10162000030500BF82E700BFAEF1C070B0FA80F0E2
:10163000400904E0032A04D3C2D1CEF3006000289D
:10164000BED0012540230120636584F83550BDE8F4
:10165000F0810000B0B5044600F0E6F8054640F21F
:101660000000C2F200000078611C18BF044400BFF3
:1016700000F0DAF8401BA042FAD3B0BD2DE9F04FDC
:1016800083B000F1200200F13E4741F60045009290
:1016900007F1FF77C4F2020508224FEAB726A842F5
:1016A00008BF072200254FF000084FF00009072E61
:1016B00038BF4FEAB72201920AE000BF09F10109E1
:1016C00008F10208B9F1100F05F1040500F0A2803D
:1016D0000F68012202FA09FE17EA0E0AEED0D1F8CD
:1016E00004C003220CF003077E1E02FA08F4012E48
:1016F0006FEA040B12D88468CE6804EA0B0406FA79
:1017000008F634438460446824EA0E06CCF30014DF
:1017100004FA09F42643466004E000BF032F01D118
:1017200003271EE0C6688C6806EA0B0604FA08F474
:101730002643022FC66014D16FF00302009E02EA16
:10174000590756F807C005F01C040F220B69A24088
:101750002CEA0202A3401A43F251D1F804C00CF063
:101760000307026807FA08F302EA0B021A431CF4A3
:10177000403F0260A2D0002243F644030292C4F22A
:1017800002031A6843F6004442F480421A601A6861
:10179000C4F2010402F480420292029A29F0030288
:1017A0004FF6084C2244CFF6FF7C52F80C3005F07F
:1017B0000C070F26BE40B343019E06FA07F73B43D2
:1017C00042F80C30A2684B6842EA0A0743F60C4C18
:1017D000DE0258BF22EA0A07A760C4F2010CDCF857
:1017E00000209E0242EA0A0758BF22EA0A07CCF804
:1017F000007062689E0342EA0A0758BF22EA0A079D
:1018000067602268DB0342EA0A0758BF22EA0A0738
:10181000276053E703B0BDE8F08F0000002A08BF3F
:10182000090481617047000041F6F860C2F20000CF
:1018300000687047002804BF01207047F0B581B0F0
:10184000044690F83D0028B9002084F83C0020466A
:1018500000F07CFA242084F83D002068016821F023
:1018600001010160016841F400410160016821F457
:101870000041016001F04CFC636848F2A16CC0F2C9
:10188000010C40F60011C0F23D0163453CBF48F237
:101890008041C0F21E01884202D2012001B0F0BD99
:1018A0004DF68361C4F21B31A0FB01122168970C35
:1018B000D1F804E04FF496762EF03F0545EA9245C4
:1018C0004D60774348F638160D6AC0F24106A7FB13
:1018D000067625F03F07634538BF960C721C3A43E5
:1018E0000A62CA6948F2A0664CF6FF77C0F20106A8
:1018F000B34222EA07020BD801385B00B0FBF3F0D9
:1019000001306FF31F30042898BF04201BE000BF94
:10191000A768013857B119277B43B0FBF3F00130BA
:101920006FF31F3070B100F5804007E003EB430315
:10193000B0FBF3F001306FF31F3018B100F5004039
:1019400001E000BF01201043C8610868D4E9072303
:1019500020F0C000104318430860886848F2FF3246
:1019600004F10C0790438CCF18431043A66988609C
:10197000C86820F0FF0038433043C860086840F072
:101980000100086000202021206484F83D102063BD
:1019900084F83E0001B0F0BD2DE9F04784B09946CF
:1019A00016460F460446FFF73FFF94F83D102029E6
:1019B00027D10546206800BF816989071CD5FFF73C
:1019C00033FF411B20681A29F6D381698907F3D5B3
:1019D00000202021206384F83D1084F83E00206C14
:1019E00004F13C0A40F020002064022000218AF823
:1019F000001004B0BDE8F087A2461AF83C1F012988
:101A000004D1022004B0BDE8F08700BF01228AF8AB
:101A100000200368DDE90D180C9ADB0703D1036889
:101A200043F001030360036823F400630360222092
:101A300084F83D00402084F83E000020206462626B
:101A40006185608D394620850020CFF6FF70E06209
:101A5000204632464B46CDE9008502F0C7F818B162
:101A6000012004B0BDE8F087208D08B3022813D010
:101A7000012835D121680A6822F480620A600022B8
:101A800003924A6903928A690392039A0A6842F4AC
:101A900000720A602CE000BF21680A6822F48062AC
:101AA0000A600A6842F400620A60002203921AE0A7
:101AB0000020039020684169039181690391039993
:101AC000016841F400710160202084F83D0000208D
:101AD00084F83E0000218AF8001004B0BDE8F087C9
:101AE0000021039121684A6903928969039103994E
:101AF0000427C0F201070CE010690870606A218DAC
:101B000001306062481E2085618D013961850104C4
:101B1000DAD080B203280FD802284AD001282DD16C
:101B2000204641462A4602F0FFFA002898D1206854
:101B3000616A0069E1E700BF204641462A4602F09B
:101B4000F3FA00287FF48CAF2068616A006908709E
:101B5000606A2268411C208D616201382085638D96
:101B6000013B638553695B07D1D580B20328C3D19C
:101B7000106820F480601060BEE700BF2046394640
:101B800000224346009502F07DF900287FF468AFFB
:101B90002068616A026822F480620260006908704D
:101BA000606A218D01306062481E2085608D013899
:101BB00060852046394600224346009502F062F9CE
:101BC00000287FF44DAF2068616A026842F4007219
:101BD000026000690870606A2268411C6162218DA0
:101BE00001392185618D013961851169417085E770
:101BF0002DE9F04383B0994616460F460446FFF799
:101C000013FE94F83D10202924D10546206800BF1A
:101C1000816989071AD5FFF707FE411B20681A2939
:101C2000F6D381698907F3D500202021206384F849
:101C30003D1084F83E00216C41F02001216484F8BD
:101C40003C00022003B0BDE8F08300BF94F83C10D4
:101C5000012903D1022003B0BDE8F083012284F8FA
:101C60003C200368DDE90B180A9ADB0703D10368FF
:101C700043F001030360036823F400630360212041
:101C800084F83D00402084F83E0000202064626219
:101C90006185608D394620850020CFF6FF70E062B7
:101CA000204632464B46CDE9008502F029F818B1AE
:101CB000012003B0BDE8F083208D98B9204641464D
:101CC0002A4602F081F888B3206C0428F0D12068FD
:101CD000016841F400710160012003B0BDE8F083A8
:101CE0000004EBD0204641462A4602F065FA00285F
:101CF000EAD1616A2268084610F8013B1361238D1E
:101D00006062581E2085678D013F678557697F0790
:101D1000E6D50704E4D048781061881C6062981EFC
:101D20002085618D01396185DAE700BF206801688F
:101D300041F400710160202084F83D00002084F807
:101D40003E0084F83C0003B0BDE8F0832DE9F04785
:101D500086B045F600460068C4F200060025B04291
:101D60000595CDE903550295019503D006B0BDE870
:101D7000F08700BF43F630070095C4F202073868C9
:101D800001AC40F00400386038684FF0120800F0F1
:101D9000040000900098009538684FF0030940F067
:101DA0000100386038684FF0040A00F0010000902C
:101DB00000984FF40070019006F5D6302146CDE929
:101DC0000285CDF81090CDF814A0FFF757FC4FF422
:101DD0008070CDE9010803A880E8200606F5D2301E
:101DE0002146FFF74BFC0095386940F4000038614C
:101DF000386900F400000090009806B0BDE8F08754
:101E000040F2000041F6F861C2F20000C2F20001A7
:101E100000780A68104408607047000080B543F6F7
:101E20000040C4F20200016841F4007101600168E1
:101E300041F480610160016841F480710160032018
:101E400000F086F80F2000F005F800F027F80020D9
:101E500080BD000070B540F20006C2F2000640F2FC
:101E600024013278C2F200014FF47A730968B3FB9F
:101E7000F2F20446B1FBF2F1084601F09FFE0F2C8E
:101E80004FF0010508D838B94FF0FF302146002245
:101E9000002500F031F87460284670BD82B0002043
:101EA00043F640010190C4F202014A6842F48042C4
:101EB0004A604A6802F480420192019A00900868E0
:101EC00040F080500860086800F080500090009852
:101ED00002B07047002848BF704700F01F01012280
:101EE00002FA01F11C2202EAD0004EF20012CEF2F8
:101EF000000281507047000010B54EF60C5CCEF227
:101F0000000CDCF80030C3F3022E8EF00704042C22
:101F100028BF0424BEF103034FF0FF3E0EFA04F481
:101F200038BF0023A14399400EFA03F39A431143AB
:101F300000F00F0200F160430901043A03F5644325
:101F40006244002848BF02F10C03197010BD000064
:101F50004EF60C51CEF200010A684FF6FF031A400C
:101F600060F30A2242F0806040F0FD700860704724
:101F70007047000002680020516270472DE9F0416F
:101F8000D0F80080D8F8243091B1D8F82870B1F199
:101F9000010C03EB17414FD05FFA8CF708F5827301
:101FA000042F0CF0030E0BD2002700242BE000BFFF
:101FB00043EA02410020C8F82810BDE8F08100BFC4
:101FC0000CF0FC0508F1F406002400BF56F8107F61
:101FD00044F0020001EB174144F00107FFB253F84F
:101FE0002770C0B253F8200001EB174101EB1040FD
:101FF00044F00301C9B253F821100434E7B2AF42F0
:1020000000EB1141E2D1BEF1000F15D053F82700CB
:10201000BEF1010F01EB10410ED0601CC0B253F8AD
:102020002000BEF1020F01EB104105D0A01CC0B290
:1020300053F8200001EB104141EA024008EB8C010B
:10204000C1F804010020BDE8F0810000D0F8E004F0
:1020500003F0E4B901EBC102D0F8E03400EB8200F8
:10206000026A184603F03EB901EBC102D0F8E03431
:1020700000EB8200D0F86022184603F091B900000E
:10208000D0F8E00403F0CCB910B501F00F0E0A4609
:102090004FFA81FC0EEBCE0100EB810303F51571C5
:1020A000BCF1000F48BF03F1140190F89434D20939
:1020B000012B4A7081F800E004BF022010BD0268C5
:1020C000012380F894340446104603F0B3FF002047
:1020D00084F8940410BD0000037901F00F029A42C5
:1020E00084BF0120704710B502EBC20300EB8303ED
:1020F0004FFA81FC8E4603F51571BCF1000F48BF05
:1021000003F114014FEADE134B7090F894344FF052
:10211000000C012B81F802C00A7004BF022010BD20
:102120000268012380F894340446104604F076FADD
:10213000002084F8940410BD01F00F0101EBC101EF
:1021400000EB8100D0F868027047000010B54FFA2C
:1021500081FE01F00F0CBEF1000F6FF3DF220CEBDC
:10216000CC010DD400EB810E00240EF515718EF814
:1021700055428EF854C2CEF85C228EF8583209E0EF
:1021800000EB810101F814CF01244C708A600B71BF
:10219000A1F81AC0022B04BF00224A7190F89424BF
:1021A000012A04BF022010BD0268012380F8943484
:1021B0000446104603F0B0FD002084F8940410BDDE
:1021C00010B501F00F0E0EEBCE0100EB81044FF0C5
:1021D000000CC4F868C284F855C290F806C004F533
:1021E0001571C4F86022C4F86432BCF1010F84F8A0
:1021F00054E208BFCA610068624604F059FA002040
:1022000010BD0000B0B5027901F00F0494424FF008
:1022100001022CD801EBC10300EB83034FFA81FCD0
:1022200003F5157304EBC405C90900EB8505BCF182
:10223000000F48BF05F11403597090F894149A7078
:1022400001291C7004BF0220B0BD0168054680F85A
:1022500094240846194604F00BFA2CB92868A97989
:1022600005F29C4204F0ACF9002285F89424104653
:10227000B0BD000001F00F0C0CEBCC0100EB8101B4
:1022800001F814CF4FF0000C0B618379C1F814C032
:102290004FF0010CCA60012B81F801C008BFCA6170
:1022A00080B500681A4604F003FA002080BD0000E3
:1022B0002DE9F04F87B005688246284604F014FCEB
:1022C00010B107B0BDE8F08FDAF8000004F03AFC76
:1022D0000028F6D0D5F80808C0F30D21DAF8000080
:1022E000CAF8D41404F02EFC0146DAF8000089077D
:1022F00003D5416901F00201416105F500610491D6
:1023000004F020FC0146DAF80000C906059535D531
:10231000816921F0100181612C6A04F00F0000EB4B
:10232000C0000AEB8001C4F34340062801F515758F
:1023300012D002281BD147F6F07014EA000616D01E
:10234000E96834090598224604F000FCE86800EBCF
:102350001610E86008E000BF05980AF29C410822C8
:1023600004F0F4FBC4F30A14686920446861DAF8E5
:102370000000816941F010018161059D04F0E2FBDC
:10238000000340F1F180DAF8000004F0B9FB002806
:1023900000F0EA8006460AF29C404FF430680024C0
:1023A0004FF0000B069019E005EB08000221816058
:1023B000B80642BF05EB080020218160B80442BF87
:1023C00005EB08004FF4005181600BF1010B76081A
:1023D00008F1200804F1240400F0C680F007F4D0CE
:1023E000DAF800005FFA8BF9494604F0A3FB0746D0
:1023F000C00760D005EB080001218160DAF8000019
:1024000008EB0001036C8A689AF80650012D25D16B
:10241000150733D4950600F19F8043F20B05C4F6EF
:102420005475AB42059D02D312F4004230D10AEB41
:102430000402D2F8743209696FF3DF41A3EB0101A2
:10244000C2F868129CBBD2F86432002B00F08A807C
:10245000D2F860020844C2F8600228E043F20B059B
:10246000C4F65475FF35AB4218D1059D10040FD446
:10247000900644BF2020886019E000BF43F20B00A3
:10248000C4F65470059D834215D312F4004012D057
:102490004FF40040886038070FD43DE0059D34B903
:1024A000DAF8641219B90021069A04F089F8504646
:1024B0004946FFF7D9FD38072ED505EB080008215E
:1024C0008160DAF8000043F20B02056C4044816839
:1024D000C4F6547295420BD311F4004108D04FF466
:1024E00000418160504600F019FD059D0AE000BFE3
:1024F000504600F013FD43F20B00C4F654708542C1
:10250000059D09D39AF80600012805D1DAF80000E4
:10251000069A012104F054F8F80642BF05EB0800C2
:1025200010218160B8077FF543AF6869000604D5C4
:102530000499486840F4806048600AEB040090F811
:10254000571201297FF430AF002180F8571250460E
:10255000494600F031FB27E720208860059D3807B9
:10256000ABD4D9E701219FE7DAF80000CDF818A035
:1025700004F0E8FA400340F1D3800698006804F0C4
:10258000B7FA002800F0CC800646069805F51069D9
:1025900000F1140100F29C40002703910190CDF856
:1025A000089004E0760807F1010700F0B980F00711
:1025B000F8D006985FFA87FA0068514604F0A8FA46
:1025C0000446C00726D0049A07F00F00516B012380
:1025D00003FA00F021EA0000506309EB4710836022
:1025E00006988079012811D1039907EBC70001EB08
:1025F0008000D0E902121144C1603FB9006928B9D6
:102600000698019A0068012103F0DAFF0698514606
:10261000FFF720FD200742BF09EB4710082181602A
:10262000E00642BF09EB471010218160600642BFFF
:1026300009EB471040218160A00716D5284639468E
:1026400004F0E4F9039907EBC70001EB800010F8F0
:10265000031F012905D1002101700698514600F0A1
:10266000A7FA09EB47100221816020069AD5039949
:1026700007EBC70001EB8008D8E90420824291D320
:102680000699D8F808300C68111A994238BF0B46E1
:1026900004EB4711D1F818C903F1030E1FFA8CF3AC
:1026A000B3EB9E0F2DD301F5106900BFD8F81020B1
:1026B000824224D9101A069AD8E902B19579584570
:1026C00038BF83461FFA8BF3204652460095059D7E
:1026D00004F0E4FCD8F80C00D8F814105844C8F8FA
:1026E0000C0001EB0B00C8F81400D9F818100BF11E
:1026F000030289B2B1EB920FD8D2D8F81020DDF8DE
:10270000089082423FF64EAF07F00F00D4F834181D
:10271000012202FA00F021EA0000C4F8340841E77F
:10272000DDF81890D9F8000004F00CFA002821D444
:10273000D9F8000004F006FA00053AD4D9F80000F0
:1027400004F000FAC00445D50499486820F001005F
:102750004860D9F80000102104F058F999F80400F5
:10276000010600F0EC80C1B2042900F0030035D26C
:1027700000219AE00499486820F00100486099F827
:10278000CC04012808D1002089F8CC044846002157
:10279000FFF7EEFB03E000BF484600F0A3FBD9F8CB
:1027A0000000416901F00041416104F0CBF90005EE
:1027B000C4D504988068C00702D0484600F0D6FB14
:1027C000D9F80000416901F40061416104F0BAF9EF
:1027D000C004B9D4D9F80000DDE000BF6FF060029A
:1027E00002EA411200234FF67F370021EE18C6F8A7
:1027F0000879D6F80059803325F40015C6F8005939
:10280000C6F8087BD6F8005B9A4225F40015C6F896
:10281000005BD6F8005B01F1040145F00065C6F8E5
:10282000005BC6F82879D6F8205925F40015C6F8BB
:102830002059C6F8287BD6F8205B25F40015C6F889
:10284000205BD6F8205B45F00065C6F8205BC6F833
:102850004879D6F8405925F40015C6F84059C6F80D
:10286000487BD6F8405B25F40015C6F8405BD6F8E7
:10287000405B45F00065C6F8405BC6F86879D6F85D
:10288000605925F40015C6F86059C6F8687BD6F87B
:10289000605B25F40015C6F8605BD6F8605B45F018
:1028A0000065C6F8605B059DA0D1002847D005F5FE
:1028B000106202EB41134FF67F374E019F6095592E
:1028C000059B25F4001503F53063955103EB411585
:1028D000AF609D59012825F400159D519D5945F083
:1028E00000659D512BD04E1C02EB46147501A7606C
:1028F000545903EB461624F400145451B7605F5941
:10290000022827F400175F515F5947F000675F51B5
:1029100015D0881C02EB40174FF67F364101BE6090
:10292000575803EB401027F400175750866058584B
:1029300020F400105850585840F000605850049F40
:102940008421F869442240F00110F86199F80F00E1
:1029500000284FF00B0008BF142108BF42F22B00E3
:102960007B5808BF102218437850B85840F00B002D
:10297000B850386809F29C4220F4FE603860D9F8FB
:10298000000099F8061003F01BFED9F80000416919
:1029900001F48051416104F0D5F80146D9F80000F6
:1029A00089041AD503F0FAF9D9F8000004F08EF87A
:1029B000D9F8004089F8070000F0A4FB99F8072037
:1029C0000146204604F0DEFA484600F075FAD9F8D0
:1029D0000000416901F40051416104F0B3F80007BF
:1029E00006D4D9F8000004F0ADF800060DD437E0A5
:1029F000484600F07BFAD9F80000416901F008016F
:102A0000416104F09FF800062AD50599886920F0F5
:102A10008000886199F80400022821D309F5157413
:102A200009F11405012640F27B2704E001368642B5
:102A300007F1240714D219F807100129F6D106F07E
:102A40000F0000EBC0023006D9F8000005EB820150
:102A500058BF04EB820103F049FF99F80400E5E751
:102A6000D9F8000004F06EF8C0024BD4D9F8000089
:102A700004F068F8059D80027CD599F804100229BD
:102A800026D305F53260013909F51F72012304E0F0
:102A90002030013902F124021AD007681678012E7D
:102AA000F6D1B7F1FF3FF3DCD9F8D46486EA1747D3
:102AB000FF07EDD102F8013CAF6947F08007AF6135
:102AC0006F693F06E4D40499486840F40070486098
:102AD000D9F80000416901F40011416104F032F8B5
:102AE00040004DD54846FFF7B1FAD9F800004169DA
:102AF00001F08041416104F025F840077FF5E1AB2A
:102B000045E000BF99F80400022827D3059909F190
:102B1000140401F5126509F13B064FF00108012785
:102B200006E000BF01372035874206F1240615D2A2
:102B300029687278012AF5D1B1F1FF3FF2DC07F084
:102B40000F0000EBC001D9F8000004EB810186F80A
:102B5000008003F0CBFE99F80400E3E7D9F8000009
:102B6000416901F48011416103F0ECFF059D800291
:102B70003FF583AFD9F8000003F0E4FF4000B1D483
:102B8000D9F8000003F0DEFF40077FF59AABD9F8D3
:102B900000004468610704D54846FFF771FAD9F888
:102BA000000041682143416007B0BDE8F08F00009C
:102BB000D0F8E00402F098BCD0F8E00402F0AABC1F
:102BC000002804BF01207047F0B581B004460568B5
:102BD00090F8950428B9002084F89404204600F069
:102BE00027F90320B5F1A04F84F8950404BF002015
:102BF000A071206803F0DCFC94E80F00267C0096AE
:102C000003F0DCF8002840F000812068002103F088
:102C1000F3FF002840F0F98094F804E0BEF1000FC3
:102C200000F0EC800EF0030CBEF1040F4FF0000238
:102C300040D30EF0FC03A4F190000321012500BF56
:102C4000CE1E80F8A460A0F8BE608E1E80F8C8601A
:102C5000A0F8E2604E1E80F8EC60A0F8066180F8F3
:102C60001011A0F82A110E1D013180F8A55080F82E
:102C7000A820C0E92B22C0F8B42080F8C95080F801
:102C8000CC20C0E93422C0F8D82080F8ED5080F87C
:102C9000F020C0E93D22C0F8FC2080F8115180F8F6
:102CA0001421C0E94622C0F82021903099423146D3
:102CB000C6D1F21EBCF1000F31D004F1140002EBBA
:102CC000C20100EB8105012300F821200021BCF1A5
:102CD000010F6B706A832971C5E9021129611ED049
:102CE000551C05EBC50600EB8607BCF1020F7B7097
:102CF00000F826507D833971C7E9021139610ED081
:102D0000911C01EBC10200EB8203012500F82210A7
:102D100000205D7059831871C3E902001861BEF18B
:102D2000000F6BD0BEF1040F4FF0000236D30EF04F
:102D3000FC000321234600BFCF1E83F854728F1E70
:102D400083F878724F1E83F8C0120D1D013183F88D
:102D5000552283F85822C3E99722C3F8642283F8E6
:102D6000792283F87C22C3E9A022C3F8882283F861
:102D70009D2283F89C7283F8A022C3E9A922C3F89C
:102D8000AC2283F8C12283F8C422C3E9B222C3F87B
:102D9000D022903381422946CED1EA1EBCF1000FE9
:102DA0002CD004F5157002EBC20300EB8307002161
:102DB000BCF1010F797000F823203971C7E90211C5
:102DC00039611BD0531C03EBC30700EB8706BCF132
:102DD000020F717000F827303171C6E902113161BC
:102DE0000CD0911C01EBC10200EB820300275F7045
:102DF00000F822101F71C3E902771F6194E80F00E9
:102E0000277C009703F078F930B1022084F895040C
:102E1000012001B0F0BD00BF00206074012084F8E3
:102E20009504206803F058F9002001B0F0BD0000BF
:102E3000B0B586B000680024B0F1A04F0594CDE98C
:102E400003440294019401D006B0B0BD43F63005AE
:102E50000094C4F20205286801A940F0010028602E
:102E6000286800F00100009000984FF4E0500190B5
:102E70000220CDE90204032004900A2005900020DE
:102E8000C4F20200FEF7FAFB6868002140F08000FF
:102E9000686000946869002240F480406861686955
:102EA00000F48040009000984320FFF725F843206D
:102EB000FFF710F806B0B0BD10B50446C07928B1D0
:102EC000022801D0FEF71CFA012100E00021D4F80D
:102ED000E00402F0A7FBD4F8E004BDE8104002F0E3
:102EE00055BB0000D0F8E00402F082BBD0F8E0044B
:102EF00002F088BB90F89424012A04BF0220704796
:102F000010B5012280F894244174026804461046EA
:102F100004F026F8002084F8940410BDD0F8E024D2
:102F200000F29C41104602F093BB000010B504462D
:102F300090F89404012804BF022010BD20680121EC
:102F400084F89414C168490606D5617B012903D130
:102F5000816B41F48031816303F050FD206803F000
:102F6000ABF8002084F8940410BD000010B50446AE
:102F7000D0F8E00402F0C2FB2068D0F8001E41F057
:102F80000101C0F8001EE07A002808BF10BD4EF60F
:102F90001050CEF20000016841F00601016010BD42
:102FA000002804BF012070472DE9F04143F60808CE
:102FB000C4F202080446D8F8F8030D4600F00700F2
:102FC000884207D288F8F853D8F8F80300F00700D1
:102FD000A84277D12068810717D5410705D5D8F8D1
:102FE000001041F4E051C8F80010010705D5D8F8E9
:102FF000001041F46041C8F80010D8F80010A26831
:1030000021F0F0011143C8F80010C00740D1D8F8F2
:10301000F80300F00700A84207D988F8F853D8F859
:10302000F80300F00700A8424CD12068410707D5FB
:10303000D8F80010E26821F4E0511143C8F80010FC
:10304000000708D5D8F80000216920F4604040EA64
:10305000C100C8F8000000F06FF8D8F8001047F67B
:103060001842C1F30311C0F60002515C40F2240281
:1030700020FA01F140F20400C2F200000068C2F23E
:1030800000021160FEF7E6FE0020BDE8F08100BFFF
:103090006068811E022907D258F8081C89015CBFAC
:1030A0000120BDE8F08111E0012807D158F8081C83
:1030B00089035CBF0120BDE8F08107E058F8081CD7
:1030C000890703D40120BDE8F08100BFD8F80010C3
:1030D00021F003010843C8F80000FEF7A5FB0646EF
:1030E00041F28837D8F80000616800F00C00B0EBBE
:1030F000810F8CD0FEF798FB801BB842F2D90320D9
:10310000BDE8F08140F22400C2F200000068704780
:1031100040F2240043F60801C2F20000C4F20201AA
:103120000068096847F62842C1F38221C0F6000210
:10313000515CC8407047000010B543F60404C4F267
:103140000204606800F00C0008280BD0042819BFA6
:1031500042F20040C0F2F40041F60030C0F2B70085
:1031600010BD00BF206821682368490241F6003184
:10317000C0F2B70100F03F02C3F388105CBF42F217
:103180000041C0F2F401A1FB00010023FDF78EF81D
:1031900021680222C1F3014102EB4101B0FBF1F0D1
:1031A00010BD0000002804BF012070472DE9F04148
:1031B00082B00446007843F60006C007C4F2020657
:1031C0000CD0B06800F00C00042840F0818030681A
:1031D000800303D56068002800F0688120788007AC
:1031E0001BD5B06810F00C0F09D0B06800F00C00CF
:1031F000082840F087807068400200F183803068C2
:10320000800703D5E068012840F0508130682169CB
:1032100020F0F80040EAC10030602078000713D4A5
:10322000207840072AD4A569002D00F03A81B068C3
:1032300000F00C00082840F0A580012D40F00E8120
:10324000012002B0BDE8F0816069002800F08280B2
:103250000020C4F247200121C0F8801EFEF7E4FAE6
:10326000054600BF706F8007DAD4FEF7DDFA401B19
:103270000228F7D9032002B0BDE8F081306C5FEA84
:10328000C0080AD400200190306C40F080503064B7
:10329000306C00F080500190019847F20007C4F2B2
:1032A00000073868C00547D4386840F4807038603B
:1032B000FEF7BAFA054600BF3868C0053CD4FEF7F1
:1032C000B3FA401B0228F7D9032002B0BDE8F08111
:1032D000B06800F00C00082803D1706840023FF588
:1032E00076AF61683068B1F5803F07D0B1F5A02FA7
:1032F00040F09A8040F480203060306840F48030A4
:1033000030609AE0E068002840F20000C4F24720F4
:103310005CD001210160FEF787FA0546306880071E
:103320003FF574AFFEF780FA401B0228F6D9032060
:1033300002B0BDE8F08100BFA168306F012905D05F
:10334000052955D140F004003067306F40F001008E
:10335000306756E00020C4F247200021C0F8801EEC
:10336000FEF762FA054600BF706F80077FF558AF21
:10337000FEF75AFA401B0228F6D9032002B0BDE836
:10338000F08100BF0027C4F2472700203866FEF70F
:103390004BFA022D05460DD13068800140F18A803C
:1033A000FEF742FA401B02284FF00300F4D902B0A6
:1033B000BDE8F0813068800173D5FEF735FA401B17
:1033C00002284FF00300F5D9F1E700BF00210160AA
:1033D000FEF72AFA054600BF306880077FF51DAF6B
:1033E000FEF722FA401B02284FF00300F4D9DEE773
:1033F00020F001003067306F002920F004003067B2
:103400007AD0FEF711FA054641F28837306F80070F
:1034100000F18480FEF708FA401BB842F6D9032079
:1034200002B0BDE8F08100BF20F480303060306829
:10343000002920F4802030607AD0FEF7F5F90546A7
:10344000306880033FF5CAAEFEF7EEF9401B6428F2
:10345000F6D9032002B0BDE8F08100BF7068E169D1
:1034600000F480028A4221D1216A00F03F028A42A0
:103470001CD147F6C071626A0140B1EB821F15D1C1
:10348000A16A4FF6FF73C903994300F44032A1F5D6
:1034900080318A420AD1E16A00F07060B0EB016FBE
:1034A00004D1002002B0BDE8F08100BF012002B0CD
:1034B000BDE8F08104F11C052FCD084340EA8210DD
:1034C000D9034FF6FF729143A1F5803140EA0560C0
:1034D0000843706001203866FEF7A6F9044600BF75
:1034E00030688001DDD4FEF79FF9001B02284FF001
:1034F0000300F5D95BE700BFFEF796F9054641F2F8
:10350000883700BF306F800708D5FEF78DF9401B64
:10351000B8424FF00300F5D949E700BFB8F1000FFA
:103520003FF581AE306C20F0805030647BE600BF08
:10353000FEF77AF9054600BF306880037FF54EAE8E
:10354000FEF772F9401B64284FF00300F4D92EE710
:1035500070470000B0B582B001684A688B6803F01C
:103560004105012D08D112F0400505D0016C02B0D3
:10357000BDE8B040084700BF9D0707D512F08005A1
:1035800004D0416C02B0BDE8B040084713F4B07FEE
:1035900018BF12F0200501D102B0B0BD5D0618D5EC
:1035A00090F85150032D09D100200190C868019076
:1035B00088680190019802B0B0BD00BF456D45F02C
:1035C0000405456500250195CD6801958D68019537
:1035D000019D9D0604D4DB0511D4436DDBB9DBE707
:1035E000456D45F001054565002501958D680195FE
:1035F0000D6825F040050D60019DDB05EDD5436D9F
:1036000043F008034365002301938B680193019BFA
:10361000436D002BC0D04B68920723F0E0034B6052
:103620004FF0010380F8513026D04A6844F22974E3
:1036300022F003024A60C16CC0F6000459B105468D
:1036400008460C65FDF760FE0146284619B1416D3C
:1036500041F040014165816C00299DD00C65044614
:103660000846FDF751FE002896D0606D40F04000FE
:10367000606502B0B0BD00BF02B0BDE8B040FFF76A
:1036800067BF000070B528B1416A29B1002101610E
:10369000142106E0012070BD4168B1F5827F02D09F
:1036A0001C21002242500026866290F8511029B950
:1036B00080F85060054600F03DF82846022180F869
:1036C000511090E82E0002F482720C6803F4044357
:1036D00024F040040C601A4405F4006305691A44A0
:1036E00005F0020345691A4405F001038569C469C0
:1036F0001A4405F400731A4404F03803046A1A44A7
:1037000004F08003846A1A4304F400531A430A60E5
:10371000436A042202EA154203F010031A444A6085
:10372000CA6922F40062CA610121466580F851101D
:10373000304670BD2DE9F04F87B0044643F20007D4
:103740000068C4F201070026B8420696CDE9046677
:103750000396029602D007B0BDE8F08F43F6300022
:103760000196C4F20200416902AD41F48051416109
:10377000416946F2404801F4805101910199019656
:1037800001684FF0020941F00201016001684FF049
:10379000030A01F0020101910199019601684FF0BD
:1037A000050B41F0010101600068294600F00100AD
:1037B000019001981820029007F55440C4F20208C5
:1037C000CDE90396CDF814A0CDF818B0FDF756FF5B
:1037D0008020CDE9020904A880E8400C07F550409C
:1037E0002946FDF74BFF41F6A805C2F200054FF44C
:1037F00040304FF0C0674FF48069C5E9080628469D
:10380000C5E90087C5E90266C5E90496C5E906660B
:10381000FDF76EFE002818BFFDF772FDE564AC638E
:1038200041F6081508F11800C2F200054021C5E96B
:10383000000705F10800002280E806024FF400307E
:10384000C5E908022846C5E90522EA61FDF750FEF0
:10385000002818BFFDF754FD232000210022A56495
:10386000AC63FEF749FB2320FEF734FB07B0BDE84D
:10387000F08F00002DE9F04383B01E4615460F4639
:103880000446FDF7D1FF94F851108146012909D172
:10389000002F4FF0010018BF002D0FD103B0BDE87D
:1038A000F08300BF6068B0F5827F0DD104294FF02E
:1038B0000200F3D1A1680029EAD0EFE7002EEDD095
:1038C00094F85000012803D1022003B0BDE8F08332
:1038D000012084F8500094F85100002104281CBFF6
:1038E000052084F851006165A563E687A6872763F4
:1038F000E6862068A686216461640168490603D4CF
:10390000016841F0400101606168731EE268B1FA2C
:1039100081F1B3FA83F3DDF8288049095B09B2F538
:10392000006F41EA030165D131B137F8021BC16074
:103930002763E08E0138E086012518F1010032D1BD
:1039400002E000BFFDF770FFE08E18B9E08F00289D
:1039500000F0B8802068816889070CD5E18E51B1EC
:10396000012D08D1216B002531F8022BC2602163A3
:10397000E18E0139E1868168C907E3D0E18F002932
:10398000E0D0C068A16B012521F8020BA163E08F94
:103990000138E087D6E700BFFDF746FFA0EB09003E
:1039A000404580F0A580E08E18B9E08F002800F037
:1039B00089802068816889070CD5E18E51B1012D7D
:1039C00008D1216B002531F8022BC2602163E18E02
:1039D0000139E1868168C907DED0E18F0029DBD09B
:1039E000C068A16B012521F8020BA163E08F0138AB
:1039F000E087D1E739B139780173206B013020635A
:103A0000E08E0138E086012518F1010032D101E095
:103A1000FDF70AFFE08E10B9E08F002852D0206831
:103A2000816889070ED5E18E61B1012D0AD1216B24
:103A3000002509780173216B206801312163E18E33
:103A40000139E1868168C907E2D0E18F0029DFD022
:103A5000C068A16B01250870A06B0130A063E08FE6
:103A60000138E087D4E700BFFDF7DEFEA0EB0900D8
:103A700040453DD2E08E08B9E08F18B320688168D8
:103A800089070ED5E18E61B1012D0AD1216B002588
:103A900009780173216B206801312163E18E0139BE
:103AA000E1868168C907DFD0E18F0029DCD0C068DA
:103AB000A16B01250870A06B0130A063E08F013875
:103AC000E087D1E72046022101224346CDF800904D
:103AD00000F030FEB0B1606D40F020006065202045
:103AE0006065002084F85000012003B0BDE8F08339
:103AF000012084F85100002084F85000032003B016
:103B0000BDE8F08340F22400C2F20000006849F6EC
:103B10008171C1F25E61A0FB0101480D4FF47A7121
:103B2000484302906068B0F5827F0BD12046802127
:103B300000224346CDF8009000F0FCFD0028CAD1D9
:103B400024E000BF029808B3029801380290206870
:103B5000806800061AD50298C0B102980138029018
:103B600020688068000611D5029878B10298013863
:103B7000029020688068000608D5029830B102984B
:103B800001380290206880680006DBD4A06838B94C
:103B9000002001902068C16801918068019001981F
:103BA000012084F85100002084F85000606D002846
:103BB00018BF012003B0BDE8F0830000411E0020C3
:103BC000B0EB116F1CBF012070474EF21002CEF215
:103BD000000251604EF62351CEF20001F0230B702B
:103BE0000721906011607047FEE700002DE9F04763
:103BF00082B0044600689A460B9D0A9E036891466F
:103C000043F48062026002680F4642F480710160F2
:103C100020464FF0011100223346009500F032F9A2
:103C200050B120680068C00544BF4FF400702064A4
:103C3000032002B0BDE8F08740F202082068C0F21D
:103C4000010807F0FE0707612046414632462B4631
:103C500000F0FEF920B1012002B0BDE8F08700BFFE
:103C60000020019020682A4641690191806931460F
:103C700001900198204600F09FFAB0B92068BAF18F
:103C8000010F09D04FEA19210161204631462A4629
:103C900000F092FA48B920685FFA89F10161204684
:103CA00031462A4600F088FA60B1206C0428D2D14F
:103CB0002068016841F400710160012002B0BDE894
:103CC000F08700BF206800220168334641F480710C
:103CD000016020464FF00111009500F0D3F8002854
:103CE0009FD147F0010C27682046414632462B46BB
:103CF000C7F810C002B0BDE8F04700F0A9B9000055
:103D00002DE9F04383B0044600680F4601680A9D20
:103D10000B9E41F4807199469046016020464FF019
:103D2000011100222B46009600F0ACF850B120683B
:103D30000068C00544BF4FF400702064032003B046
:103D4000BDE8F083206807F0FE0101610221C0F2A6
:103D5000010120462A46334600F07AF920B10120BD
:103D600003B0BDE8F08300BF002002902068324617
:103D7000416902918069294602900298204600F02C
:103D80001BFA58B1206C0428E9D12068016841F47D
:103D900000710160012003B0BDE8F0832068B9F133
:103DA000010F0AD04FEA1821016120462946324608
:103DB00000F002FA0028E5D120685FFA88F101617D
:103DC000002003B0BDE8F08370B50368044653F8E3
:103DD000140F400711D40E46481C29D086BB00BFE3
:103DE0001868400527D4FDF71FFD236853F8140F0A
:103DF000400737D518684007F2D5002070BD00BFD6
:103E000018684007F9D41868400514D418684007AA
:103E1000F3D4186840050ED418684007EDD418682C
:103E2000400508D4186840074FF0000048BF70BD37
:103E300018684005E4D56FF480601860042012E033
:103E4000154603E053F8140F4007D6D41868400510
:103E5000F1D4FDF7E9FC401B2368B042F2D9586960
:103E60004007EFD4202000212022216384F83D2048
:103E700084F83E10226C10432064012084F83C102A
:103E800070BD00002DE9F041054600681E4614464D
:103E900001F47F0201338FB242D0DDF81880B2F511
:103EA000803F40F0878040693840C01BB0FA80F006
:103EB0004009A04240F0C8804EB924E04069384033
:103EC000C01BB0FA80F04009A04240F0BD80FDF771
:103ED000ABFCA0EB08012868B142EFD94169394039
:103EE000C91BB1FA81F14909A142E7D19BE000BFAA
:103EF00040693840C01BB0FA80F04009A0424FF042
:103F0000000040F0A280FDF78FFC2868416939402D
:103F1000C91BB1FA81F14909A142E9D183E000BF8F
:103F2000B2F5803F24D100BF41693940C91BB1FAC5
:103F300081F14909A14240F0878041693940C91B9C
:103F4000B1FA81F14909A14240F07E8041693940CE
:103F5000C91BB1FA81F14909A14275D141693940C2
:103F6000C91BB1FA81F14909A142DDD06CE000BF63
:103F700081693940C91BB1FA81F14909A14263D174
:103F800081693940C91BB1FA81F14909A1425BD16C
:103F900081693940C91BB1FA81F14909A14253D164
:103FA00081693940C91BB1FA81F14909A142DFD0C9
:103FB0004AE000BF80693840C01BB0FA80F0400979
:103FC000A04241D146B923E080693840C01BB0FA15
:103FD00080F04009A04237D1FDF726FCA0EB080194
:103FE0002868B142F0D981693940C91BB1FA81F121
:103FF0004909A142E8D116E080693840C01BB0FAF7
:1040000080F04009A0424FF0000018BFBDE8F081E9
:10401000FDF70AFC286881693940C91BB1FA81F1B2
:104020004909A142E8D100202021286385F83D10EC
:1040300085F83E00296C41F02001296485F83C0098
:104040000120BDE8F08100BF0020BDE8F081000044
:10405000F0B581B0044600681D4643698FB203EA9B
:104060000701B94202D1002001B0F0BD41691646F6
:1040700001323CD0490512D47EB300BFFDF7D4FB1A
:10408000411B2068B14203D941693940B9422BD163
:1040900041693940B942E6D041694905EED5016828
:1040A00041F4007101606FF48061416104200021DE
:1040B0002022216384F83D2084F83E10226C1043B6
:1040C000206484F83C10012001B0F0BD4169394002
:1040D000B942C8D041694905E1D4FDF7A5FB206884
:1040E00041693940B942F1D02020E0E741694905F2
:1040F000D5D441693940B942B5D041694905CED4DA
:1041000041693940B942AED041694905C7D44169D6
:104110003940B942A7D041694905C0D44169394005
:10412000B942E3D19FE7000070B504460068154628
:1041300050F8143F5A063DD40E4629B926E000BF78
:1041400050F8141F490635D40168C90621D4FDF77B
:104150006BFB411B2068B142F2D941694906EFD49B
:1041600000202021206384F83D1084F83E00206C5C
:1041700040F0200018E000BFFDF756FB206850F823
:10418000141F4906ECD50168490613D40168C90615
:10419000F2D56FF01001016000202021206384F827
:1041A0003D1084F83E00206C2064002084F83C0020
:1041B000012070BD002070BD70B50368044653F83F
:1041C000140F000611D40E46481C29D086BB00BF30
:1041D0001868400527D4FDF727FB236853F8140F10
:1041E000000637D518680006F2D5002070BD00BF64
:1041F00018680006F9D41868400514D41868000639
:10420000F3D4186840050ED418680006EDD4186879
:10421000400508D4186800064FF0000048BF70BD84
:1042200018684005E4D56FF480601860042012E03F
:10423000154603E053F8140F0006D6D4186840055D
:10424000F1D4FDF7F1FA401B2368B042F2D9586966
:104250000006EFD4202000212022216384F83D2095
:1042600084F83E10226C10432064012084F83C1036
:1042700070BD00002DE9F04784B041F60004C4F29F
:10428000020400272046402100228DF80E70FDF721
:10429000C5FA0A20FDF7DEF920464021012201245B
:1042A000FDF7BCFA0A20FDF7D5F90DF10E00CDE9B6
:1042B000000441F668104FF0FF36C2F200001C21E6
:1042C000002201230296FDF767FB9DF80E001028DF
:1042D00040F09D8041F668150820C2F200058DF877
:1042E0000F000DF10F0828461C210B220123CDE9F8
:1042F00000840296FDF77CFC0A20FDF7ABF90DF176
:104300000D0928461C210B2201238DF80D70CDE9E3
:104310000146CDF80090FDF73FFB9DF80D0047F6F4
:104320000C450828C0F6000576D141F6681409202E
:10433000C2F200048DF80F004FF0FF36012720462F
:104340001C2141220123CDE900870296FDF750FC94
:104350000A20FDF77FF94FF0000A20461C21412278
:1043600001238DF80DA0CDE900970296FDF714FB0F
:104370009DF80D00092855D141F66814C020C2F2FD
:1043800000048DF80F0020461C2142220123CDE9B4
:1043900000870296FDF72CFC0A20FDF75BF920460A
:1043A0001C21422201238DF80DA0CDE90097029631
:1043B000FDF7F2FA9DF80D00C02839D141F66814D6
:1043C0000B20C2F200048DF80F004FF0FF360127DA
:1043D00020461C210A220123CDE900870296FDF721
:1043E00007FC0A20FDF736F900208DF80D00204665
:1043F0001C210A220123CDE900970296FDF7CCFA91
:104400009DF80D000B280EBF00240935AC7820461E
:1044100004B0BDE8F08700BFAC78204604B0BDE82A
:10442000F08700BF0335AC78204604B0BDE8F087C4
:104430000635AC78204604B0BDE8F08710B586B0EC
:10444000044607200DF11101CDE9001041F6681076
:104450004FF0FF3CC2F200001C2102220123CDF8E4
:1044600008C0FDF799FA9DF81100BDF912102070EF
:10447000BDF9140000EE101A02EE100ABDF9160084
:104480009FED0B1A03EE100AB8EEC00AB8EEC22A6E
:10449000B8EEC33A20EE010A22EE012A23EE011AF9
:1044A00084ED010A84ED022A84ED031A06B010BDE2
:1044B0009A99993E80B582B00020019043F6300071
:1044C000C4F202000168002241F48001016000682A
:1044D000002100F48000019001983A20FDF70CFDC6
:1044E0003A20FDF7F7FC3B2000210022FDF704FDF8
:1044F0003B2002B0BDE88040FDF7ECBC2DE9F04761
:1045000086B0002443F630000594CDE90344CDE99C
:1045100001440094C4F20200016841F6000641F033
:10452000020101600168C4F2020601F0020100917B
:10453000009900940168002241F0010101600168C6
:10454000402701F00101009100990094016841F0B9
:1045500004010160016801F00401009100990094D8
:10456000016841F080010160016801F08001009163
:1045700000990094016841F0400101600068402109
:1045800000F04000009000983046FDF747F9A6F58E
:10459000C0584046102101224FF0100A4FF0010987
:1045A000FDF73CF9A6F5A055284601210122FDF7AB
:1045B00035F9CDE9017901AF30463946CDE90344FB
:1045C000FDF75CF8082001904FF40410CDE90204D7
:1045D00030463946FDF752F8032640463946CDE9C4
:1045E00001A903940496FDF749F828463946CDE918
:1045F0000199CDE90346FDF741F806B0BDE8F08723
:1046000080B541F6681045F60041C2F20000C4F2E0
:10461000000141F6802200234FF4804CC0F20602D4
:1046200080E80E00C0E9033CC0E90533C0E9073368
:10463000FDF700F9002808BF80BDBDE88040FCF709
:104640005FBE000080B541F6A06043F20001C2F2F7
:104650000000C4F201014FF48272002380E80E00D2
:1046600000F114014FF4007C4FF0180E81E808505F
:104670000A21C0E90333C0E90833C0E90A31FFF772
:1046800001F8002808BF80BDBDE88040FCF738BEB7
:1046900080B541F2CC5040F20801C2F20000C2F2F3
:1046A0000001002200F0E4FD002818BFFCF728FEFE
:1046B00041F2CC5040F22801C2F20000C2F20001E7
:1046C00001F048F8002818BFFCF71AFE41F2CC5060
:1046D00040F2C401C2F20000C2F2000100F0CAFAC6
:1046E000002818BFFCF70CFE41F2CC50C2F20000CB
:1046F00001F05AF8002808BF80BDBDE88040FCF7F3
:10470000FFBD0000FEE70000FEE7000041F6BC1020
:10471000C2F20000FDF7CCBD7047000041F6A0607A
:10472000C2F20000FEF716BF806B0021C187C18670
:10473000FEF70EBF2DE9F04381B0089C9846154660
:104740000E468146FDF770F8201A00EB0804FDF7CD
:104750006BF840F22401C2F200010968C1F3CB31C9
:1047600061430091D9F800108A683240921BB2FA76
:1047700082F25209AA4203D1002001B0BDE8F083C1
:10478000074618F101000ED130E000BF0098013853
:104790000090D9F8000080683040801BB0FA80F0AB
:1047A0004009A842E8D0FDF73FF8C01BA04227D23D
:1047B00000980028EAD10024EBE700BF8868304069
:1047C000801BB0FA80F04009A842D5D088683040FC
:1047D000801BB0FA80F04009A842CDD088683040F4
:1047E000801BB0FA80F04009A842C5D088683040EC
:1047F000801BB0FA80F04009A842DFD1BCE700BFBF
:10480000D9E900014268B1F5827F22F0E0024260FE
:104810000BD1D9F80810B1F5004F02D0B1F5806F77
:1048200003D1016821F040010160D9F82810B1F5E9
:10483000005F07D1016821F400510160016841F473
:1048400000510160012089F85100002089F85000D2
:10485000032001B0BDE8F08370470000FDF7D0BA37
:1048600070B592B006AC20463021FBF751FE002512
:1048700043F640000595CDE90355CDE90155009576
:10488000C4F202000168022641F080510160006814
:1048900000F080500090009847F200000095C4F2AC
:1048A0000000016841F480410160006800F480402C
:1048B00000900098012006904FF4803007904FF44C
:1048C00080000D9006200E904820CDE90F060320B1
:1048D000119020460C96FEF765FC18B172B600BF29
:1048E000FEE700BF0F20CDE901064FF48050CDE96F
:1048F000040501A802210395FEF752FB10B172B620
:10490000FEE700BF12B070BD4EF68850CEF2000038
:10491000016841F47001016070470000D0F8D422B2
:1049200000EB820CDCF8C032002B04BF0320704780
:10493000B0B501F00F0404EB840200EB820E5EF8C8
:10494000142F5AB1D0F8C85204EBC40405EB840408
:10495000E469B2FBF4F505FB14229AB10020C3F818
:104960001402DCF8C422D2F810C0BCF1000F08BF5A
:10497000B0BDD3F808020A4603F50471E0470020F1
:10498000B0BD00BF00220023CEF8002000F0C4FE1E
:104990000020B0BDB0B5D0F8D42200EB8202D2F82E
:1049A000C0529DB1044600F04DFDD4F8D412C5F8B4
:1049B0000C0204EB8101D1F8C412D5F80402CA68D4
:1049C00005F5037190470020B0BD00BF0320B0BDC6
:1049D00070B58121044600F073FC002520460121BA
:1049E00084F8375000F06CFC2046822184F877511F
:1049F00000F066FCD4F8D40204F5307656F82010A6
:104A000084F84B50656489B104EB8000D0F8C4028F
:104A100040688047D4F8D40256F8200001F074F9B9
:104A2000D4F8D40246F82050C4F8BC52002070BD1F
:104A300010B5D0F8D41200EB8100D0F8C0428CB190
:104A4000D0F8C41259B194F80002FF2807D08B683F
:104A500094F8012221469847FF2084F800020020A4
:104A600010BD00BF032010BD014640F2A4000A2281
:104A7000C2F200000A807047F0B581B040F26007D2
:104A8000C2F2000704463846822100F02FFB06469A
:104A90003846012100F02AFB05463846812100F006
:104AA00025FB002E1CBF1021B171002D1CBF402121
:104AB000A98000281CBF40218180432140F2600072
:104AC000C2F20000218001B0F0BD0000F0B581B05D
:104AD00040F26007C2F2000704463846822100F027
:104AE00005FB06463846012100F000FB0546384626
:104AF000812100F0FBFA002E1CBF1021B171002DA6
:104B00001CBF4FF40071A98000281CBF4FF4007136
:104B10008180432140F26000C2F20000218001B098
:104B2000F0BD0000F0B581B040F26007C2F20007AE
:104B300004463846822100F0D9FA0646384601215B
:104B400000F0D4FA05463846812100F0CFFA002E55
:104B50001CBF1021B171002D1CBF4021A98000286D
:104B60001CBF40218180432140F26000C2F200005E
:104B7000218001B0F0BD00002DE9F04104464FF462
:104B8000077001F0C3F8002850D04FF407710546B4
:104B9000FBF7BEFCD4F8D402402704EB8000C0F839
:104BA000C052207CC4F8BC52002808BF4FF40077E4
:104BB0002046812102223B46022600F0C1FC4FF034
:104BC00001082046012102223B4684F8378000F08C
:104BD000B7FC10206064204682210322082384F859
:104BE000778100F0ADFCD4F8D4020027C5F8047238
:104BF00004EB8000D0F8C40284F84B800068804742
:104C0000C5F81472C5F81872D5F8042252B1207C88
:104C100001210028204614BF40234FF4007300F008
:104C2000A3FC00263046BDE8F08100BFD4F8D402D2
:104C3000002104EB8000C0F8C0120220BDE8F08122
:104C4000D0F8D41200EB8101D1F8C012002904BFC2
:104C50000320704780B590F810C0D1F8042240239B
:104C60000121BCF1000F08BF4FF4007300F07CFC81
:104C7000002080BD00290FBF0320D0F8D42200EB14
:104C80008200C0F8C41218BF00207047D0F8D422A8
:104C900000EB8200D0F8C00200280EBF0320C0F84D
:104CA0000412002070470000D0F8D43200EB8300DB
:104CB000D0F8C00200280FBF0320C0F80812C0F8C7
:104CC0001022002070470000F0B581B0D0F8D42247
:104CD00000EB8203D3F8C0420022002C8DF80320A1
:104CE000ADF8002060D00D7815F0600218D0202AB1
:104CF00058D1CA88002A29D06DB2B5F1FF3F2FDD07
:104D00004978402A84F80012214628BF402284F8BE
:104D1000012200F099F80024204601B0F0BD00BF48
:104D20004A780B2A3ED80024DFE802F008063C3C13
:104D30003C3C3C3C3C3C2A38EEE700BF90F89C22CF
:104D4000032A2FD16946022221E000BFD3F8C40212
:104D500000228368487800249847204601B0F0BDBF
:104D6000D3F8C43206469D684B780F461846214654
:104D7000A847FA883046072A28BF0722214606E0BE
:104D800090F89C22032A0DD10DF10301012200F0BD
:104D900077F80024204601B0F0BD00BF90F89C22B7
:104DA000032AB9D000F044F80324204601B0F0BD36
:104DB000D0F8D41200EB8101D1F8C022002A04BF40
:104DC00003207047D2F8141200294FF0010101D0DE
:104DD0000846704780B5C2F81412D2F81032D2F8E3
:104DE00008228121836200F097FC0021BDE8804009
:104DF0000846704780B5D0F8B8225268904700281E
:104E000018BF032080BD00000020704700207047BD
:104E100080B513460A46002100F0A6FB002080BDA5
:104E200080B513460A46002100F076FC002080BDC4
:104E300010B58021044600F03DFC20460021BDE86D
:104E4000104000F037BC000080B513460A4603212D
:104E5000C0F894120021C0F86421C0E9553300F075
:104E600083FB002080BD000080B50521C0F89412AE
:104E700000210022002300F077FB002080BD00000D
:104E800080B513460A460221C0F8941200214262FE
:104E9000C0E9053300F040FC002080BD80B504214E
:104EA000C0F8941200210022002300F035FC0020FD
:104EB00080BD000010B540F2A814C2F200040A46FA
:104EC00002A0214600F054F9204610BD434443207F
:104ED000436F6E666967000040F2B0001222C2F2B2
:104EE00000000A807047000010B540F2A814C2F21A
:104EF00000040A4602A0214600F03AF9204610BDFF
:104F000043444320496E7465726661636500000026
:104F100040F2D8000422C2F200000A80704700006C
:104F200010B540F2A814C2F200040A4602A02146BD
:104F300000F01EF9204610BD53544D6963726F6531
:104F40006C656374726F6E696373000010B540F234
:104F5000A814C2F200040A4602A0214600F008F993
:104F6000204610BD53544D3332205669727475611A
:104F70006C20436F6D506F727400000047F6102074
:104F8000C1F6FF70026883684FF01A0C9B18A1F8F5
:104F900000C000F0A680B0B54FF0370C1A0F0CEB34
:104FA00013714068B3F1204F38BF02F1300140F275
:104FB000DC02C2F20002917019014FF0000E0CEBFE
:104FC000117582F803E0C3F30364B1F1204F38BFD9
:104FD00004F13005190215710CEB117582F805E02A
:104FE000C3F30354B1F1204F38BF04F13005190366
:104FF00095710CEB117582F807E0C3F30344B1F12E
:10500000204F38BF04F13005190415720CEB1175EF
:1050100082F809E0C3F30334B1F1204F38BF04F143
:105020003005190595720CEB117582F80BE0C3F38E
:105030000324B1F1204F38BF04F130051906157370
:10504000C3F303140CEB1175B1F1204F4FEA037158
:1050500003F00F0382F80DE038BF04F1300503F1CF
:105060003704957382F80FE0B1F1204F38BF03F198
:105070003004010F0CEB1073147482F811E0B0F1DE
:10508000204F38BF01F1300301010CEB1174937410
:1050900082F813E0C0F30363B1F1204F38BF03F18E
:1050A000300401021475C0F303530CEB1174B1F119
:1050B000204F4FEA003182F815E038BF03F1300489
:1050C0000CEB1173947582F817E0C0F30340B1F153
:1050D000204F38BF00F13003137682F819E0BDE8A5
:1050E000B04040F2DC00C2F200007047B0F802C0ED
:1050F00003789C459CBF0020704780B508E000BF46
:1051000082788A4208BF80BD73449AB262452DD22C
:1051100090F800E070444278052A02D182788A42F1
:1051200025D073449AB2624520D290F800E07044D2
:105130004278052A02D182788A4218D073449AB202
:10514000624513D290F800E070444278052A02D1FB
:1051500082788A420BD073449AB2624506D290F8A4
:1051600000E070444278052ACAD0CDE7002080BD17
:10517000002808BF704710B503783BB300F1020E5A
:10518000F44600BF1CF8013C5BB19CF8003043B111
:105190009CF801302BB19CF802300CF1040C002B70
:1051A000F0D14FF0000C00BF1EF8013C93B19EF807
:1051B00000309BB19EF80130A3B19EF802300CF193
:1051C000040C002B0EF1040EEED10DE04FF0000C9C
:1051D0000AE000BF4CF0010C06E000BF4CF0020CEE
:1051E00002E000BF4CF0030C5FFA8CFC022303EBDF
:1051F0004C03138003220B704A700378A3B3023070
:1052000002224FF0000C00BF5FFA82FE51FA82F4D6
:1052100001F80E3084F801C010F8013C23B3941C4F
:105220005FFA84FE51FA84F401F80E3084F801C06C
:105230000378CBB1141D5FFA84FE51FA84F401F8AF
:105240000E3084F801C0437873B1941D5FFA84FE78
:1052500051FA84F401F80E3084F801C083780832E2
:10526000002B00F10400CFD1BDE8104070470000D2
:10527000002804BF032070470023C0F8B832C0F8EC
:10528000C4320029C0F8D03218BFC0F8B4120121CE
:1052900080F89C12027000F0D9B8000080B5D0F8F8
:1052A000C802FCF719FF40F20032C100C0F201321F
:1052B00022FA01F1032888BF0321C8B280BD000093
:1052C00080B5D0F8C802FCF7DFFE40F20032C10022
:1052D000C0F2013222FA01F1032888BF0321C8B2CB
:1052E00080BD0000B0B589B190F89C22032A54D14A
:1052F000D0F8B8225269002A4FD00023C0F8D43227
:105300009047002808BF0020B0BD00BFD0F894121D
:1053100002293BD18169038C99420FD9CA1A416A8B
:105320008261194441620446FFF77AFD204600215C
:105330000022002300F018F927E000BF10D14269D5
:105340008A420DD3D0F898128A4209D20021002255
:1053500004460025FFF764FDC4F89852E6E700BF55
:1053600090F89C12032909D1D0F8B812C96829B164
:105370000022C0F8D42204468847204680210446F3
:1053800000F098F92046FFF76FFD204690F8A01234
:1053900000291CBF002180F8A0120020B0BD000031
:1053A00010B579B190F89C22032A22D1D0F8B82206
:1053B0009269F2B10023C0F8D4329047002808BFA8
:1053C000002010BDD0F89412032912D1D0F8581142
:1053D000B0F8602191420FD98B1AD0F86411C0F84F
:1053E00058311144C0F86411934288BF1A46FFF740
:1053F0000FFD002010BD00BF90F89C12032909D1B9
:10540000D0F8B812096929B10022C0F8D4220446A4
:1054100088472046FFF742FD002010BD002070475E
:10542000012180F89C12D0F8B812002904BF002096
:10543000704780B54A6801799047002818BF03205B
:1054400080BD0000D0F8C802FCF776BE017809B133
:105450000020704710B541F6BC11C2F20001C1F83E
:10546000E004C0F8C8124FF0A040086004200871A2
:105470004FF40070C8800220C1F809000020C881E4
:105480000846FDF79DFB002818BFFBF739FF41F6E2
:10549000BC14C2F2000420468021FCF76BFD2046BC
:1054A00000214022FCF76AFD204601218022FCF702
:1054B00065FDBDE81040002070470000D0F8C8022C
:1054C00001F07F034AB203EBC30301EBC10100EB20
:1054D000830300EB810000F25620002A48BF03F14D
:1054E0001600007870470000D0F8D42200EB82024A
:1054F000D2F8B822002A04BF0320704790F89C32EB
:10550000032B05D1126A1AB180B59047002080BDE7
:1055100000207047D0F8D42200EB8202D2F8B822E3
:10552000002A04BF0320704790F89C32032B05D15A
:10553000526A1AB180B59047002080BD00207047A4
:1055400080B59446D0F8C8021A466346FCF7FEFDC3
:1055500040F20032C100C0F2013222FA01F1032808
:1055600088BF0321C8B280BD80B5D0F8C802FCF75F
:1055700027FE40F20032C100C0F2013222FA01F1EE
:10558000032888BF0321C8B280BD0000F0B581B0F8
:105590000126002580F89C62C0F8945204464560BC
:1055A000D0F8B802C4F8A45284F8A05240B14268BE
:1055B00032B12046002190470546002818BF032538
:1055C00020460021002240234027FFF7B9FF204654
:1055D00080210022402384F86361A4F86071FFF702
:1055E000AFFF84F823602846278401B0F0BD000097
:1055F00090F89C12042904BF90F89D1280F89C1228
:105600000020704790F89C12032908D1D0F8B812F6
:1056100029B1C96919B180B58847BDE8804000202B
:1056200070470000024600201174704780B5D0F822
:10563000C802FDF75FFC40F20032C100C0F2013247
:1056400022FA01F1032888BF0321C8B280BD0000FF
:10565000B0B500F2AA240546204600F06FF80121FB
:10566000C5F8941295F8AA12B5F8B03201F01F02ED
:10567000022AC5F898320FD0012A07D092B92846DD
:105680002146BDE8B04000F091B800BF2846214651
:10569000BDE8B04000F0FCBA28462146BDE8B04065
:1056A00000F046BA01F080012846BDE8B04000F0A5
:1056B00001B8000080B5D0F8C802FCF7A3FD40F2A5
:1056C0000032C100C0F2013222FA01F1032888BF82
:1056D0000321C8B280BD000080B5D0F8C802FDF734
:1056E00025FC40F20032C100C0F2013222FA01F181
:1056F000032888BF0321C8B280BD0000014690F88E
:105700009C02042204281CBF91F89C0281F89D028F
:10571000002081F89C22704780B5D0F8C802FCF7C1
:10572000A9FD40F20032C100C0F2013222FA01F1BB
:10573000032888BF0321C8B280BD00000A78027028
:105740004A7842704A8842808A888280C988C180AB
:105750007047000010B582B004460020ADF8060086
:10576000B1B1D4F8D42204F52E70C4F8B81250F8B0
:105770002200C16A21B10DF106008847C4F8D002A9
:10578000D4F8D8020130C4F8D802002002B010BD0D
:10579000032002B010BD0000D0F8B822002A04BFD8
:1057A0000020704712681047FFF796BF70B582B0AF
:1057B0000A7812F060020FD0402A02D0202A40F06E
:1057C000D780D0F8D42200EB8202D2F8B8229268B7
:1057D00002B0BDE8704010474A78092A00F2C8803C
:1057E000DFE802F00630C658C66284C61C4200BF1D
:1057F00090F89C22013A022A00F2BA80C988022954
:1058000040F0B680D0F8A4120322002908BF01227C
:10581000014641F80C2F02226CE100BFC988012922
:1058200040F0A68090F89C124A1E022A80F09A80CE
:105830000024014641F8084F0122FFF721FB2046D2
:1058400002B070BD90F89C22013A022A00F29080CA
:1058500049880024012940F09480C0F8A442FFF751
:105860001DFB204602B070BD498840F2A415C2F26B
:10587000000511F0FE0F297052D080210446FFF779
:1058800019FF20460021FFF715FF0324204602B030
:1058900070BD00BF4A88022A60D0012A68D1012168
:1058A000C0F8A4122FE100BF8A88002A60D1CA88FC
:1058B000002A5DD14D887F2D5AD890F89C1203297B
:1058C00056D0E9B280F89E520446FFF7AFFE20465C
:1058D0002646FFF7E3FA002D14BF0220012086F8C8
:1058E0009C020024204602B070BD00BF4A884FF0E1
:1058F000FF3303EB12230026062BADF8066000F2FF
:10590000FF80DFE813F007004F004100FD00FD00BD
:105910005F006D000D46D0F8B4120A68D9E000BFF0
:1059200090F89C22032A6BD0022A40F091800A064C
:1059300000F0E98001F00102C9B242600546FFF7BC
:105940002BFF002800F0A680044628468021FFF7A0
:10595000B1FE28460021FFF7ADFE73E0497980F8DB
:10596000A012D0E0032903D1011D0122C2E000BF33
:1059700080210446FFF79EFE204600210024FFF709
:1059800099FE204602B070BDD2B2052A00F2B8805E
:10599000DFE802F004968E928A9A00BFD0F8B42213
:1059A000526894E00D46017C0446D0F8B802002904
:1059B0000CBF816AC16A0DF10600884701460220CA
:1059C0001CE000BF027C002A40F09A800446D0F818
:1059D000B8020D46416B0DF1060088477EE000BF1E
:1059E000027C002A40F08C800446D0F8B8020D46B4
:1059F000016B0DF1060088470146072048706EE0F4
:105A00000A0635D0426801F001018A4200F07B802D
:105A1000D1B20446FFF7EEF92978204661602546A9
:105A2000FFF7BAFE002800F0818004462846802156
:105A3000FFF740FE28460021FFF73CFE2979284663
:105A4000FFF7D8F9022085F89C02204602B070BD0D
:105A500080210446FFF72EFE20460021FFF72AFE94
:105A600029782046FFF7C6F90324204602B070BD0E
:105A7000022201F0010180F89C22416000210546CC
:105A80000024FFF7B7F92846FFF708FA204602B0CE
:105A900070BD00BF2846FFF701FA032085F89C027D
:105AA0000024204602B070BDD0F8B42252690EE046
:105AB000D0F8B422D2680AE0D0F8B422126906E025
:105AC000D0F8B422926802E0D0F8B4229269BAB158
:105AD0000D460446007C0DF1060190470146EA8818
