:020000040800F2
:10000000982400206D020008A5370008ED3500088F
:10001000A137000855120008A56100080000000083
:10002000000000000000000000000000F53800089B
:10003000FD12000800000000B5370008F93800087C
:10004000870200088702000887020008870200086C
:10005000870200088702000887020008870200085C
:10006000870200088702000887020008870200084C
:10007000870200088702000887020008870200083C
:10008000870200088702000887020008870200082C
:10009000870200088702000887020008870200081C
:1000A000870200088702000887020008870200080C
:1000B00087020008870200088702000887020008FC
:1000C000870200088702000887020008B937000885
:1000D00087020008870200088702000887020008DC
:1000E00087020008870200088702000887020008CC
:1000F00087020008870200088702000887020008BC
:1001000087020008870200088702000887020008AB
:10011000870200088702000887020008870200089B
:10012000E51200088702000887020008F1120008A3
:10013000870200088702000887020008870200087B
:10014000870200088702000887020008A937000814
:10015000870200088702000887020008870200085B
:10016000870200088702000887020008870200084B
:1001700087020008870200088702000800000000CC
:10018000870200088702000800F002F800F05FF81C
:1001900014A696E8000CB244B344DA4501D100F04D
:1001A00056F8BAE80F000FA696E83000A5EB040554
:1001B00004EB0607AAEB0704A7F101074FEA1515A0
:1001C0004FEA3414A4F10104AC4201D300F03FF82B
:1001D00013F0010F18BFFB1A43F0010300F001F800
:1001E000DBE71847BC6A0000DC6A0000103A24BF55
:1001F00078C878C1FAD8520724BF30C830C144BF8C
:1002000004680C6070470000704700000023002461
:1002100000250026103A28BF78C1FBD8520728BF16
:1002200030C148BF0B607047662906F0BF840020CC
:1002300070471FB506F0ADFC00F0C0FB04000020C5
:10024000002106F019FCE0601FBD10B510BD00F0E4
:10025000B5FC1146FFF7EDFF05F0A6FF00F0D3FC5B
:1002600003B4FFF7F2FF03BC00F014FD0948804718
:1002700009480047FEE7FEE7FEE7FEE7FEE7FEE788
:10028000FEE7FEE7FEE7FEE704480549054A064BA0
:1002900070470000A539000889010008981E002059
:1002A00098240020982000209820002053EA020C77
:1002B00000F069802DE9F04B4FF00006002B1FBFC6
:1002C000B3FA83F503FA05F424FA05F65E4012BF8B
:1002D0001643B2FA82F502FA05F4C5F120051EBFF5
:1002E00022FA05FC44EA0C04203556EA044C4FEA95
:1002F000144418BF641C4FF000084FF000099042EE
:1003000071EB030C39D3002919BFB1FA81F701FA57
:1003100007F6B0FA80F700FA07F6C7F120071EBF0C
:1003200020FA07FC46EA0C062037B6FBF4FCA7EBE4
:100330000507103F07F01F0BCBF120062CFA06F63D
:100340000CFA0BFB44BFB3460026202FA4BF5E4629
:100350004FF0000B5BEA060C08BF4FF0010B19EBE6
:100360000B0948EB0608ABFB027C06FB02CC0BFB3F
:1003700003CCC01B71EB0C01C1E70B4602464146A2
:100380004846BDE8F08B13B5084318BF4FF0FF3067
:100390000146AFF30080BDE81C4070470FB41CB5A8
:1003A000074B06AA7B4469460090059800F0EDFAD9
:1003B0000020694600F0FCFA1CBC5DF814FB00004C
:1003C000090600002DE9F0474FF0000A894604466F
:1003D000C0F820A02046E1688847002876D025286C
:1003E00006D0D4E901219047206A401C2062F1E741
:1003F000E168204600258847C4F81CA0064600276F
:10040000C4F818A02A2E09D0304606F02DFB38B3C8
:1004100004EB8708303EC8F8186019E059F8041B4F
:10042000204604EB87029161E1688847012F064668
:1004300018D1E069002820DA25F020051DE0D8F861
:10044000180000EB800006EB40003038C8F81800B8
:100450002046E1688847064606F006FB0028EED1F4
:10046000012F0AD02E2E08D12046E16888477F1C34
:100470000646022F45F02005C4DBA069002803DAF8
:10048000404245F00105A061E80701D025F01005C4
:10049000B6B1A6F14100192802D8203645F400650E
:1004A0004A463146204625604D46FFF7BDFE58B10D
:1004B000012806D0ED1D25F0070000F1080989E7A5
:1004C00004E005F1040985E730468AE7206ABDE8C3
:1004D000F08710B5431C02E010F8011B71B18107D1
:1004E000FAD14FF0013202C88C1A8C4314EAC211BF
:1004F000F9D0C01A0A0603D0C01E10BDC01A10BD24
:100500000A0401D0801E10BD0902FCD0401E10BD9F
:100510004FF0000200B5134694469646203922BF9C
:10052000A0E80C50A0E80C50B1F12001BFF4F7AFE7
:10053000090728BFA0E80C5048BF0CC05DF804EBC9
:10054000890028BF40F8042B08BF704748BF20F837
:10055000022B11F0804F18BF00F8012B7047704735
:10056000704770472DE9FF4F0C461E464FF0FF378E
:100570008BB0D2E90001DDF860800A908A46C1F3B1
:100580000A5505B93D46002108464FF00000BAF172
:10059000000F00F4400005DA00EB80004FF440014A
:1005A00001EA50004FEA9059B9F1010F00DDB94658
:1005B0000A9850EA4A000ED044F61050A5F2FF35D2
:1005C00045432F14B8F1000F1ED07542291E1EDDC1
:1005D000C9F100021CE0B8F1010F4FF0000001D09A
:1005E000302103E0F24305E02154401CB042FBDB24
:1005F00030460022002121540B99C1F80880C1E93E
:1006000000200FB0BDE8F08FBD1B6D1CDEE74A4631
:1006100000DA694206A800F05BFA06AB93E807002F
:1006200003AB83E8070050460A9905F03DFE8DE8CC
:100630000700A0F500501F3800900398002D0ADD38
:1006400042F21F014A460844002303A9039068466A
:1006500006F0A6F809E0A0F500504A461F3800232E
:1006600003A90390684606F0B0F88DE8070000047F
:10067000000C03D04FF0FF30410800E01046B8F105
:10068000000F03D00022009215461EE0751E05D40F
:1006900000F098F9303262556D1EF9D5B34601224B
:1006A000084302D000227F1C04E02078302801D1CA
:1006B00000227F1E002A099784D01DE0112D07DA41
:1006C00000F080F9303262556D1C50EA0102F5D11C
:1006D000084302D00098C8B10EE00021681E05E072
:1006E000235C625C63542254401E491C8142F7DB48
:1006F000AB46A81B401E0990002004F80B000B9885
:10070000099AC0F80880C0E9002B7AE711264FF05B
:10071000000857E72DE9F04F88460446D21D22F025
:10072000070191B0D1E90001CDE90A0106F084F991
:1007300002460B98C00F01D02D2007E020688107EA
:1007400001D52B2002E0202101EAC000032A0990F4
:1007500001D0072A05DB03464146204600F078F920
:100760000BE12078800601D5E06900E00620B8F1B1
:10077000650F814606D0B8F1660F18D0B8F1670F43
:1007800070D131E00020B9F1110F009001DB11238D
:1007900001E009F101030AAA01A90CA8FFF7E2FE92
:1007A000DDE90C70002609F10105834647E00120D0
:1007B0004B4600904FF000470AAA01A90CA8FFF78A
:1007C000D1FEDDE90DB00C995D46002610B909F1A6
:1007D00001000D18B9EB050003D4C0F1FF3609F193
:1007E0000105A5EB09002BE0B9F1010F01DA4FF08B
:1007F00001090020B9F1110F0090484601DD1123D5
:1008000000E003460AAA01A90CA8FFF7ABFEDDE948
:100810000C704D4600268346207800070AD4AB456D
:1008200000DA5D4601A8012D04DD411911F8011C13
:10083000302907D04F4502DA17F1040F04DA0120FE
:1008400082460FE06D1EEEE7002F02DCED1B3E44FA
:1008500003E0781CA84200DD7D1CB81B00F1010AF2
:100860004FF000472078000703D4AA4501DB4FF082
:10087000FF3A0021B7F1004F0DF143088DF8431006
:1008800024D002202B23002F01DA7F422D230A21BE
:10089000021EA0F1010000DC5FB197FBF1FC97FBA9
:1008A000F1F201FB1C7C17460CF1300C08F801CD6D
:1008B000EEE7A8F1010003702188090501D5452163
:1008C00000E06521A0F1010800F8011C09980FA9BA
:1008D000A1EB0807FF1D00B10120411901EBEA70EF
:1008E000A1693844081A401EA0612078C00602D4CD
:1008F0002046AFF30080099828B1D4E90121904740
:10090000206A401C20622078C00622D52046AFF322
:1009100000801EE0002E04DBB34502DD01A8805DEF
:1009200000E03020D4E901219047206A401C206279
:10093000761CAAF101005FEA000A0AD100F03EF835
:10094000C0680168405CD4E901219047206A401CDE
:100950002062281EA5F10105DCDC07E0D4E90121B5
:1009600018F8010B9047206A401C2062381EA7F13E
:100970000107F3DC2046AFF30080032011B041E60D
:1009800001694A1C02610878704700B58FB0CDE953
:1009900001310021059105497944CDE90310114643
:1009A0006846FFF70FFD0FB000BD0000E5FFFFFF39
:1009B0000A6802F8010B0A6070470000004870479F
:1009C0001801002030B5B0F10A0271F100034FEABE
:1009D000900E4EEA817EB0EB0E0061EB91014FEA82
:1009E000101E4EEA017E10EB0E0041EB11114FEA92
:1009F000102E4EEA016E10EB0E0041EB11214FEA72
:100A0000104E4EEA014E10EB0E0041EB1141401822
:100A100041F100014FEAD00040EA41704FEAD101B4
:100A20004FEA810444EA907410EB800544EB010422
:100A30006D1944EB0404521BA3414FF0000348BF5F
:100A40000A3200D530BD401C41F1000130BD00002C
:100A50002DE9F0411F46044603260168072A01F4E8
:100A6000006004DB08B116A505E016A503E008B197
:100A700015A500E015A521F010002060A069C01E9A
:100A8000A0610FB1401EA0612046AFF300804FB1BE
:100A9000D4E9012138469047206A401C2062C01CDE
:100AA000206206E0206AFAE7D4E9012115F8010B7B
:100AB0009047761EF8D22046AFF30080BDE8F08163
:100AC0004E414E006E616E00494E4600696E6600F2
:100AD0002DE9F047814616468AB0354878440DC85E
:100AE0008DE80D0032487844801C03AC0DC884E8C2
:100AF0000D0041F69B300844372190FBF1F290FB4A
:100B0000F1F5A5F1800501FB12041B3C02D56442FE
:100B1000012000E00020DFF898A080460027FA447A
:100B2000AAF1BE0A0EE0E0070AD03246684607EB9B
:100B3000470101230AEB810105F047FE8DE807001C
:100B400064107F1C002CEED1194F7F44AE3F19E09A
:100B5000E80715D007EB04100DF1180A90E80E0015
:100B60008AE80E00C068F04201D198190890324618
:100B7000012306A903A805F028FE03AB83E80700BC
:100B80006D10641C002DE3D14FF00103324669461D
:100B9000B8F1000F03A802D005F002FE01E005F055
:100BA00014FEC9E90001C9F808200AB0BDE8F087C1
:100BB0004C61000000487047F80000207546FFF7C0
:100BC000F9FFAE4605006946534620F0070085460A
:100BD00018B020B5FFF758FBBDE820404FF00006E5
:100BE0004FF000074FF000084FF0000BAC46ACE8A8
:100BF000C009ACE8C009ACE8C009ACE8C00921F004
:100C000007018D46704710B50446AFF300802046BB
:100C1000BDE81040FFF724BB30B44FF0013C50F862
:100C2000042B51F8043BCCFA52F4D51A20D1FCB96C
:100C300050F8042B51F8043BCCFA52F4D51A17D1D2
:100C4000B4B950F8042B51F8043BCCFA52F4D51A3D
:100C50000ED16CB950F8042B51F8043BCCFA52F485
:100C6000D51A05D1002CDAD030BC4FF00000704707
:100C700029BAB1FA81F111F01801D1F120008440B4
:100C8000F2D1CA40CB4012F0FF0213F0FF0330BC98
:100C9000D01A704701491820ABBEFEE726000200BB
:100CA00070470000B0B52DED068B9FED1A8A40F21B
:100CB0005814C2F2000400206425B0EE489AB0EE49
:100CC00048AAC4E906002062204600F00DFA94ED1F
:100CD000030A94ED041A94ED052A05203AEE00AAC1
:100CE00039EE019A38EE028A00F0B4FC013DEBD1F6
:100CF0009FED090A8AEE001A89EE002A88EE000AA2
:100D000084ED061A84ED072A84ED080ABDEC068BF3
:100D1000B0BD00BF000000000000C8422DE9F04156
:100D200084B00025C4F202054FF080080027284651
:100D300010210022ADF80D808DF80F708DF80C7029
:100D4000ADF80A7000F06AFD41F63C64C2F200049E
:100D50004FF0FF360DF10D010DF10A02204603237D
:100D6000009602F089FA28461021012200F056FD73
:100D7000022000F06FFC4BF27E60ADF80D002846BB
:100D800010210022ADF80A7000F048FD0DF10D01B0
:100D90000DF10A0220460223009602F06DFA284661
:100DA0001021012200F03AFD322000F053FC2846C9
:100DB00010210022ADF80D808DF80F708DF80C70A9
:100DC000ADF80A7000F02AFD0DF10D010DF10A02D7
:100DD00020460323009602F04FFA284610210122F4
:100DE00000F01CFD022000F035FC40F27D40ADF823
:100DF0000D00284610210022ADF80A7000F00EFD0B
:100E00000DF10D010DF10A0220460223009602F0B9
:100E100033FA28461021012200F000FD322000F0B4
:100E200019FC7C20ADF80D00284610210022ADF8F9
:100E30000A7000F0F3FC0DF10D010DF10A022046DD
:100E40000223009602F018FA28461021012200F031
:100E5000E5FC0A2000F0FEFB41F2B850C2F20000AF
:100E6000007841218DF80D108DF80E0028461021D4
:100E70000022ADF80A7000F0D1FC0DF10D010DF16A
:100E80000A0220460223009602F0F6F928461021B5
:100E9000012200F0C3FC0A2000F0DCFB48F6400011
:100EA000ADF80D00284610210022ADF80A7000F0C0
:100EB000B5FC0DF10D010DF10A022046022300964A
:100EC00002F0DAF928461021012200F0A7FC0A20DE
:100ED00000F0C0FB4BF2146005F58065ADF80D0025
:100EE000284601210022ADF80A7000F097FC0DF1B0
:100EF0000D010DF10A0220460223009602F0BCF912
:100F000028460121012200F089FC322000F0A2FBDA
:100F1000284601210022ADF80D80ADF80A7000F0DE
:100F20007DFC0DF10D010DF10A0220460223009611
:100F300002F0A2F928460121012200F06FFC0120F5
:100F400000F088FB1120ADF80D0028460121002299
:100F5000ADF80A7000F062FC0DF10D010DF10A020E
:100F600020460223009602F087F92846012101223B
:100F700000F054FC322000F06DFB48F21070ADF828
:100F80000D00284601210022ADF80A7000F046FC51
:100F90000DF10D010DF10A0220460223009602F028
:100FA0006BF928460121012200F038FC0A2000F0EC
:100FB00051FB40F2F600C2F2000000780F218DF8DC
:100FC0000D108DF80E00284601210022ADF80A70A0
:100FD00000F024FC0DF10D010DF10A022046022360
:100FE000009602F049F928460121012200F016FC82
:100FF0000A2000F02FFB04B0BDE8F081B0B586B048
:101000000025044600209221C4F2020505900491B7
:10101000CDE9020028461021002200F0FFFB41F636
:101020003C604FF0FF3CC2F2000004A902AA082372
:10103000CDF800C002F020F928461021012200F06E
:10104000EDFBBDF90A3041F2B852BDF90C50C2F2C5
:101050000002127800EE103A94ED091A9DF80E0085
:101060009DF80F10B8EEC03A00EE105AB1EE412ACA
:10107000032AB8EEC01A0DD0022A07D0012A14BFE5
:101080009FED180A9FED150A06E000BF9FED120ABA
:1010900002E000BF9FED120A23EE003A33EE022A6F
:1010A00084ED002A94ED0A2A40EA012021EE001A7C
:1010B00000B231EE421A02EE100AB8EEC22A94EDE6
:1010C0000B3A20EE020A30EE430A84ED011A84ED59
:1010D000020A06B0B0BD00BFAE676B3BAE67EB3A2D
:1010E000AE67EB3BAE676B3AB0B586B00446002006
:1010F00040F20045CDF81200ADF816000290CDF890
:101100000B008220C4F202058DF81100284601214F
:10111000002200F083FB41F63C604FF0FF3CC2F23E
:1011200000000DF1110102AA0723CDF800C002F062
:10113000A3F828460121012200F070FB40F2F605D9
:10114000BDF90920C2F20005BDF90B302D7800EE83
:10115000102A94ED061A9DF80D009DF80E10B8EEB9
:10116000C03A00EE103A6A1EB1EE412A032AB8EEE8
:10117000C01A13D8DFE802F0020E060A9FED1A0A21
:101180000EE000BF9FED160A0AE000BF9FED170AB0
:1011900006E000BF9FED130A02E000BF9FED140AB6
:1011A00023EE003A33EE022A84ED032A94ED072A57
:1011B00040EA012021EE001A00B231EE421A02EE9E
:1011C000100AB8EEC22A94ED083A20EE020A30EE78
:1011D000430A84ED041A84ED050A06B0B0BD00BFD1
:1011E0000000FA3B00007A3C0000FA3C00007A3B29
:1011F00000007A3D10B52DED028B40F25814C2F27A
:1012000000042046B0EE408AFFF76EFF2046FFF74D
:10121000F5FE94ED030A94ED0C3A20EE080A94EDE5
:10122000041A30EE030A84ED0C0A94ED0D0A21EE47
:10123000081A94ED052A31EE000A84ED0D0A94EDAA
:101240000E0A22EE081A31EE000A84ED0E0ABDECF9
:10125000028B10BDFEE700000020704700207047A1
:1012600010B541F2BC54C2F2000440F6B851C2F2CB
:1012700000012046002202F065FD40F2B851C2F2A2
:101280000001204602F050FD002010BD10B541F2D3
:10129000BC54C2F200040146204602F045FD20463F
:1012A00002F01CFD002010BD0020704741F2BC522E
:1012B000C2F20002D2F8BC22D2F81432002B1CBFBA
:1012C0000120704710B541F2BC54C2F200040A4636
:1012D0000146204602F036FD2046BDE8104002F0EF
:1012E000B5BD000041F69800C2F2000000F01EB843
:1012F00041F6F800C2F2000000F018B87047000094
:1013000072B600BFFEE7000090F83510022909D13F
:10131000052180F835100068016821F001010160A5
:10132000002070478021416501207047F0B581B0F1
:101330000021009140F22401C2F200010B68D0E9C3
:10134000166148F2B51537680822C1F64E358A4055
:101350003A42A3FB05350CD003681C68640708D526
:101360001C6824F004041C60B260426D42F001026B
:10137000426501228A403A4208D003685B691B0635
:1013800004D5B260426D42F00202426504228A40F6
:101390003A4208D003681B689B0704D5B260426DCF
:1013A00042F00402426510228A403A4219D0016894
:1013B0000B681B0715D5B2600B680A685B0309D47C
:1013C000D20509D40A6822F008020A60016C29B922
:1013D00007E000BF110341D4016C11B104468847F6
:1013E0002046C26D202101FA02F33B4243D001683E
:1013F0000F68FF063FD5B36090F835700B68052F76
:101400001CD123F016030B604B6923F080034B6162
:10141000036C0BB9836C1BB10B6823F008030B60E2
:101420003F219140B160012180F83510016D00220B
:10143000002980F8342054D158E000BF0A685B03CB
:1014400010D4D20512D40A6822F010020A600121D9
:1014500080F83510002180F8341007E0816C0029F5
:10146000BCD1BEE7110301D4416C00E0C16B11B1E6
:10147000044688472046416DC1B3416DC9072ED04F
:10148000052180F835100168AA0A0B6823F00103D2
:101490000B60009B0133934200931AD80B68DB0763
:1014A00017D0009B01339342009312D80B68DB07DF
:1014B0000FD0009B0133934200930AD80B68DB07DF
:1014C00007D0009B01339342009302D80B68DB07DF
:1014D000DFD1012180F83510002180F83410C16C73
:1014E00021B101B0BDE8F040084700BF01B0F0BD38
:1014F0002DE9F041044600F097F9ECB105460220D1
:1015000084F835000020216884F83400086820F051
:101510000100086021680868C00711D000F084F954
:10152000401B0528F6D9032520230320636584F892
:101530003550BDE8F08100BF0120BDE8F08100BF5B
:10154000086848F23F02CFF21002D4E9013500EA00
:10155000020C04F10C0898E8C10143EA0C032B4388
:101560001843D4E9072E304338431043626A40EAF7
:101570000E00042A40EA08031CD1206BD4E90A2E8D
:1015800040EA0E00184308604869BEF1000F20F0E1
:10159000030040EA020040F0040C11D0B8F5005FEF
:1015A00036D0B8F1000F45D1022A46D0012A3BD0EF
:1015B00032B942E00B60486920F0070040EA020CB3
:1015C00001F0F8004AF6AB221038CAF6AA22A0FBB6
:1015D00002231A0946F65443C1F814C0C0F60003AA
:1015E0009A5C40F2FF335F284FF03F0021EA03018D
:1015F00000FA02F088BF0431C4E9161288600023A3
:1016000001250020636584F83550BDE8F08100BFF6
:10161000032AD5D8012540230120DFE802F0030E7C
:10162000030500BF82E700BFAEF1C070B0FA80F0E2
:10163000400904E0032A04D3C2D1CEF3006000289D
:10164000BED0012540230120636584F83550BDE8F4
:10165000F0810000B0B5044600F0E6F8054640F21F
:101660000000C2F200000078611C18BF044400BFF3
:1016700000F0DAF8401BA042FAD3B0BD2DE9F04FDC
:1016800083B000F1200200F13E4741F60045009290
:1016900007F1FF77C4F2020508224FEAB726A842F5
:1016A00008BF072200254FF000084FF00009072E61
:1016B00038BF4FEAB72201920AE000BF09F10109E1
:1016C00008F10208B9F1100F05F1040500F0A2803D
:1016D0000F68012202FA09FE17EA0E0AEED0D1F8CD
:1016E00004C003220CF003077E1E02FA08F4012E48
:1016F0006FEA040B12D88468CE6804EA0B0406FA79
:1017000008F634438460446824EA0E06CCF30014DF
:1017100004FA09F42643466004E000BF032F01D118
:1017200003271EE0C6688C6806EA0B0604FA08F474
:101730002643022FC66014D16FF00302009E02EA16
:10174000590756F807C005F01C040F220B69A24088
:101750002CEA0202A3401A43F251D1F804C00CF063
:101760000307026807FA08F302EA0B021A431CF4A3
:10177000403F0260A2D0002243F644030292C4F22A
:1017800002031A6843F6004442F480421A601A6861
:10179000C4F2010402F480420292029A29F0030288
:1017A0004FF6084C2244CFF6FF7C52F80C3005F07F
:1017B0000C070F26BE40B343019E06FA07F73B43D2
:1017C00042F80C30A2684B6842EA0A0743F60C4C18
:1017D000DE0258BF22EA0A07A760C4F2010CDCF857
:1017E00000209E0242EA0A0758BF22EA0A07CCF804
:1017F000007062689E0342EA0A0758BF22EA0A079D
:1018000067602268DB0342EA0A0758BF22EA0A0738
:10181000276053E703B0BDE8F08F0000002A08BF3F
:10182000090481617047000041F69460C2F2000033
:101830000068704740F2000041F69461C2F2000077
:10184000C2F2000100780A68104408607047000086
:1018500080B543F60040C4F20200016841F4007113
:101860000160016841F480610160016841F48071A8
:101870000160032000F086F80F2000F005F800F06A
:1018800027F8002080BD000070B540F20006C2F2CB
:10189000000640F224013278C2F200014FF47A735C
:1018A0000968B3FBF2F20446B1FBF2F1084601F01D
:1018B00087FE0F2C4FF0010508D838B94FF0FF30E4
:1018C00021460022002500F031F87460284670BDE2
:1018D00082B0002043F640010190C4F202014A6840
:1018E00042F480424A604A6802F480420192019ABE
:1018F0000090086840F080500860086800F0805050
:101900000090009802B07047002848BF704700F070
:101910001F01012202FA01F11C2202EAD0004EF25C
:101920000012CEF2000281507047000010B54EF652
:101930000C5CCEF2000CDCF80030C3F3022E8EF00B
:101940000704042C28BF0424BEF103034FF0FF3E1C
:101950000EFA04F438BF0023A14399400EFA03F3B2
:101960009A43114300F00F0200F160430901043A69
:1019700003F564436244002848BF02F10C03197068
:1019800010BD00004EF60C51CEF200010A684FF671
:10199000FF031A4060F30A2242F0806040F0FD70BD
:1019A000086070477047000002680020516270476D
:1019B0002DE9F041D0F80080D8F8243091B1D8F862
:1019C0002870B1F1010C03EB17414FD05FFA8CF78F
:1019D00008F58273042F0CF0030E0BD200270024AD
:1019E0002BE000BF43EA02410020C8F82810BDE800
:1019F000F08100BF0CF0FC0508F1F406002400BFE4
:101A000056F8107F44F0020001EB174144F0010743
:101A1000FFB253F82770C0B253F8200001EB174112
:101A200001EB104044F00301C9B253F82110043413
:101A3000E7B2AF4200EB1141E2D1BEF1000F15D089
:101A400053F82700BEF1010F01EB10410ED0601CCE
:101A5000C0B253F82000BEF1020F01EB104105D0D7
:101A6000A01CC0B253F8200001EB104141EA024033
:101A700008EB8C01C1F804010020BDE8F0810000F2
:101A8000D0F8E00402F018BD01EBC102D0F8E03458
:101A900000EB8200026A184602F072BC01EBC10240
:101AA000D0F8E03400EB8200D0F86022184602F053
:101AB000C5BC0000D0F8E00402F000BD10B501F094
:101AC0000F0E0A464FFA81FC0EEBCE0100EB8103AC
:101AD00003F51571BCF1000F48BF03F1140190F834
:101AE0009434D209012B4A7081F800E004BF02202F
:101AF00010BD0268012380F894340446104603F0B8
:101B0000E7FA002084F8940410BD0000037901F086
:101B10000F029A4284BF0120704710B502EBC20346
:101B200000EB83034FFA81FC8E4603F51571BCF17F
:101B3000000F48BF03F114014FEADE134B7090F819
:101B400094344FF0000C012B81F802C00A7004BFDE
:101B5000022010BD0268012380F894340446104628
:101B600003F0AAFD002084F8940410BD01F00F01D9
:101B700001EBC10100EB8100D0F868027047000062
:101B800010B54FFA81FE01F00F0CBEF1000F6FF39C
:101B9000DF220CEBCC010DD400EB810E00240EF5FE
:101BA00015718EF855428EF854C2CEF85C228EF82C
:101BB000583209E000EB810101F814CF01244C7088
:101BC0008A600B71A1F81AC0022B04BF00224A716F
:101BD00090F89424012A04BF022010BD026801235A
:101BE00080F894340446104603F0E4F8002084F8AA
:101BF000940410BD10B501F00F0E0EEBCE0100EBFA
:101C000081044FF0000CC4F868C284F855C290F803
:101C100006C004F51571C4F86022C4F86432BCF142
:101C2000010F84F854E208BFCA610068624603F0FD
:101C30008DFD002010BD0000B0B5027901F00F0449
:101C400094424FF001022CD801EBC10300EB830357
:101C50004FFA81FC03F5157304EBC405C90900EBC9
:101C60008505BCF1000F48BF05F11403597090F8C9
:101C700094149A7001291C7004BF0220B0BD016841
:101C8000054680F894240846194603F03FFD2CB918
:101C90002868A97905F29C4203F0E0FC002285F84F
:101CA00094241046B0BD000001F00F0C0CEBCC01E9
:101CB00000EB810101F814CF4FF0000C0B61837928
:101CC000C1F814C04FF0010CCA60012B81F801C0AB
:101CD00008BFCA6180B500681A4603F037FD0020CE
:101CE00080BD00002DE9F04F87B005688246284688
:101CF00003F048FF10B107B0BDE8F08FDAF800003C
:101D000003F06EFF0028F6D0D5F80808C0F30D21C7
:101D1000DAF80000CAF8D41403F062FF0146DAF8DA
:101D20000000890703D5416901F00201416105F511
:101D30000061049103F054FF0146DAF80000C9067F
:101D4000059535D5816921F0100181612C6A04F077
:101D50000F0000EBC0000AEB8001C4F343400628EB
:101D600001F5157512D002281BD147F6F07014EA60
:101D7000000616D0E96834090598224603F034FFBE
:101D8000E86800EB1610E86008E000BF05980AF26A
:101D90009C41082203F028FFC4F30A146869204418
:101DA0006861DAF80000816941F010018161059DE8
:101DB00003F016FF000340F1F180DAF8000003F0B1
:101DC000EDFE002800F0EA8006460AF29C404FF43F
:101DD000306800244FF0000B069019E005EB080076
:101DE00002218160B80642BF05EB08002021816016
:101DF000B80442BF05EB08004FF4005181600BF1BD
:101E0000010B760808F1200804F1240400F0C680D4
:101E1000F007F4D0DAF800005FFA8BF9494603F0D6
:101E2000D7FE0746C00760D005EB0800012181609E
:101E3000DAF8000008EB0001036C8A689AF8065093
:101E4000012D25D1150733D4950600F19F8043F26B
:101E50000B05C4F65475AB42059D02D312F4004243
:101E600030D10AEB0402D2F8743209696FF3DF4112
:101E7000A3EB0101C2F868129CBBD2F86432002BBC
:101E800000F08A80D2F860020844C2F8600228E0BC
:101E900043F20B05C4F65475FF35AB4218D1059DCE
:101EA00010040FD4900644BF2020886019E000BFC2
:101EB00043F20B00C4F65470059D834215D312F40F
:101EC000004012D04FF40040886038070FD43DE046
:101ED000059D34B9DAF8641219B90021069A03F0A5
:101EE000BDFB50464946FFF7D9FD38072ED505EB17
:101EF000080008218160DAF8000043F20B02056C4B
:101F000040448168C4F6547295420BD311F40041E9
:101F100008D04FF400418160504600F019FD059D46
:101F20000AE000BF504600F013FD43F20B00C4F678
:101F300054708542059D09D39AF80600012805D101
:101F4000DAF80000069A012103F088FBF80642BF88
:101F500005EB080010218160B8077FF543AF686981
:101F6000000604D50499486840F4806048600AEB94
:101F7000040090F8571201297FF430AF002180F857
:101F800057125046494600F031FB27E72020886071
:101F9000059D3807ABD4D9E701219FE7DAF80000A7
:101FA000CDF818A003F01CFE400340F1D380069842
:101FB000006803F0EBFD002800F0CC800646069890
:101FC00005F5106900F1140100F29C40002703910F
:101FD0000190CDF8089004E0760807F1010700F0C1
:101FE000B980F007F8D006985FFA87FA0068514682
:101FF00003F0DCFD0446C00726D0049A07F00F006A
:10200000516B012303FA00F021EA0000506309EB51
:102010004710836006988079012811D1039907EB56
:10202000C70001EB8000D0E902121144C1603FB942
:10203000006928B90698019A0068012103F00EFB97
:1020400006985146FFF720FD200742BF09EB4710D5
:1020500008218160E00642BF09EB47101021816032
:10206000600642BF09EB471040218160A00716D5EA
:102070002846394603F018FD039907EBC70001EB2A
:10208000800010F8031F012905D100210170069876
:10209000514600F0A7FA09EB4710022181602006A3
:1020A0009AD5039907EBC70001EB8008D8E9042013
:1020B000824291D30699D8F808300C68111A9942D7
:1020C00038BF0B4604EB4711D1F818C903F1030ED2
:1020D0001FFA8CF3B3EB9E0F2DD301F5106900BFEF
:1020E000D8F81020824224D9101A069AD8E902B1F1
:1020F0009579584538BF83461FFA8BF320465246E0
:102100000095059D04F018F8D8F80C00D8F81410C4
:102110005844C8F80C0001EB0B00C8F81400D9F8BB
:1021200018100BF1030289B2B1EB920FD8D2D8F894
:102130001020DDF8089082423FF64EAF07F00F0006
:10214000D4F83418012202FA00F021EA0000C4F8A1
:10215000340841E7DDF81890D9F8000003F040FD9D
:10216000002821D4D9F8000003F03AFD00053AD444
:10217000D9F8000003F034FDC00445D5049948683F
:1021800020F001004860D9F80000102103F08CFC19
:1021900099F80400010600F0EC80C1B2042900F0B7
:1021A000030035D200219AE00499486820F001002C
:1021B000486099F8CC04012808D1002089F8CC04A3
:1021C00048460021FFF7EEFB03E000BF484600F061
:1021D000A3FBD9F80000416901F00041416103F01F
:1021E000FFFC0005C4D504988068C00702D04846AB
:1021F00000F0D6FBD9F80000416901F400614161AB
:1022000003F0EEFCC004B9D4D9F80000DDE000BF53
:102210006FF0600202EA411200234FF67F3700217F
:10222000EE18C6F80879D6F80059803325F4001561
:10223000C6F80059C6F8087BD6F8005B9A4225F428
:102240000015C6F8005BD6F8005B01F1040145F00B
:102250000065C6F8005BC6F82879D6F8205925F441
:102260000015C6F82059C6F8287BD6F8205B25F45F
:102270000015C6F8205BD6F8205B45F00065C6F86F
:10228000205BC6F84879D6F8405925F40015C6F801
:102290004059C6F8487BD6F8405B25F40015C6F8CF
:1022A000405BD6F8405B45F00065C6F8405BC6F879
:1022B0006879D6F8605925F40015C6F86059C6F853
:1022C000687BD6F8605B25F40015C6F8605BD6F82D
:1022D000605B45F00065C6F8605B059DA0D10028F5
:1022E00047D005F5106202EB41134FF67F374E01E0
:1022F0009F609559059B25F4001503F530639551B2
:1023000003EB4115AF609D59012825F400159D513F
:102310009D5945F000659D512BD04E1C02EB461493
:102320007501A760545903EB461624F40014545168
:10233000B7605F59022827F400175F515F5947F0D3
:1023400000675F5115D0881C02EB40174FF67F36AF
:102350004101BE60575803EB401027F40017575057
:102360008660585820F400105850585840F00060CB
:102370005850049F8421F869442240F00110F8610C
:1023800099F80F0000284FF00B0008BF142108BF78
:1023900042F22B007B5808BF102218437850B858DF
:1023A00040F00B00B850386809F29C4220F4FE60FF
:1023B0003860D9F8000099F8061003F04FF9D9F801
:1023C0000000416901F48051416103F009FC0146BC
:1023D000D9F8000089041AD502F02EFDD9F80000C2
:1023E00003F0C2FBD9F8004089F8070000F0A4FB15
:1023F00099F807200146204603F012FE484600F0F7
:1024000075FAD9F80000416901F40051416103F007
:10241000E7FB000706D4D9F8000003F0E1FB000653
:102420000DD437E0484600F07BFAD9F80000416946
:1024300001F00801416103F0D3FB00062AD505999C
:10244000886920F08000886199F80400022821D36F
:1024500009F5157409F11405012640F27B2704E003
:102460000136864207F1240714D219F80710012912
:10247000F6D106F00F0000EBC0023006D9F80000DC
:1024800005EB820158BF04EB820103F07DFA99F855
:102490000400E5E7D9F8000003F0A2FBC0024BD42A
:1024A000D9F8000003F09CFB059D80027CD599F8CB
:1024B0000410022926D305F53260013909F51F728F
:1024C000012304E02030013902F124021AD0076808
:1024D0001678012EF6D1B7F1FF3FF3DCD9F8D464BA
:1024E00086EA1747FF07EDD102F8013CAF6947F0D4
:1024F0008007AF616F693F06E4D40499486840F4EF
:1025000000704860D9F80000416901F40011416190
:1025100003F066FB40004DD54846FFF7B1FAD9F805
:102520000000416901F08041416103F059FB40071F
:102530007FF5E1AB45E000BF99F80400022827D3FE
:10254000059909F1140401F5126509F13B064FF0F4
:102550000108012706E000BF01372035874206F158
:10256000240615D229687278012AF5D1B1F1FF3F0E
:10257000F2DC07F00F0000EBC001D9F8000004EB1B
:10258000810186F8008003F0FFF999F80400E3E781
:10259000D9F80000416901F48011416103F020FB8A
:1025A000059D80023FF583AFD9F8000003F018FBCA
:1025B0004000B1D4D9F8000003F012FB40077FF5CA
:1025C0009AABD9F800004468610704D54846FFF784
:1025D00071FAD9F8000041682143416007B0BDE8B5
:1025E000F08F0000D0F8E00401F0CCBFD0F8E00498
:1025F00001F0DEBF002804BF01207047F0B581B0B4
:102600000446056890F8950428B9002084F89404DD
:10261000204600F027F90320B5F1A04F84F8950477
:1026200004BF0020A071206803F010F894E80F00A8
:10263000267C009602F010FC002840F00081206803
:10264000002103F027FB002840F0F98094F804E013
:10265000BEF1000F00F0EC800EF0030CBEF1040F91
:102660004FF0000240D30EF0FC03A4F190000321D0
:10267000012500BFCE1E80F8A460A0F8BE608E1EAB
:1026800080F8C860A0F8E2604E1E80F8EC60A0F808
:10269000066180F81011A0F82A110E1D013180F892
:1026A000A55080F8A820C0E92B22C0F8B42080F8FB
:1026B000C95080F8CC20C0E93422C0F8D82080F876
:1026C000ED5080F8F020C0E93D22C0F8FC2080F8F1
:1026D000115180F81421C0E94622C0F82021903021
:1026E00099423146C6D1F21EBCF1000F31D004F13F
:1026F000140002EBC20100EB8105012300F8212048
:102700000021BCF1010F6B706A832971C5E90211C8
:1027100029611ED0551C05EBC50600EB8607BCF1F0
:10272000020F7B7000F826507D833971C7E90211D2
:1027300039610ED0911C01EBC10200EB820301252F
:1027400000F8221000205D7059831871C3E902005F
:102750001861BEF1000F6BD0BEF1040F4FF0000204
:1027600036D30EF0FC000321234600BFCF1E83F8B2
:1027700054728F1E83F878724F1E83F8C0120D1D9D
:10278000013183F8552283F85822C3E99722C3F810
:10279000642283F8792283F87C22C3E9A022C3F85B
:1027A000882283F89D2283F89C7283F8A022C3E9D3
:1027B000A922C3F8AC2283F8C12283F8C422C3E95A
:1027C000B222C3F8D022903381422946CED1EA1EEC
:1027D000BCF1000F2CD004F5157002EBC20300EB26
:1027E00083070021BCF1010F797000F823203971B3
:1027F000C7E9021139611BD0531C03EBC30700EB7F
:102800008706BCF1020F717000F827303171C6E9FC
:10281000021131610CD0911C01EBC10200EB82036B
:1028200000275F7000F822101F71C3E902771F6153
:1028300094E80F00277C009702F0ACFC30B1022036
:1028400084F89504012001B0F0BD00BF0020607441
:10285000012084F89504206802F08CFC002001B06F
:10286000F0BD0000B0B586B000680024B0F1A04F04
:102870000594CDE903440294019401D006B0B0BDA3
:1028800043F630050094C4F20205286801A940F01F
:1028900001002860286800F00100009000984FF4C3
:1028A000E05001900220CDE90204032004900A20A8
:1028B00005900020C4F20200FEF7E0FE68680021E7
:1028C00040F08000686000946869002240F4804015
:1028D0006861686900F48040009000984320FFF729
:1028E00025F84320FFF710F806B0B0BD10B5044638
:1028F000C07928B1022801D0FEF702FD012100E0D5
:102900000021D4F8E00401F0DBFED4F8E004BDE8D7
:10291000104001F089BE0000D0F8E00401F0B6BE1E
:10292000D0F8E00401F0BCBE90F89424012A04BF62
:102930000220704710B5012280F894244174026887
:102940000446104603F05AFB002084F8940410BD9E
:10295000D0F8E02400F29C41104601F0C7BE000010
:1029600010B5044690F89404012804BF022010BD5D
:102970002068012184F89414C168490606D5617B5A
:10298000012903D1816B41F48031816303F084F824
:10299000206802F0DFFB002084F8940410BD0000E2
:1029A00010B50446D0F8E00401F0F6FE2068D0F837
:1029B000001E41F00101C0F8001EE07A002808BFA7
:1029C00010BD4EF61050CEF20000016841F0060135
:1029D000016010BD002804BF012070472DE9F041BF
:1029E00043F60808C4F202080446D8F8F8030D4676
:1029F00000F00700884207D288F8F853D8F8F803A7
:102A000000F00700A84277D12068810717D5410759
:102A100005D5D8F8001041F4E051C8F800100107BE
:102A200005D5D8F8001041F46041C8F80010D8F876
:102A30000010A26821F0F0011143C8F80010C0078F
:102A400040D1D8F8F80300F00700A84207D988F869
:102A5000F853D8F8F80300F00700A8424CD12068DA
:102A6000410707D5D8F80010E26821F4E05111437E
:102A7000C8F80010000708D5D8F80000216920F434
:102A8000604040EAC100C8F8000000F05BF8D8F8E8
:102A9000001046F64442C1F30311C0F60002515C37
:102AA00040F2240220FA01F140F20400C2F20000D8
:102AB0000068C2F200021160FEF7E6FE0020BDE8E9
:102AC000F08100BF6068811E022907D258F8081CF7
:102AD00089015CBF0120BDE8F08111E0012807D128
:102AE00058F8081C89035CBF0120BDE8F08107E0AD
:102AF00058F8081C890703D40120BDE8F08100BF05
:102B0000D8F8001021F003010843C8F80000FEF7D0
:102B10008BFE064641F28837D8F80000616800F065
:102B20000C00B0EB810F8CD0FEF77EFE801BB8420C
:102B3000F2D90320BDE8F08140F22400C2F2000087
:102B40000068704710B543F60404C4F202046068DC
:102B500000F00C0008280BD0042819BF42F20040F6
:102B6000C0F2F40041F60030C0F2B70010BD00BF63
:102B7000206821682368490241F60031C0F2B7019C
:102B800000F03F02C3F388105CBF42F20041C0F284
:102B9000F401A1FB00010023FDF788FB216802225C
:102BA000C1F3014102EB4101B0FBF1F010BD0000A7
:102BB000002804BF012070472DE9F04182B004468F
:102BC000007843F60006C007C4F202060CD0B068D5
:102BD00000F00C00042840F081803068800303D5A9
:102BE0006068002800F06881207880071BD5B068F5
:102BF00010F00C0F09D0B06800F00C00082840F06D
:102C000087807068400200F183803068800703D5B8
:102C1000E068012840F050813068216920F0F80018
:102C200040EAC10030602078000713D420784007C4
:102C30002AD4A569002D00F03A81B06800F00C009C
:102C4000082840F0A580012D40F00E81012002B03F
:102C5000BDE8F0816069002800F082800020C4F2A5
:102C600047200121C0F8801EFEF7DEFD054600BFAB
:102C7000706F8007DAD4FEF7D7FD401B0228F7D922
:102C8000032002B0BDE8F081306C5FEAC0080AD4CE
:102C900000200190306C40F080503064306C00F0C7
:102CA00080500190019847F20007C4F2000738688D
:102CB000C00547D4386840F480703860FEF7B4FD32
:102CC000054600BF3868C0053CD4FEF7ADFD401B8B
:102CD0000228F7D9032002B0BDE8F081B06800F007
:102CE0000C00082803D1706840023FF576AF616898
:102CF0003068B1F5803F07D0B1F5A02F40F09A8041
:102D000040F480203060306840F4803030609AE0D9
:102D1000E068002840F20000C4F247205CD00121A6
:102D20000160FEF781FD0546306880073FF574AF0E
:102D3000FEF77AFD401B0228F6D9032002B0BDE859
:102D4000F08100BFA168306F012905D0052955D158
:102D500040F004003067306F40F00100306756E00B
:102D60000020C4F247200021C0F8801EFEF75CFD61
:102D7000054600BF706F80077FF558AFFEF754FD22
:102D8000401B0228F6D9032002B0BDE8F08100BF45
:102D90000027C4F2472700203866FEF745FD022DC4
:102DA00005460DD13068800140F18A80FEF73CFD78
:102DB000401B02284FF00300F4D902B0BDE8F081B7
:102DC0003068800173D5FEF72FFD401B02284FF0BD
:102DD0000300F5D9F1E700BF00210160FEF724FDF3
:102DE000054600BF306880077FF51DAFFEF71CFD6C
:102DF000401B02284FF00300F4D9DEE720F0010069
:102E00003067306F002920F0040030677AD0FEF779
:102E10000BFD054641F28837306F800700F1848052
:102E2000FEF702FD401BB842F6D9032002B0BDE810
:102E3000F08100BF20F4803030603068002920F439
:102E4000802030607AD0FEF7EFFC054630688003C2
:102E50003FF5CAAEFEF7E8FC401B6428F6D9032014
:102E600002B0BDE8F08100BF7068E16900F4800243
:102E70008A4221D1216A00F03F028A421CD147F6E2
:102E8000C071626A0140B1EB821F15D1A16A4FF691
:102E9000FF73C903994300F44032A1F580318A429F
:102EA0000AD1E16A00F07060B0EB016F04D100203C
:102EB00002B0BDE8F08100BF012002B0BDE8F081A2
:102EC00004F11C052FCD084340EA8210D9034FF6C8
:102ED000FF729143A1F5803140EA056008437060BC
:102EE00001203866FEF7A0FC044600BF3068800170
:102EF000DDD4FEF799FC001B02284FF00300F5D942
:102F00005BE700BFFEF790FC054641F2883700BF43
:102F1000306F800708D5FEF787FC401BB8424FF0A2
:102F20000300F5D949E700BFB8F1000F3FF581AEC6
:102F3000306C20F0805030647BE600BFFEF774FCFC
:102F4000054600BF306880037FF54EAEFEF76CFC8F
:102F5000401B64284FF00300F4D92EE770470000AF
:102F6000B0B582B001684A688B6803F04105012D55
:102F700008D112F0400505D0016C02B0BDE8B040A8
:102F8000084700BF9D0707D512F0800504D0416CAB
:102F900002B0BDE8B040084713F4B07F18BF12F08C
:102FA000200501D102B0B0BD5D0618D590F8515092
:102FB000032D09D100200190C86801908868019014
:102FC000019802B0B0BD00BF456D45F004054565F0
:102FD00000250195CD6801958D680195019D9D069F
:102FE00004D4DB0511D4436DDBB9DBE7456D45F057
:102FF00001054565002501958D6801950D6825F051
:1030000040050D60019DDB05EDD5436D43F00803E0
:103010004365002301938B680193019B436D002B53
:10302000C0D04B68920723F0E0034B604FF00103E0
:1030300080F8513026D04A6843F2C57422F003026A
:103040004A60C16CC0F6000459B1054608460C65DB
:10305000FEF75AF90146284619B1416D41F0400189
:103060004165816C00299DD00C6504460846FEF739
:103070004BF9002896D0606D40F04000606502B0CA
:10308000B0BD00BF02B0BDE8B040FFF767BF0000B1
:1030900070B528B1416A29B100210161142106E00F
:1030A000012070BD4168B1F5827F02D01C21002251
:1030B00042500026866290F8511029B980F850607D
:1030C000054600F03DF82846022180F8511090E8AE
:1030D0002E0002F482720C6803F4044324F04004CE
:1030E0000C601A4405F4006305691A4405F00203F4
:1030F00045691A4405F001038569C4691A4405F459
:1031000000731A4404F03803046A1A4404F080037C
:10311000846A1A4304F400531A430A60436A04227F
:1031200002EA154203F010031A444A60CA6922F405
:103130000062CA610121466580F85110304670BDB9
:103140002DE9F04F87B0044643F200070068C4F24F
:1031500001070026B8420696CDE90466039602965A
:1031600002D007B0BDE8F08F43F630000196C4F2FC
:103170000200416902AD41F480514161416946F26A
:10318000104801F4805101910199019601684FF0B6
:10319000020941F00201016001684FF0030A01F0E9
:1031A000020101910199019601684FF0050B41F070
:1031B000010101600068294600F0010001900198BA
:1031C0001820029007F55440C4F20208CDE9039696
:1031D000CDF814A0CDF818B0FEF750FA8020CDE954
:1031E000020904A880E8400C07F550402946FEF784
:1031F00045FA41F69805C2F200054FF0C0674FF45A
:1032000080692846C5E90087C5E90266C5E90496D4
:10321000C5E90666C5E90866FEF76AF9002818BF21
:10322000FEF76EF8E564AC6341F6F80508F1480076
:10323000C2F200054021C5E9000705F1080000229F
:1032400080E806022846C5E90522C5E907226A6228
:10325000FEF74EF9002818BFFEF752F82320002190
:103260000022A564AC63FEF761FB2320FEF74CFB54
:1032700007B0BDE8F08F00002DE9F04383B01E4693
:1032800015460F460446FEF7CFFA94F851108146D2
:10329000012909D1002F4FF0010018BF002D0FD1D7
:1032A00003B0BDE8F08300BF6068B0F5827F0DD148
:1032B00004294FF00200F3D1A1680029EAD0EFE71A
:1032C000002EEDD094F85000012803D1022003B065
:1032D000BDE8F083012084F8500094F851000021EB
:1032E00004281CBF052084F851006165A563E687AA
:1032F000A6872763E6862068A68621646164016844
:10330000490603D4016841F0400101606168731E01
:10331000E268B1FA81F1B3FA83F3DDF82880490954
:103320005B09B2F5006F41EA030165D131B137F8AD
:10333000021BC1602763E08E0138E086012518F189
:10334000010032D102E000BFFEF76EFAE08E18B93C
:10335000E08F002800F0B8802068816889070CD5CC
:10336000E18E51B1012D08D1216B002531F8022BDE
:10337000C2602163E18E0139E1868168C907E3D02B
:10338000E18F0029E0D0C068A16B012521F8020B74
:10339000A163E08F0138E087D6E700BFFEF744FA6B
:1033A000A0EB0900404580F0A580E08E18B9E08FC1
:1033B000002800F089802068816889070CD5E18E9B
:1033C00051B1012D08D1216B002531F8022BC260CB
:1033D0002163E18E0139E1868168C907DED0E18F82
:1033E0000029DBD0C068A16B012521F8020BA16385
:1033F000E08F0138E087D1E739B139780173206B6C
:1034000001302063E08E0138E086012518F10100CB
:1034100032D101E0FEF708FAE08E10B9E08F002803
:1034200052D02068816889070ED5E18E61B1012DE7
:103430000AD1216B002509780173216B20680131C5
:103440002163E18E0139E1868168C907E2D0E18F0D
:103450000029DFD0C068A16B01250870A06B013086
:10346000A063E08F0138E087D4E700BFFEF7DCF906
:10347000A0EB090040453DD2E08E08B9E08F18B3BB
:103480002068816889070ED5E18E61B1012D0AD1CE
:10349000216B002509780173216B206801312163BC
:1034A000E18E0139E1868168C907DFD0E18F00290B
:1034B000DCD0C068A16B01250870A06B0130A0634F
:1034C000E08F0138E087D1E7204602210122434600
:1034D000CDF8009000F07CF9B0B1606D40F02000B4
:1034E000606520206065002084F85000012003B052
:1034F000BDE8F083012084F85100002084F85000DA
:10350000032003B0BDE8F08340F22400C2F20000C3
:10351000006849F68171C1F25E61A0FB0101480DAE
:103520004FF47A71484302906068B0F5827F0BD106
:103530002046802100224346CDF8009000F048F953
:103540000028CAD124E000BF029808B302980138CD
:1035500002902068806800061AD50298C0B10298CF
:103560000138029020688068000611D5029878B171
:1035700002980138029020688068000608D50298F9
:1035800030B1029801380290206880680006DBD4D0
:10359000A06838B9002001902068C1680191806856
:1035A00001900198012084F85100002084F8500017
:1035B000606D002818BF012003B0BDE8F083000053
:1035C000411E0020B0EB116F1CBF012070474EF26E
:1035D0001002CEF2000251604EF62351CEF20001ED
:1035E000F0230B700721906011607047FEE7000028
:1035F00080B582B00020019043F63000C4F2020092
:103600000168002241F4800101600068002100F49B
:103610008000019001983820FEF788F93820FEF7E5
:1036200073F93B2000210022FEF780F93B2002B015
:10363000BDE88040FEF768B92DE9F04387B0002768
:1036400043F630000697CDE90477CDE9027701977C
:10365000C4F20200016840F2000841F0020101607A
:103660000168C4F2020801F0020101910199019779
:103670000168012241F0010101600168102601F09A
:1036800001010191019901970168012441F0800134
:1036900001600068102100F0800001900198404610
:1036A000FEF7BCF808F58065284601210122FEF7E7
:1036B000B5F8CDE9026402AE4FF003094046314649
:1036C0000497CDF81490FDF7D9FF28463146CDE98F
:1036D0000244CDE90479FDF7D1FF07B0BDE8F083DE
:1036E00080B541F63C6043F20001C2F20000C4F232
:1036F00001014FF48272002380E80E0000F11401F2
:103700004FF4007C4FF0180E81E808500A21C0E900
:103710000333C0E90833C0E90A31FFF7B9FC0028D8
:1037200008BF80BDBDE88040FDF7EABD80B541F22D
:10373000BC5040F20801C2F20000C2F200010022B7
:1037400000F0E4FD002818BFFDF7DAFD41F2BC509F
:1037500040F22801C2F20000C2F2000101F048F874
:10376000002818BFFDF7CCFD41F2BC5040F2C40167
:10377000C2F20000C2F2000100F0CAFA002818BF2D
:10378000FDF7BEFD41F2BC50C2F2000001F05AF854
:10379000002808BF80BDBDE88040FDF7B1BD000036
:1037A000FEE70000FEE7000041F65810C2F20000FC
:1037B000FEF798BA7047000041F63C60C2F2000084
:1037C000FFF7CEBB806B0021C187C186FFF7C6BB68
:1037D0002DE9F04381B0089C984615460E46814677
:1037E000FEF722F8201A00EB0804FEF71DF840F25D
:1037F0002401C2F200010968C1F3CB316143009199
:10380000D9F800108A683240921BB2FA82F252094B
:10381000AA4203D1002001B0BDE8F083074618F1A9
:1038200001000ED130E000BF009801380090D9F8B7
:10383000000080683040801BB0FA80F04009A84248
:10384000E8D0FDF7F1FFC01BA04227D20098002866
:10385000EAD10024EBE700BF88683040801BB0FA53
:1038600080F04009A842D5D088683040801BB0FA6B
:1038700080F04009A842CDD088683040801BB0FA63
:1038800080F04009A842C5D088683040801BB0FA5B
:1038900080F04009A842DFD1BCE700BFD9E90001B0
:1038A0004268B1F5827F22F0E00242600BD1D9F884
:1038B0000810B1F5004F02D0B1F5806F03D1016857
:1038C00021F040010160D9F82810B1F5005F07D15F
:1038D000016821F400510160016841F40051016068
:1038E000012089F85100002089F85000032001B020
:1038F000BDE8F08370470000FDF79CBF70B592B043
:1039000006AC20463021FCF703FE002543F64000BC
:103910000595CDE90355CDE901550095C4F20200A6
:103920000168022641F080510160006800F080507B
:103930000090009847F200000095C4F20000016872
:1039400041F480410160006800F4804000900098DC
:10395000012006904FF4803007904FF480000D90C6
:1039600006200E904820CDE90F0603201190204636
:103970000C96FFF71DF918B172B600BFFEE700BF45
:103980000F20CDE901064FF48050CDE9040501A8D0
:1039900002210395FFF71EF810B172B6FEE700BFD3
:1039A00012B070BD4EF68850CEF20000016841F4AE
:1039B0007001016070470000D0F8D42200EB820C47
:1039C000DCF8C032002B04BF03207047B0B501F013
:1039D0000F0404EB840200EB820E5EF8142F5AB140
:1039E000D0F8C85204EBC40405EB8404E469B2FBCC
:1039F000F4F505FB14229AB10020C3F81402DCF898
:103A0000C422D2F810C0BCF1000F08BFB0BDD3F87B
:103A100008020A4603F50471E0470020B0BD00BF6C
:103A200000220023CEF8002000F0C4FE0020B0BD2C
:103A3000B0B5D0F8D42200EB8202D2F8C0529DB1CA
:103A4000044600F04DFDD4F8D412C5F80C0204EB86
:103A50008101D1F8C412D5F80402CA6805F50371D2
:103A600090470020B0BD00BF0320B0BD70B58121DC
:103A7000044600F073FC00252046012184F83750ED
:103A800000F06CFC2046822184F8775100F066FC3F
:103A9000D4F8D40204F5307656F8201084F84B5050
:103AA000656489B104EB8000D0F8C40240688047A7
:103AB000D4F8D40256F8200001F074F9D4F8D402F6
:103AC00046F82050C4F8BC52002070BD10B5D0F8A4
:103AD000D41200EB8100D0F8C0428CB1D0F8C412EF
:103AE00059B194F80002FF2807D08B6894F801229E
:103AF00021469847FF2084F80002002010BD00BF37
:103B0000032010BD014640F2A4000A22C2F20000C8
:103B10000A807047F0B581B040F26007C2F200073A
:103B200004463846822100F02FFB06463846012124
:103B300000F02AFB05463846812100F025FB002EC7
:103B40001CBF1021B171002D1CBF4021A98000288D
:103B50001CBF40218180432140F26000C2F200007E
:103B6000218001B0F0BD0000F0B581B040F26007E7
:103B7000C2F2000704463846822100F005FB0646E3
:103B80003846012100F000FB05463846812100F04F
:103B9000FBFA002E1CBF1021B171002D1CBF4FF489
:103BA0000071A98000281CBF4FF40071818043215F
:103BB00040F26000C2F20000218001B0F0BD0000C0
:103BC000F0B581B040F26007C2F200070446384603
:103BD000822100F0D9FA06463846012100F0D4FAD5
:103BE00005463846812100F0CFFA002E1CBF102177
:103BF000B171002D1CBF4021A98000281CBF4021AD
:103C00008180432140F26000C2F20000218001B0B7
:103C1000F0BD00002DE9F04104464FF4077001F0BB
:103C2000C3F8002850D04FF407710546FCF770FC2C
:103C3000D4F8D402402704EB8000C0F8C052207CA6
:103C4000C4F8BC52002808BF4FF4007720468121F9
:103C500002223B46022600F0C1FC4FF0010820463C
:103C6000012102223B4684F8378000F0B7FC102087
:103C70006064204682210322082384F8778100F0C3
:103C8000ADFCD4F8D4020027C5F8047204EB800020
:103C9000D0F8C40284F84B8000688047C5F81472DD
:103CA000C5F81872D5F8042252B1207C01210028F1
:103CB000204614BF40234FF4007300F0A3FC0026FD
:103CC0003046BDE8F08100BFD4F8D402002104EBF7
:103CD0008000C0F8C0120220BDE8F081D0F8D412F4
:103CE00000EB8101D1F8C012002904BF0320704706
:103CF00080B590F810C0D1F8042240230121BCF116
:103D0000000F08BF4FF4007300F07CFC002080BD62
:103D100000290FBF0320D0F8D42200EB8200C0F8A6
:103D2000C41218BF00207047D0F8D42200EB8200E4
:103D3000D0F8C00200280EBF0320C0F804120020F3
:103D400070470000D0F8D43200EB8300D0F8C002F6
:103D500000280FBF0320C0F80812C0F8102200206E
:103D600070470000F0B581B0D0F8D42200EB820398
:103D7000D3F8C0420022002C8DF80320ADF80020BB
:103D800060D00D7815F0600218D0202A58D1CA886A
:103D9000002A29D06DB2B5F1FF3F2FDD4978402AC6
:103DA00084F80012214628BF402284F8012200F046
:103DB00099F80024204601B0F0BD00BF4A780B2AD4
:103DC0003ED80024DFE802F008063C3C3C3C3C3C8A
:103DD0003C3C2A38EEE700BF90F89C22032A2FD102
:103DE0006946022221E000BFD3F8C40200228368A2
:103DF000487800249847204601B0F0BDD3F8C4327B
:103E000006469D684B780F4618462146A847FA8813
:103E10003046072A28BF0722214606E090F89C2258
:103E2000032A0DD10DF10301012200F077F80024DF
:103E3000204601B0F0BD00BF90F89C22032AB9D003
:103E400000F044F80324204601B0F0BDD0F8D412AD
:103E500000EB8101D1F8C022002A04BF0320704783
:103E6000D2F8141200294FF0010101D00846704722
:103E700080B5C2F81412D2F81032D2F8082281218B
:103E8000836200F097FC0021BDE88040084670473F
:103E900080B5D0F8B82252689047002818BF032098
:103EA00080BD0000002070470020704780B5134699
:103EB0000A46002100F0A6FB002080BD80B5134615
:103EC0000A46002100F076FC002080BD10B580215C
:103ED000044600F03DFC20460021BDE8104000F003
:103EE00037BC000080B513460A460321C0F894127F
:103EF0000021C0F86421C0E9553300F083FB0020A5
:103F000080BD000080B50521C0F894120021002278
:103F1000002300F077FB002080BD000080B5134631
:103F20000A460221C0F8941200214262C0E905331A
:103F300000F040FC002080BD80B50421C0F8941240
:103F400000210022002300F035FC002080BD00008D
:103F500010B540F29814C2F200040A4602A02146AD
:103F600000F054F9204610BD43444320436F6E6671
:103F70006967000040F2B0001222C2F200000A801D
:103F80007047000010B540F29814C2F200040A46CF
:103F900002A0214600F03AF9204610BD43444320D8
:103FA000496E7465726661636500000040F2D80076
:103FB0000422C2F200000A807047000010B540F2EF
:103FC0009814C2F200040A4602A0214600F01EF92D
:103FD000204610BD53544D6963726F656C65637400
:103FE000726F6E696373000010B540F29814C2F2EC
:103FF00000040A4602A0214600F008F9204610BD40
:1040000053544D3332205669727475616C20436F7E
:104010006D506F727400000047F61020C1F6FF70FB
:10402000026883684FF01A0C9B18A1F800C000F0DA
:10403000A680B0B54FF0370C1A0F0CEB1371406827
:10404000B3F1204F38BF02F1300140F2DC02C2F27E
:104050000002917019014FF0000E0CEB117582F8FF
:1040600003E0C3F30364B1F1204F38BF04F130051E
:10407000190215710CEB117582F805E0C3F30354B6
:10408000B1F1204F38BF04F13005190395710CEBE5
:10409000117582F807E0C3F30344B1F1204F38BF34
:1040A00004F13005190415720CEB117582F809E062
:1040B000C3F30334B1F1204F38BF04F130051905C3
:1040C00095720CEB117582F80BE0C3F30324B1F188
:1040D000204F38BF04F1300519061573C3F30314DC
:1040E0000CEB1175B1F1204F4FEA037103F00F0390
:1040F00082F80DE038BF04F1300503F13704957301
:1041000082F80FE0B1F1204F38BF03F13004010F06
:104110000CEB1073147482F811E0B0F1204F38BF2B
:1041200001F1300301010CEB1174937482F813E078
:10413000C0F30363B1F1204F38BF03F13004010233
:104140001475C0F303530CEB1174B1F1204F4FEA17
:10415000003182F815E038BF03F130040CEB117325
:10416000947582F817E0C0F30340B1F1204F38BFD7
:1041700000F13003137682F819E0BDE8B04040F258
:10418000DC00C2F200007047B0F802C003789C4522
:104190009CBF0020704780B508E000BF82788A424B
:1041A00008BF80BD73449AB262452DD290F800E0FA
:1041B00070444278052A02D182788A4225D073441D
:1041C0009AB2624520D290F800E070444278052A05
:1041D00002D182788A4218D073449AB2624513D2CF
:1041E00090F800E070444278052A02D182788A4231
:1041F0000BD073449AB2624506D290F800E0704446
:104200004278052ACAD0CDE7002080BD002808BF2B
:10421000704710B503783BB300F1020EF44600BFBF
:104220001CF8013C5BB19CF8003043B19CF80130B4
:104230002BB19CF802300CF1040C002BF0D14FF0A4
:10424000000C00BF1EF8013C93B19EF800309BB1FA
:104250009EF80130A3B19EF802300CF1040C002B43
:104260000EF1040EEED10DE04FF0000C0AE000BF9D
:104270004CF0010C06E000BF4CF0020C02E000BF65
:104280004CF0030C5FFA8CFC022303EB4C0313800D
:1042900003220B704A700378A3B3023002224FF05E
:1042A000000C00BF5FFA82FE51FA82F401F80E3072
:1042B00084F801C010F8013C23B3941C5FFA84FE1B
:1042C00051FA84F401F80E3084F801C00378CBB1C0
:1042D000141D5FFA84FE51FA84F401F80E3084F85C
:1042E00001C0437873B1941D5FFA84FE51FA84F4DF
:1042F00001F80E3084F801C083780832002B00F1F9
:104300000400CFD1BDE8104070470000002804BF72
:10431000032070470023C0F8B832C0F8C432002927
:10432000C0F8D03218BFC0F8B412012180F89C1236
:10433000027000F0D9B8000080B5D0F8C802FDF7CF
:10434000E5FB40F20032C100C0F2013222FA01F175
:10435000032888BF0321C8B280BD000080B5D0F813
:10436000C802FDF7ABFB40F20032C100C0F20132DF
:1043700022FA01F1032888BF0321C8B280BD0000E2
:10438000B0B589B190F89C22032A54D1D0F8B82254
:104390005269002A4FD00023C0F8D4329047002839
:1043A00008BF0020B0BD00BFD0F8941202293BD155
:1043B0008169038C99420FD9CA1A416A82611944F2
:1043C00041620446FFF77AFD2046002100220023C7
:1043D00000F018F927E000BF10D142698A420DD3DE
:1043E000D0F898128A4209D2002100220446002502
:1043F000FFF764FDC4F89852E6E700BF90F89C12FE
:10440000032909D1D0F8B812C96829B10022C0F82F
:10441000D4220446884720468021044600F098F9BB
:104420002046FFF76FFD204690F8A01200291CBF20
:10443000002180F8A0120020B0BD000010B579B1B5
:1044400090F89C22032A22D1D0F8B8229269F2B1C6
:104450000023C0F8D4329047002808BF002010BDC8
:10446000D0F89412032912D1D0F85811B0F8602175
:1044700091420FD98B1AD0F86411C0F85831114409
:10448000C0F86411934288BF1A46FFF70FFD002061
:1044900010BD00BF90F89C12032909D1D0F8B812C2
:1044A000096929B10022C0F8D42204468847204671
:1044B000FFF742FD002010BD00207047012180F869
:1044C0009C12D0F8B812002904BF0020704780B5B4
:1044D0004A6801799047002818BF032080BD00007A
:1044E000D0F8C802FDF742BB017809B1002070473F
:1044F00010B541F65811C2F20001C1F8E004C0F84D
:10450000C8124FF0A0400860042008714FF40070FA
:10451000C8800220C1F809000020C8810846FEF7C3
:1045200069F8002818BFFCF7EBFE41F65814C2F2F8
:10453000000420468021FDF737FA20460021402262
:10454000FDF736FA204601218022FDF731FABDE859
:104550001040002070470000D0F8C80201F07F032F
:104560004AB203EBC30301EBC10100EB830300EB91
:10457000810000F25620002A48BF03F1160000789F
:1045800070470000D0F8D42200EB8202D2F8B822A3
:10459000002A04BF0320704790F89C32032B05D1FA
:1045A000126A1AB180B59047002080BD0020704784
:1045B000D0F8D42200EB8202D2F8B822002A04BF3D
:1045C0000320704790F89C32032B05D1526A1AB130
:1045D00080B59047002080BD0020704780B594468C
:1045E000D0F8C8021A466346FDF7CAFA40F2003214
:1045F000C100C0F2013222FA01F1032888BF032171
:10460000C8B280BD80B5D0F8C802FDF7F3FA40F219
:104610000032C100C0F2013222FA01F1032888BF42
:104620000321C8B280BD0000F0B581B0012600258D
:1046300080F89C62C0F8945204464560D0F8B802F5
:10464000C4F8A45284F8A05240B1426832B1204666
:10465000002190470546002818BF03252046002169
:10466000002240234027FFF7B9FF20468021002287
:10467000402384F86361A4F86071FFF7AFFF84F80A
:1046800023602846278401B0F0BD000090F89C12FA
:10469000042904BF90F89D1280F89C1200207047F6
:1046A00090F89C12032908D1D0F8B81229B1C96931
:1046B00019B180B58847BDE88040002070470000F0
:1046C000024600201174704780B5D0F8C802FEF78A
:1046D0002BF940F20032C100C0F2013222FA01F19E
:1046E000032888BF0321C8B280BD0000B0B500F226
:1046F000AA240546204600F06FF80121C5F894125F
:1047000095F8AA12B5F8B03201F01F02022AC5F8D6
:1047100098320FD0012A07D092B928462146BDE829
:10472000B04000F091B800BF28462146BDE8B04037
:1047300000F0FCBA28462146BDE8B04000F046BA79
:1047400001F080012846BDE8B04000F001B800004B
:1047500080B5D0F8C802FDF76FFA40F20032C10010
:10476000C0F2013222FA01F1032888BF0321C8B246
:1047700080BD000080B5D0F8C802FEF7F1F840F225
:104780000032C100C0F2013222FA01F1032888BFD1
:104790000321C8B280BD0000014690F89C020422AB
:1047A00004281CBF91F89C0281F89D02002081F82A
:1047B0009C22704780B5D0F8C802FDF775FA40F228
:1047C0000032C100C0F2013222FA01F1032888BF91
:1047D0000321C8B280BD00000A7802704A78427096
:1047E0004A8842808A888280C988C18070470000D8
:1047F00010B582B004460020ADF80600B1B1D4F87F
:10480000D42204F52E70C4F8B81250F82200C16A00
:1048100021B10DF106008847C4F8D002D4F8D802BF
:104820000130C4F8D802002002B010BD032002B04D
:1048300010BD0000D0F8B822002A04BF0020704745
:1048400012681047FFF796BF70B582B00A7812F071
:1048500060020FD0402A02D0202A40F0D780D0F842
:10486000D42200EB8202D2F8B822926802B0BDE8EE
:10487000704010474A78092A00F2C880DFE802F049
:104880000630C658C66284C61C4200BF90F89C22FF
:10489000013A022A00F2BA80C988022940F0B680A3
:1048A000D0F8A4120322002908BF0122014641F8D2
:1048B0000C2F02226CE100BFC988012940F0A680BC
:1048C00090F89C124A1E022A80F09A800024014629
:1048D00041F8084F0122FFF721FB204602B070BDCE
:1048E00090F89C22013A022A00F290804988002424
:1048F000012940F09480C0F8A442FFF71DFB204638
:1049000002B070BD498840F29415C2F2000511F062
:10491000FE0F297052D080210446FFF719FF204670
:104920000021FFF715FF0324204602B070BD00BF31
:104930004A88022A60D0012A68D10121C0F8A41255
:104940002FE100BF8A88002A60D1CA88002A5DD181
:104950004D887F2D5AD890F89C12032956D0E9B281
:1049600080F89E520446FFF7AFFE20462646FFF72A
:10497000E3FA002D14BF0220012086F89C020024D7
:10498000204602B070BD00BF4A884FF0FF3303EBF2
:1049900012230026062BADF8066000F2FF80DFE848
:1049A00013F007004F004100FD00FD005F006D00A7
:1049B0000D46D0F8B4120A68D9E000BF90F89C22E6
:1049C000032A6BD0022A40F091800A0600F0E980A9
:1049D00001F00102C9B242600546FFF72BFF002833
:1049E00000F0A680044628468021FFF7B1FE284645
:1049F0000021FFF7ADFE73E0497980F8A012D0E006
:104A0000032903D1011D0122C2E000BF8021044619
:104A1000FFF79EFE204600210024FFF799FE204666
:104A200002B070BDD2B2052A00F2B880DFE802F011
:104A300004968E928A9A00BFD0F8B422526894E00D
:104A40000D46017C0446D0F8B80200290CBF816AEB
:104A5000C16A0DF106008847014602201CE000BF34
:104A6000027C002A40F09A800446D0F8B8020D4635
:104A7000416B0DF1060088477EE000BF027C002AF2
:104A800040F08C800446D0F8B8020D46016B0DF161
:104A9000060088470146072048706EE00A0635D0B8
:104AA000426801F001018A4200F07B80D1B20446E5
:104AB000FFF7EEF92978204661602546FFF7BAFE38
:104AC000002800F08180044628468021FFF740FE40
:104AD00028460021FFF73CFE29792846FFF7D8F940
:104AE000022085F89C02204602B070BD8021044659
:104AF000FFF72EFE20460021FFF72AFE29782046E8
:104B0000FFF7C6F90324204602B070BD022201F06F
:104B1000010180F89C224160002105460024FFF736
:104B2000B7F92846FFF708FA204602B070BD00BF6B
:104B30002846FFF701FA032085F89C02002420464E
:104B400002B070BDD0F8B42252690EE0D0F8B422A1
:104B5000D2680AE0D0F8B422126906E0D0F8B42294
:104B6000926802E0D0F8B4229269BAB10D460446C8
:104B7000007C0DF1060190470146EA8882B1BDF83C
:104B80000630ABB1934238BF1A46ADF80620204636
:104B9000FFF7C4F90024204602B070BD044608E0C7
:104BA0002046FFF7C9F90024204602B070BD00BFBF
:104BB00020468021FFF7CCFD20460021FFF7C8FDED
:104BC0000024204602B070BD2846EAE770B50A7896
:104BD0000D46097912F0600204460BD0402A01D03C
:104BE000202A3CD12046FFF75DF9002855D000204F
:104BF00070BD00BF687848B3012815D003282ED1B6
:104C000094F89C02032813D1688838B911F07F000A
:104C100004D0E88810B92046FFF79AFD2046FFF738
:104C20008BF9002070BD00BF94F89C02032821D0AE
:104C3000022814D1480612D02046FFF789FD2046ED
:104C40008021FFF785FD002070BD00BF94F89C0215
:104C500003282FD0022808BF5FEA416056D02046C3
:104C60008021FFF775FD20460021FFF771FD002030
:104C700070BD00BF68880028B9D10E46480603D031
:104C800020463146FFF758FB2046FFF755F92046EE
:104C90003146FFF707F90028A9D1D4F8B802826895
:104CA0000020002AC4F8D402A1D020462946BDE83D
:104CB0007040104701F00F0000EB8000802904EBEA
:104CC00080002CBF90F8230090F863010028C6D024
:104CD00001F07F0000EB800004EB800000F1140580
:104CE00001EB810004EB8000802938BF00F5AA7534
:104CF000480605D02046FFF72FFC08B1012000E050
:104D0000002005F10E01A8730AE000BF08064FF06D
:104D1000140058BF4FF4AA702118002001F80E0F9C
:104D200020460222FFF7FAF8002070BDB0B50A78DD
:104D300012F0600218BF402A10D190F89C22013A6C
:104D4000022A0DD88A8812F0FE0F09D10C46D1B282
:104D50000546FFF7A9F878B10320B0BD202AECD0B2
:104D600080210446FFF7F4FC204600210024FFF7D1
:104D7000EFFC2046B0BD00BFD5F8B8128A68002A03
:104D8000EAD000212846C5F8D41221469047E18890
:104D90000446002908BF002CEBD12846FFF7CCF8C9
:104DA0000020B0BD7047000040F29830C2F2000011
:104DB0007047000010B50A784B78D0F81CE802F074
:104DC0000F04012B4FEA421C18D10123A34043EAF0
:104DD0000E03C0F81C386044D0F800391B0428D4F6
:104DE0008B6800F51060097904686FF3DF2343EAEC
:104DF000814144EA8252114316E000BF4FF48032F1
:104E0000A24042EA0E02C0F81C286044D0F8002BF1
:104E100012040ED48A6800F5306009796FF3DF223E
:104E2000036842EA8141194341F0805141F4004155
:104E30000160002010BD00000146D0F8000940F2DA
:104E4000FF729043C1F80009D1F8040840F4807261
:104E50000020C1F80428704782B002F47F42B2F506
:104E6000807F40F09980826B4FF6BF7322F48032CE
:104E70008263C268CFF6BD731A40C260029BC268EB
:104E8000DBB222F44012012BC26003D1C26842F4AB
:104E90008012C26000220092009A01320092009AB1
:104EA000B2F1706F00F2F0800269002A21D4009AFA
:104EB00001320092009AB2F1706F00F2E58002694F
:104EC000002A16D4009A01320092009AB2F1706F53
:104ED00000F2DA800269002A0BD4009A01320092B3
:104EE000009AB2F1706F00F2CF800269B2F1FF3F19
:104EF000D2DC0A220092009AAAB100BF009A013ABD
:104F00000092009A7AB1009A013A0092009A52B146
:104F1000009A013A0092009A2AB1009A013A00924E
:104F2000009A002AEAD1026942F001020261009A65
:104F300001320092009AB2F1706F00F2A58002690E
:104F4000D20720D0009A01320092009AB2F1706F1D
:104F500000F29A800269D20715D0009A01320092BD
:104F6000009AB2F1706F00F28F800269D2070AD006
:104F7000009A01320092009AB2F1706F00F28480C0
:104F80000269D207D3D14FF0000C01F47F01B1F5D3
:104F9000803F40F099808FE0C26842F04002C260DA
:104FA00000220192019A01320192019AB2F1706FCE
:104FB00072D80269002A1ED4019A01320192019A24
:104FC000B2F1706F68D80269002A14D4019A0132D4
:104FD0000192019AB2F1706F5ED80269002A0AD478
:104FE000019A01320192019AB2F1706F54D80269AC
:104FF000B2F1FF3FD6DC0A220192019AAAB100BFAA
:10500000019A013A0192019A7AB1019A013A019208
:10501000019A52B1019A013A0192019A2AB1019A78
:10502000013A0192019A002AEAD1026942F0010292
:105030000261019A01320192019AB2F1706F2BD88C
:105040000269D2071DD0019A01320192019AB2F190
:10505000706F21D80269D20713D0019A01320192F0
:10506000019AB2F1706F17D80269D20709D0019A7C
:1050700001320192019AB2F1706F0DD80269D20724
:10508000D7D14FF0000C09E04FF0030C01F47F0181
:10509000B1F5803F18D10FE04FF0030C826B13F491
:1050A0007F4F14BF22F4803242F48032826301F4D5
:1050B0007F01B1F5803F07D1816841F00601816031
:1050C000816841F020018160604602B070470000B5
:1050D00010B54A7891F800E047F6000CCEF6334C54
:1050E000012A4FEA4E1227D10244D2F8001902F5E4
:1050F0001063B1F1FF3F4FF0010407DC196841F084
:1051000000611960196841F0804119600EF00F01CB
:10511000D0F83C2804FA01F18A43C0F83C28D0F8C2
:105120001C2822EA0101C0F81C18186800EA0C01CA
:105130000020196010BD00BF811801F53063D1F85F
:10514000001B0CF1707CB1F1FF3F4FF48034DDDCCB
:10515000D4E700000146D0F8000E20F00300C1F8AB
:10516000000ED1F8040820F002020020C1F8042843
:10517000704700000146D0F8000E20F00300C1F88F
:10518000000ED1F8040840F002020020C1F8042803
:10519000704700002DE9F04F86B0C3F3074516466F
:1051A0008E460021C0F80411C0F80811C0F80C1197
:1051B000C0F81011C0F81411C0F81811C0F81C1173
:1051C000C0F82011C0F82411C0F82811C0F82C1123
:1051D000C0F83011C0F83411C0F83811C0F83C11D3
:1051E00045B1816B21F400118163816B41F4002191
:1051F00011E000BFD0F8041841F00201C0F8041813
:10520000816B41F400118163816B21F40021816382
:10521000816B21F4802106F47F4281630021B2F585
:10522000807FC0F8001E07D1D0F80028B1EB1E6FB8
:1052300008D1C0F8002809E0D0F8001841F00301B7
:1052400002E000BF42F00101C0F800180021049103
:105250000499013104910499B1F1706F52D8016938
:1052600000291ED40499013104910499B1F1706FA1
:1052700048D80169002914D4049901310491049992
:10528000B1F1706F3ED8016900290AD40499013147
:1052900004910499B1F1706F34D80169B1F1FF3F05
:1052A000D6DC002104914FF484610161049901313D
:1052B00004910499B1F1706F24D8016989061DD554
:1052C0000499013104910499B1F1706F1AD8016900
:1052D000890613D50499013104910499B1F1706FD5
:1052E00010D80169890609D50499013104910499FE
:1052F000B1F1706F06D801698906D7D44FF0000A62
:1053000002E000BF4FF0010A00210591059901312B
:1053100005910599B1F1706F4ED8016900291ED42D
:105320000599013105910599B1F1706F44D8016972
:10533000002914D40599013105910599B1F1706FD7
:105340003AD8016900290AD40599013105910599D6
:10535000B1F1706F30D80169B1F1FF3FD6DC0021A7
:105360000591102101610599013105910599B1F16E
:10537000706F21D80169C90620D5059901310591C1
:105380000599B1F1706F17D80169C90616D505994D
:10539000013105910599B1F1706F0DD80169C90608
:1053A0000CD50599013105910599B1F1706F03D8BC
:1053B0000169C906D7D401E04FF0010A5FFA8EF9FE
:1053C0004FF00008B9F1000FC0F81088C0F8148839
:1053D000C0F81C8800F00D81CDF80CA0CDE9015E6D
:1053E000D0F800194FF0006404EA11114FF67F3530
:1053F000B9F1010BC0F80019C0F81089C0F80859BC
:1054000074D0A9F1020103290BF0030A04D201218F
:10541000BAF1000F40D169E000962BF0030700F5C8
:10542000186600234FF0904C4FF67F324FF0000E7D
:1054300056F8601C0EF1040E0CEAE17146F8601C8F
:1054400046F8503C46F8582C56F8401C77450CEA74
:10545000E17146F8401C46F8303C46F8382C56F8C6
:10546000201C0CEAE17146F8201C46F8103C46F876
:10547000182C31680CEAE17131603361B26006F1D9
:105480008006D5D1009E0EF101014FF67F354FF019
:105490000064BAF1000F29D000F510634F01B44643
:1054A000DE594FF0904202EAE67603EB4111DE51FD
:1054B000664600274FF67F33BAF1010F0F618B600C
:1054C00014D00E6ABAF1020F02EAE67266460A6268
:1054D0000F638B620AD00A6C4FF0904303EAE272CA
:1054E0000A6400220A654FF67F328A64D0F8001BF6
:1054F000BBF1000F04EA1111C0F8001B4FF00001CE
:10550000C0F8101BC0F8085BDDE9015EDDF80CA0F7
:105510006FD0A9F1020103290BF0030C04D2012181
:10552000BCF1000F3BD164E0A94600962BF00305C7
:1055300000F5386600234FF090474FF67F32002188
:1055400056F8604C043107EAE47446F8604C46F8BB
:10555000503C46F8582C56F8404C8D4207EAE4740B
:1055600046F8404C46F8303C46F8382C56F8204C6B
:1055700007EAE47446F8204C46F8103C46F8182C2C
:10558000346807EAE47434603361B26006F180067F
:10559000D6D1009E01314D46BCF1000F29D000F557
:1055A00030634F013446DE594FF0904202EAE6760E
:1055B00003EB4111DE51264600274FF67F33BCF145
:1055C000010F0F618B6014D00E6ABCF1020F02EA6A
:1055D000E67226460A620F638B620AD00A6C4FF0AD
:1055E000904303EAE2720A6400220A654FF67F32B2
:1055F0008A64D0F810181EF47F0F21F48071C0F86F
:1056000010186FF08041C0F81880416103D18169A2
:1056100041F010018161816943F60002C8F23C0249
:10562000114316F47F0F816103D0816941F00801B5
:105630008161012D05D1816941F0804141F0040172
:105640008161504606B0BDE8F08F000001468068D9
:1056500020F0010200208A6070470000D0F840C0AE
:1056600043F20B03C4F654739C4503D3D0F8003BBC
:10567000002B1ED40023C0F8103BD0F8103B0129AA
:1056800043F40023C0F8103BD0F8103B43F018035C
:10569000C0F8103BD0F8103B43F0C043C0F8103BBB
:1056A00007D1C0F8142BD0F8001B41F08021C0F8BE
:1056B000001B0020704700004A780B78012A4FEA4F
:1056C000431210440ED1D0F8002922F40012C0F881
:1056D0000029097901F0FE01022914D100F51060BA
:1056E0000DE000BFD0F8002B22F40012C0F8002B10
:1056F000097901F0FE01022905D100F53060016849
:1057000041F0805101600020704700000A784B781A
:105710005101012B084407D1D0F80019002900F5E8
:10572000106107D50BE000BFD0F8001B002900F581
:10573000306104D41AB1086820F08040086008681D
:1057400040F4001200200A6070470000F0B54B786A
:10575000002591F800C04FF6FF76CFF6F875012BC3
:10576000CEF207062CD10C6900EB4C1EDEF8107946
:10577000002C0EF510634FD03D401D611D69BCF13A
:10578000000F05EA06051D618E6800F09B80A519D3
:10579000013DB5FBF6F50026C1F6F8761F6906EA6D
:1057A000C5463E431E610E79012E40F098801E6969
:1057B00026F0C0461E614FF0C04606EA45758BE0F4
:1057C00000EB4C13D3F8107B4FF6FF742F40C3F857
:1057D000107BD3F8107BC0F207043740C3F8107B6E
:1057E0008D680E69BCF1000F03F530633CD0002ECC
:1057F0003ED07719013FB7FBF5F740F2000CBEB27F
:105800006E430E62C1F6F87C1D690CEAC7472F4350
:1058100026401F6133E000BF07EA06041C611C69D3
:1058200044F400241C611C6925400024012A1D61E8
:105830005DD000F510634FEA4C169F5947F00447BE
:105840009F510F79012F33D1D0F80878F558FF0513
:105850004FF0805758BF4FF000572F43002AF750A2
:1058600060D00020F0BD00BF002E18BF0D610D629A
:105870001F6905EA040637431F614FF400261F69BC
:10588000012A47EA06071F6103D1CA68002A18BF28
:105890005A61097901293DD1D0F808081968C00575
:1058A0004FF0805058BF4FF00050084331E000BF28
:1058B000002CD6D00CF00F01012202FA01F100F603
:1058C000340329E0B44205D90E614FF40025344673
:1058D00002E000BF4FF400251E6935431D612546D7
:1058E0001E696FF3DF453543012A1D61A1D1CA69E5
:1058F000002A18BFCEF81429097901290AD1D0F855
:105900000818DEF80009C9054CBF40F0805040F08F
:10591000005018604FF004411868084318600020D8
:10592000F0BD00BFA2B2002A9BD0D61C4FF0FF33BF
:10593000C96803EB960300F580504FEA0C32032B45
:10594000C6F381030ED3B70827F003060F68043EA1
:1059500017504F6817508F681750CF6801F110012A
:105960001750F3D1002B3FF47CAF0F68012B875009
:105970003FF477AF4F68022B87503FF472AF8968CE
:1059800081500020F0BD000081B0002200924A78D2
:105990000978012A4FEA41113AD100F510625058B6
:1059A000B0F1FF3F3ADC885842F2107340F00060DB
:1059B0008850885840F0804088500098013000900E
:1059C0000098984264D85058B0F1FF3F26DC009808
:1059D00001300090009898425AD85058B0F1FF3FDB
:1059E0001CDC0098013000900098984250D8505824
:1059F000B0F1FF3F12DC009801300090009898420F
:105A000046D85058B0F1FF3F4FF00000D5DD3CE0E4
:105A100000F530625058B0F1FF3F03DD002001B0C7
:105A2000704700BF885842F2107340F00060885001
:105A3000885840F0804088500098013000900098CD
:105A4000984225D85058B0F1FF3FE7DC009801306C
:105A50000090009898421BD85058B0F1FF3FDDDC11
:105A60000098013000900098984211D85058B0F139
:105A7000FF3FD3DC0098013000900098984207D88F
:105A8000505800284FF00000D6D401B0704700BF36
:105A9000012001B0704700000146806840F001021B
:105AA00000208A607047000081B000220092009AB6
:105AB00001320092009AB2F1706F51D80269002A47
:105AC0001ED4009A01320092009AB2F1706F47D84A
:105AD0000269002A14D4009A01320092009AB2F1AD
