:020000040800F2
:1000000090070020550200083D1D0008F91B00085C
:10001000391D000829090008491F000800000000D8
:10002000000000000000000000000000811E000829
:100030004509000800000000411D0008851E000859
:100040006F0200086F0200086F0200086F020008CC
:100050006F0200086F0200086F0200086F020008BC
:100060006F0200086F0200086F0200086F020008AC
:100070006F0200086F0200086F0200086F0200089C
:100080006F0200086F0200086F0200086F0200088C
:100090006F0200086F0200086F0200086F0200087C
:1000A0006F0200086F0200086F0200086F0200086C
:1000B0006F0200086F0200086F0200086F0200085C
:1000C0006F0200086F0200086F020008451D00085B
:1000D0006F0200086F0200086F0200086F0200083C
:1000E0006F0200086F0200086F0200086F0200082C
:1000F0006F0200086F0200086F0200086F0200081C
:100100006F0200086F0200086F0200086F0200080B
:100110006F0200086F0200086F0200086F020008FB
:100120002D0900086F0200086F0200083909000855
:100130006F0200086F0200086F0200086F020008DB
:100140006F0200086F0200086F0200086F020008CB
:100150006F0200086F0200086F0200086F020008BB
:100160006F0200086F0200086F0200086F020008AB
:100170006F0200086F0200086F0200080000000014
:100180006F0200086F02000800F002F800F052F859
:1001900014A696E8000CB244B344DA4501D100F04D
:1001A00049F8BAE80F000FA696E83000A5EB040561
:1001B00004EB0607AAEB0704A7F101074FEA1515A0
:1001C0004FEA3414A4F10104AC4201D300F032F838
:1001D00013F0010F18BFFB1A43F0010300F001F800
:1001E000DBE71847EC1D00000C1E0000103A24BF8E
:1001F00078C878C1FAD8520724BF30C830C144BF8C
:1002000004680C6070470000704700000023002461
:1002100000250026103A28BF78C1FBD8520728BF16
:1002200030C148BF0B6070471FB501F0B7FE1FBD5E
:1002300010B510BD00F0D0F81146FFF7F5FF01F042
:1002400085FE00F0EEF803B4FFF7F2FF03BC00F008
:10025000F5F800000948804709480047FEE7FEE737
:10026000FEE7FEE7FEE7FEE7FEE7FEE7FEE7FEE766
:1002700004480549054A064B70470000351F000831
:1002800089010008900100209007002090030020C1
:100290009003002053EA020C00F069802DE9F04B36
:1002A0004FF00006002B1FBFB3FA83F503FA05F4E5
:1002B00024FA05F65E4012BF1643B2FA82F502FA3E
:1002C00005F4C5F120051EBF22FA05FC44EA0C0422
:1002D000203556EA044C4FEA144418BF641C4FF012
:1002E00000084FF00009904271EB030C39D300294C
:1002F00019BFB1FA81F701FA07F6B0FA80F700FAF0
:1003000007F6C7F120071EBF20FA07FC46EA0C06D5
:100310002037B6FBF4FCA7EB0507103F07F01F0BD7
:10032000CBF120062CFA06F60CFA0BFB44BFB346C1
:100330000026202FA4BF5E464FF0000B5BEA060CA0
:1003400008BF4FF0010B19EB0B0948EB0608ABFB9C
:10035000027C06FB02CC0BFB03CCC01B71EB0C0137
:10036000C1E70B46024641464846BDE8F08B13B54F
:10037000084318BF4FF0FF300146AFF30080BDE8DF
:100380001C4070474FF0000200B513469446964655
:10039000203922BFA0E80C50A0E80C50B1F1200198
:1003A000BFF4F7AF090728BFA0E80C5048BF0CC046
:1003B0005DF804EB890028BF40F8042B08BF7047A4
:1003C00048BF20F8022B11F0804F18BF00F8012B16
:1003D0007047704770477047754600F02BF8AE467F
:1003E00005006946534620F00700854618B020B541
:1003F000FFF73EFFBDE820404FF000064FF000073A
:100400004FF000084FF0000BAC46ACE8C009ACE878
:10041000C009ACE8C009ACE8C00921F007018D466D
:10042000704710B50446AFF300802046BDE8104089
:10043000FFF709BF0048704710000020014918204D
:10044000ABBEFEE7260002007047000010B584B086
:1004500080200024ADF80D000020C4F202048DF8C5
:100460000F008DF80C00ADF80A0020461021002284
:1004700000F0F8FC40F234104FF0FF3CC2F20000F4
:100480000DF10D010DF10A020323CDF800C001F0BA
:10049000F9F920461021012200F0E4FC9DF80C003F
:1004A00004B010BD10B582B0802040F20044ADF819
:1004B00006000020C4F20204ADF804002046012129
:1004C000002200F0CFFC40F234104FF0FF3CC2F2AB
:1004D00000000DF1060101AA0223CDF800C001F0D1
:1004E000D1F920460121012200F0BCFC9DF8050055
:1004F00002B010BD2DE9F04383B00025C4F202051F
:100500004FF080080027284610210022ADF809800E
:100510008DF80B708DF80870ADF8067000F0A2FC35
:1005200040F23414C2F200044FF0FF360DF109011D
:100530000DF1060220460323009601F0A3F9284698
:100540001021012200F08EFC022000F0A7FB4BF2EC
:100550007E60ADF80900284610210022ADF8067033
:1005600000F080FC0DF109010DF106022046022386
:10057000009601F087F928461021012200F072FC54
:10058000322000F08BFB284610210022ADF80980B4
:100590008DF80B708DF80870ADF8067000F062FCF5
:1005A0000DF109010DF1060220460323009601F02A
:1005B00069F928461021012200F054FC022000F0C5
:1005C0006DFB40F27D40ADF8090028461021002265
:1005D000ADF8067000F046FC0DF109010DF10602C0
:1005E00020460223009601F04DF9284610210122F1
:1005F00000F038FC322000F051FB7C20ADF80900FF
:10060000284610210022ADF8067000F02BFC0DF1F9
:1006100009010DF1060220460223009601F032F98D
:1006200028461021012200F01DFC0A2000F036FBB4
:1006300040F27009C2F2000999F8000041218DF8DA
:1006400009108DF80A00284610210022ADF8067026
:1006500000F008FC0DF109010DF10602204602230D
:10066000009601F00FF928461021012200F0FAFB54
:100670000A2000F013FB4BF2146005F58065ADF81D
:100680000900284601210022ADF8067000F0EAFBBF
:100690000DF109010DF1060220460223009601F03A
:1006A000F1F828460121012200F0DCFB322000F0A5
:1006B000F5FA284601210022ADF80980ADF8067050
:1006C00000F0D0FB0DF109010DF1060220460223D6
:1006D000009601F0D7F828460121012200F0C2FB64
:1006E000012000F0DBFA1120ADF8090028460121B5
:1006F0000022ADF8067000F0B5FB0DF109010DF117
:10070000060220460223009601F0BCF8284601218B
:10071000012200F0A7FB322000F0C0FA99F8010096
:100720000F218DF809108DF80A00284601210022BA
:10073000ADF8067000F096FB0DF109010DF106020F
:1007400020460223009601F09DF82846012101224F
:1007500000F088FB0A2000F0A1FA03B0BDE8F083A6
:10076000F0B587B00025044600209221C4F20205AE
:1007700005900491CDE902002846102100226F4621
:1007800000F070FB40F234104FF0FF36C2F2000070
:1007900004A902AA0823009601F074F82846102143
:1007A000012200F05FFB9DF80A209DF80B309DF8B8
:1007B0000C509DF80D609DF80EC09DF80F10BD46C1
:1007C00040F27007C2F200073F78013FFFB2022FEC
:1007D00006D817A000EB870090ED000A02E000BFEA
:1007E0009FED120A45EA062000B201EE100A42EA25
:1007F000032000B202EE100A4CEA012000B203EE20
:10080000100AB8EEC11AB8EEC22AB8EEC33A20EE0A
:10081000022A20EE011A20EE030A84ED002A84ED5C
:10082000011A84ED020A07B0F0BD00BFAE676B3A53
:10083000AE67EB3AAE676B3BAE67EB3BF0B585B0AE
:100840000446002040F20045CDF80E00ADF812003D
:100850000190CDF807008220C4F202058DF80D004A
:100860002846012100226F4600F0FCFA40F23410C5
:100870004FF0FF36C2F200000DF10D0101AA07236F
:10088000009600F0FFFF28460121012200F0EAFA5D
:100890009DF805209DF806309DF807509DF80860EA
:1008A0009DF809C09DF80A10BD4640F27007C2F2DB
:1008B00000077F78013FFFB2032F05D816A000EB99
:1008C000870090ED000A01E09FED120A45EA06203C
:1008D00000B201EE100A42EA032000B202EE100A52
:1008E0004CEA012000B203EE100AB8EEC11AB8EECD
:1008F000C22AB8EEC33A20EE022A20EE011A20EEF8
:10090000030A84ED032A84ED041A84ED050A05B078
:10091000F0BD00BF00007A3D0000FA3C00007A3CC8
:100920000000FA3B00007A3BFEE7000040F2740052
:10093000C2F2000000F01EB840F2D400C2F2000083
:1009400000F018B87047000072B600BFFEE7000064
:1009500090F83510022909D1052180F8351000687A
:10096000016821F00101016000207047802141658C
:1009700001207047F0B581B00021009140F20801DC
:10098000C2F200010B68D0E9166148F2B51537686C
:100990000822C1F64E358A403A42A3FB05350CD0F9
:1009A00003681C68640708D51C6824F004041C60F4
:1009B000B260426D42F00102426501228A403A4231
:1009C00008D003685B691B0604D5B260426D42F033
:1009D0000202426504228A403A4208D003681B683A
:1009E0009B0704D5B260426D42F0040242651022BA
:1009F0008A403A4219D001680B681B0715D5B260CE
:100A00000B680A685B0309D4D20509D40A6822F08E
:100A100008020A60016C29B907E000BF110341D444
:100A2000016C11B1044688472046C26D202101FAAD
:100A300002F33B4243D001680F68FF063FD5B36025
:100A400090F835700B68052F1CD123F016030B604E
:100A50004B6923F080034B61036C0BB9836C1BB1B2
:100A60000B6823F008030B603F219140B160012126
:100A700080F83510016D0022002980F8342054D10F
:100A800058E000BF0A685B0310D4D20512D40A688C
:100A900022F010020A60012180F83510002180F850
:100AA000341007E0816C0029BCD1BEE7110301D4EA
:100AB000416C00E0C16B11B1044688472046416D8E
:100AC000C1B3416DC9072ED0052180F835100168EA
:100AD000AA0A0B6823F001030B60009B01339342C9
:100AE00000931AD80B68DB0717D0009B01339342A1
:100AF000009312D80B68DB070FD0009B01339342A1
:100B000000930AD80B68DB0707D0009B01339342A0
:100B1000009302D80B68DB07DFD1012180F8351084
:100B2000002180F83410C16C21B101B0BDE8F04063
:100B3000084700BF01B0F0BD2DE9F041044600F0C8
:100B400097F9ECB10546022084F8350000202168B1
:100B500084F83400086820F0010008602168086803
:100B6000C00711D000F084F9401B0528F6D90325F1
:100B700020230320636584F83550BDE8F08100BF71
:100B80000120BDE8F08100BF086848F23F02CFF2C3
:100B90001002D4E9013500EA020C04F10C0898E8CF
:100BA000C10143EA0C032B431843D4E9072E304319
:100BB00038431043626A40EA0E00042A40EA080300
:100BC0001CD1206BD4E90A2E40EA0E0018430860BD
:100BD0004869BEF1000F20F0030040EA020040F037
:100BE000040C11D0B8F5005F36D0B8F1000F45D134
:100BF000022A46D0012A3BD032B942E00B60486954
:100C000020F0070040EA020C01F0F8004AF6AB229F
:100C10001038CAF6AA22A0FB02231A0941F6C673AD
:100C2000C1F814C0C0F600039A5C40F2FF335F289D
:100C30004FF03F0021EA030100FA02F088BF0431BF
:100C4000C4E916128860002301250020636584F83A
:100C50003550BDE8F08100BF032AD5D801254023D7
:100C60000120DFE802F0030E030500BF82E700BFAA
:100C7000AEF1C070B0FA80F0400904E0032A04D35A
:100C8000C2D1CEF300600028BED001254023012050
:100C9000636584F83550BDE8F0810000B0B50446C6
:100CA00000F0E6F8054640F20000C2F200000078CD
:100CB000611C18BF044400BF00F0DAF8401BA042DA
:100CC000FAD3B0BD2DE9F04F83B000F1200200F15E
:100CD0003E4741F60045009207F1FF77C4F2020556
:100CE00008224FEAB726A84208BF072200254FF086
:100CF00000084FF00009072E38BF4FEAB7220192D3
:100D00000AE000BF09F1010908F10208B9F1100F6A
:100D100005F1040500F0A2800F68012202FA09FE25
:100D200017EA0E0AEED0D1F804C003220CF0030734
:100D30007E1E02FA08F4012E6FEA040B12D88468B2
:100D4000CE6804EA0B0406FA08F63443846044686B
:100D500024EA0E06CCF3001404FA09F42643466094
:100D600004E000BF032F01D103271EE0C6688C6892
:100D700006EA0B0604FA08F42643022FC66014D1D3
:100D80006FF00302009E02EA590756F807C005F00B
:100D90001C040F220B69A2402CEA0202A3401A4352
:100DA000F251D1F804C00CF00307026807FA08F307
:100DB00002EA0B021A431CF4403F0260A2D0002258
:100DC00043F644030292C4F202031A6843F6004455
:100DD00042F480421A601A68C4F2010402F48042AC
:100DE0000292029A29F003024FF6084C2244CFF6F1
:100DF000FF7C52F80C3005F00C070F26BE40B343C1
:100E0000019E06FA07F73B4342F80C30A2684B6894
:100E100042EA0A0743F60C4CDE0258BF22EA0A07F0
:100E2000A760C4F2010CDCF800209E0242EA0A0727
:100E300058BF22EA0A07CCF8007062689E0342EAB3
:100E40000A0758BF22EA0A0767602268DB0342EA02
:100E50000A0758BF22EA0A07276053E703B0BDE834
:100E6000F08F0000002A08BF09048161704700006C
:100E700040F28C10C2F200000068704740F200009F
:100E800040F28C11C2F20000C2F2000100780A6840
:100E9000104408607047000080B543F60040C4F27B
:100EA0000200016841F400710160016841F4806151
:100EB0000160016841F480710160032000F086F850
:100EC0000F2000F005F800F027F8002080BD00009A
:100ED00070B540F20006C2F2000640F20801327816
:100EE000C2F200014FF47A730968B3FBF2F20446D0
:100EF000B1FBF2F1084600F069FE0F2C4FF001053E
:100F000008D838B94FF0FF3021460022002500F004
:100F100031F87460284670BD82B0002043F640016D
:100F20000190C4F202014A6842F480424A604A6871
:100F300002F480420192019A0090086840F08050CB
:100F40000860086800F080500090009802B0704778
:100F5000002848BF704700F01F01012202FA01F18A
:100F60001C2202EAD0004EF20012CEF200028150A2
:100F70007047000010B54EF60C5CCEF2000CDCF8A9
:100F80000030C3F3022E8EF00704042C28BF042483
:100F9000BEF103034FF0FF3E0EFA04F438BF002306
:100FA000A14399400EFA03F39A43114300F00F0254
:100FB00000F160430901043A03F5644362440028E8
:100FC00048BF02F10C03197010BD00004EF60C5121
:100FD000CEF200010A684FF6FF031A4060F30A22BE
:100FE00042F0806040F0FD7008607047002804BF48
:100FF000012070472DE9F04143F60808C4F20208C9
:101000000446D8F8F8030D4600F00700884207D2DE
:1010100088F8F853D8F8F80300F00700A84277D111
:101020002068810717D5410705D5D8F8001041F48D
:10103000E051C8F80010010705D5D8F8001041F4B8
:101040006041C8F80010D8F80010A26821F0F00143
:101050001143C8F80010C00740D1D8F8F80300F0D9
:101060000700A84207D988F8F853D8F8F80300F029
:101070000700A8424CD12068410707D5D8F80010D6
:10108000E26821F4E0511143C8F80010000708D5C8
:10109000D8F80000216920F4604040EAC100C8F897
:1010A000000000F055F8D8F8001041F6B672C1F310
:1010B0000311C0F60002515C40F2080220FA01F16F
:1010C00040F20400C2F200000068C2F200021160A7
:1010D000FFF7FEFE0020BDE8F08100BF6068811EC2
:1010E000022907D258F8081C89015CBF0120BDE81D
:1010F000F08111E0012807D158F8081C89035CBF72
:101100000120BDE8F08107E058F8081C890703D4E6
:101110000120BDE8F08100BFD8F8001021F00301E4
:101120000843C8F80000FFF7A3FE064641F28837DF
:10113000D8F80000616800F00C00B0EB810F8CD093
:10114000FFF796FE801BB842F2D90320BDE8F0817C
:1011500010B543F60404C4F20204606800F00C0009
:1011600008280BD0042819BF42F20040C0F2F40056
:1011700041F60030C0F2B70010BD00BF2068216802
:101180002368490241F60031C0F2B70100F03F0286
:10119000C3F388105CBF42F20041C0F2F401A1FB2E
:1011A00000010023FFF776F821680222C1F3014114
:1011B00002EB4101B0FBF1F010BD0000002804BFBC
:1011C000012070472DE9F04182B00446007843F6D3
:1011D0000006C007C4F202060CD0B06800F00C0094
:1011E000042840F081803068800303D560680028BF
:1011F00000F06881207880071BD5B06810F00C0FD4
:1012000009D0B06800F00C00082840F087807068B2
:10121000400200F183803068800703D5E068012830
:1012200040F050813068216920F0F80040EAC100A8
:1012300030602078000713D4207840072AD4A569AD
:10124000002D00F03A81B06800F00C00082840F052
:10125000A580012D40F00E81012002B0BDE8F08193
:101260006069002800F082800020C4F2472001213C
:10127000C0F8801EFFF7FCFD054600BF706F8007B9
:10128000DAD4FFF7F5FD401B0228F7D9032002B09E
:10129000BDE8F081306C5FEAC0080AD400200190FC
:1012A000306C40F080503064306C00F08050019021
:1012B000019847F20007C4F200073868C00547D418
:1012C000386840F480703860FFF7D2FD054600BFF3
:1012D0003868C0053CD4FFF7CBFD401B0228F7D986
:1012E000032002B0BDE8F081B06800F00C000828CF
:1012F00003D1706840023FF576AF61683068B1F5A0
:10130000803F07D0B1F5A02F40F09A8040F48020B4
:101310003060306840F4803030609AE0E068002847
:1013200040F20000C4F247205CD001210160FFF7C9
:101330009FFD0546306880073FF574AFFFF798FDC5
:10134000401B0228F6D9032002B0BDE8F08100BF9F
:10135000A168306F012905D0052955D140F004005E
:101360003067306F40F00100306756E00020C4F273
:1013700047200021C0F8801EFFF77AFD054600BF18
:10138000706F80077FF558AFFFF772FD401B022892
:10139000F6D9032002B0BDE8F08100BF0027C4F2F7
:1013A000472700203866FFF763FD022D05460DD163
:1013B0003068800140F18A80FFF75AFD401B022807
:1013C0004FF00300F4D902B0BDE8F081306880012D
:1013D00073D5FFF74DFD401B02284FF00300F5D9F0
:1013E000F1E700BF00210160FFF742FD054600BFA5
:1013F000306880077FF51DAFFFF73AFD401B0228DC
:101400004FF00300F4D9DEE720F001003067306FC1
:10141000002920F0040030677AD0FFF729FD054647
:1014200041F28837306F800700F18480FFF720FD9C
:10143000401BB842F6D9032002B0BDE8F08100BFDE
:1014400020F4803030603068002920F48020306043
:101450007AD0FFF70DFD0546306880033FF5CAAE30
:10146000FFF706FD401B6428F6D9032002B0BDE853
:10147000F08100BF7068E16900F480028A4221D1E6
:10148000216A00F03F028A421CD147F6C071626AAD
:101490000140B1EB821F15D1A16A4FF6FF73C9035A
:1014A000994300F44032A1F580318A420AD1E16AC1
:1014B00000F07060B0EB016F04D1002002B0BDE815
:1014C000F08100BF012002B0BDE8F08104F11C05ED
:1014D0002FCD084340EA8210D9034FF6FF729143A3
:1014E000A1F5803140EA056008437060012038664C
:1014F000FFF7BEFC044600BF30688001DDD4FFF773
:10150000B7FC001B02284FF00300F5D95BE700BFD2
:10151000FFF7AEFC054641F2883700BF306F800709
:1015200008D5FFF7A5FC401BB8424FF00300F5D9E2
:1015300049E700BFB8F1000F3FF581AE306C20F0F5
:10154000805030647BE600BFFFF792FC054600BF89
:10155000306880037FF54EAEFFF78AFC401B64289D
:101560004FF00300F4D92EE770470000B0B582B009
:1015700001684A688B6803F04105012D08D112F01B
:10158000400505D0016C02B0BDE8B040084700BF7F
:101590009D0707D512F0800504D0416C02B0BDE86C
:1015A000B040084713F4B07F18BF12F0200501D1F6
:1015B00002B0B0BD5D0618D590F85150032D09D189
:1015C00000200190C868019088680190019802B0DD
:1015D000B0BD00BF456D45F004054565002501958A
:1015E000CD6801958D680195019D9D0604D4DB05AC
:1015F00011D4436DDBB9DBE7456D45F00105456569
:10160000002501958D6801950D6825F040050D6058
:10161000019DDB05EDD5436D43F0080343650023D1
:1016200001938B680193019B436D002BC0D04B68E5
:10163000920723F0E0034B604FF0010380F8513034
:1016400026D04A6841F6515422F003024A60C16C28
:10165000C0F6000459B1054608460C65FFF778F955
:101660000146284619B1416D41F040014165816C48
:1016700000299DD00C6504460846FFF769F900284B
:1016800096D0606D40F04000606502B0B0BD00BF14
:1016900002B0BDE8B040FFF767BF000070B528B1E9
:1016A000416A29B100210161142106E0012070BDC9
:1016B0004168B1F5827F02D01C21002242500026F1
:1016C000866290F8511029B980F85060054600F004
:1016D0003DF82846022180F8511090E82E0002F4CF
:1016E00082720C6803F4044324F040040C601A4432
:1016F00005F4006305691A4405F0020345691A44BC
:1017000005F001038569C4691A4405F400731A449D
:1017100004F03803046A1A4404F08003846A1A430C
:1017200004F400531A430A60436A042202EA154291
:1017300003F010031A444A60CA6922F40062CA61C5
:101740000121466580F85110304670BD2DE9F04FFB
:1017500087B0044643F200070068C4F20107002680
:10176000B8420696CDE904660396029602D007B009
:10177000BDE8F08F43F630000196C4F202004169E3
:1017800002AD41F480514161416946F2104801F4D3
:10179000805101910199019601684FF0020941F0D1
:1017A0000201016001684FF0030A01F0020101919A
:1017B0000199019601684FF0050B41F001010160AC
:1017C0000068294600F0010001900198182002905D
:1017D00007F55440C4F20208CDE90396CDF814A0F1
:1017E000CDF818B0FFF76EFA8020CDE9020904A801
:1017F00080E8400C07F550402946FFF763FA40F2B5
:101800007405C2F200054FF0C0674FF480692846A6
:10181000C5E90087C5E90266C5E90496C5E906661B
:10182000C5E90866FFF788F9002818BFFFF78CF8AC
:10183000E564AC6340F2D40508F14800C2F200054B
:101840004021C5E9000705F10800002280E80602F2
:101850002846C5E90522C5E907226A62FFF76CF947
:10186000002818BFFFF770F8232000210022A5648C
:10187000AC63FFF77FFB2320FFF76AFB07B0BDE8EF
:10188000F08F00002DE9F04383B01E4615460F4649
:101890000446FFF7EDFA94F851108146012909D169
:1018A000002F4FF0010018BF002D0FD103B0BDE88D
:1018B000F08300BF6068B0F5827F0DD104294FF03E
:1018C0000200F3D1A1680029EAD0EFE7002EEDD0A5
:1018D00094F85000012803D1022003B0BDE8F08342
:1018E000012084F8500094F85100002104281CBF06
:1018F000052084F851006165A563E687A687276304
:10190000E6862068A686216461640168490603D4DE
:10191000016841F0400101606168731EE268B1FA3C
:1019200081F1B3FA83F3DDF8288049095B09B2F548
:10193000006F41EA030165D131B137F8021BC16084
:101940002763E08E0138E086012518F1010032D1CD
:1019500002E000BFFFF78CFAE08E18B9E08F002894
:1019600000F0B8802068816889070CD5E18E51B1FC
:10197000012D08D1216B002531F8022BC2602163B3
:10198000E18E0139E1868168C907E3D0E18F002942
:10199000E0D0C068A16B012521F8020BA163E08FA4
:1019A0000138E087D6E700BFFFF762FAA0EB090035
:1019B000404580F0A580E08E18B9E08F002800F047
:1019C00089802068816889070CD5E18E51B1012D8D
:1019D00008D1216B002531F8022BC2602163E18E12
:1019E0000139E1868168C907DED0E18F0029DBD0AB
:1019F000C068A16B012521F8020BA163E08F0138BB
:101A0000E087D1E739B139780173206B0130206369
:101A1000E08E0138E086012518F1010032D101E0A5
:101A2000FFF726FAE08E10B9E08F002852D0206828
:101A3000816889070ED5E18E61B1012D0AD1216B34
:101A4000002509780173216B206801312163E18E43
:101A50000139E1868168C907E2D0E18F0029DFD032
:101A6000C068A16B01250870A06B0130A063E08FF6
:101A70000138E087D4E700BFFFF7FAF9A0EB0900CF
:101A800040453DD2E08E08B9E08F18B320688168E8
:101A900089070ED5E18E61B1012D0AD1216B002598
:101AA00009780173216B206801312163E18E0139CE
:101AB000E1868168C907DFD0E18F0029DCD0C068EA
:101AC000A16B01250870A06B0130A063E08F013885
:101AD000E087D1E72046022101224346CDF800905D
:101AE00000F03CF9B0B1606D40F02000606520204E
:101AF0006065002084F85000012003B0BDE8F08349
:101B0000012084F85100002084F85000032003B025
:101B1000BDE8F08340F20800C2F20000006849F618
:101B20008171C1F25E61A0FB0101480D4FF47A7131
:101B3000484302906068B0F5827F0BD12046802137
:101B400000224346CDF8009000F008F90028CAD1E1
:101B500024E000BF029808B3029801380290206880
:101B6000806800061AD50298C0B102980138029028
:101B700020688068000611D5029878B10298013873
:101B8000029020688068000608D5029830B102985B
:101B900001380290206880680006DBD4A06838B95C
:101BA000002001902068C16801918068019001982F
:101BB000012084F85100002084F85000606D002856
:101BC00018BF012003B0BDE8F0830000411E0020D3
:101BD000B0EB116F1CBF012070474EF21002CEF225
:101BE000000251604EF62351CEF20001F0230B703B
:101BF0000721906011607047FEE7000080B582B059
:101C00000020019043F63000C4F202000168002277
:101C100041F4800101600068002100F4800001901F
:101C200001983820FFF7A6F93820FFF791F93B20FB
:101C300000210022FFF79EF93B2002B0BDE8804062
:101C4000FFF786B92DE9F04387B0002743F630004F
:101C50000697CDE90477CDE902770197C4F2020037
:101C6000016840F2000841F0020101600168C4F21D
:101C7000020801F002010191019901970168012216
:101C800041F0010101600168102601F0010101919C
:101C9000019901970168012441F080010160006809
:101CA000102100F08000019001984046FFF7DAF81B
:101CB00008F58065284601210122FFF7D3F8CDE918
:101CC000026402AE4FF00309404631460497CDF856
:101CD0001490FEF7F7FF28463146CDE90244CDE9DE
:101CE0000479FEF7EFFF07B0BDE8F08380B540F25E
:101CF000341043F20001C2F20000C4F201014FF4BB
:101D00008272002380E80E0000F114014FF4007C81
:101D10004FF0180E81E808500A21C0E90333C0E9EA
:101D20000833C0E90A31FFF7B9FC002808BF80BDBD
:101D3000BDE88040FEF708BEFEE70000FEE70000B9
:101D40007047000040F23410C2F20000FFF70EBCF2
:101D5000806B0021C187C186FFF706BC2DE9F043E7
:101D600081B0089C984615460E468146FFF780F8DC
:101D7000201A00EB0804FFF77BF840F20801C2F2DA
:101D800000010968C1F3CB3161430091D9F800101B
:101D90008A683240921BB2FA82F25209AA4203D1F7
:101DA000002001B0BDE8F083074618F101000ED114
:101DB00030E000BF009801380090D9F8000080683A
:101DC0003040801BB0FA80F04009A842E8D0FFF70D
:101DD0004FF8C01BA04227D200980028EAD1002467
:101DE000EBE700BF88683040801BB0FA80F0400904
:101DF000A842D5D088683040801BB0FA80F04009F6
:101E0000A842CDD088683040801BB0FA80F04009ED
:101E1000A842C5D088683040801BB0FA80F04009E5
:101E2000A842DFD1BCE700BFD9E900014268B1F5A3
:101E3000827F22F0E00242600BD1D9F80810B1F5A0
:101E4000004F02D0B1F5806F03D1016821F040014D
:101E50000160D9F82810B1F5005F07D1016821F4BD
:101E600000510160016841F400510160012089F8CE
:101E70005100002089F85000032001B0BDE8F08334
:101E800070470000FEF7FABF70B592B006AC20466E
:101E90003021FEF777FA002543F640000595CDE99D
:101EA0000355CDE901550095C4F2020001680226F0
:101EB00041F080510160006800F08050009000986F
:101EC00047F200000095C4F20000016841F480412F
:101ED0000160006800F480400090009801200690A6
:101EE0004FF4803007904FF480000D9006200E9044
:101EF000A820CDE90F060420119020460C96FFF78C
:101F00005DF918B172B600BFFEE700BF0F20CDE942
:101F100001064FF4A05004904FF48050059001A8A2
:101F200005210395FFF762F810B172B6FEE700BF16
:101F300012B070BD4EF68850CEF20000016841F438
:101F40007001016070470000FEE7000088B0FEF7F6
:101F5000A3FFFFF799FFFFF775FEFFF74FFEFFF7AF
:101F6000C5FEFEF7C7FA0020CDE90600CDE9040062
:101F7000CDE90200FEF76AFA8DF80700FEF792FA43
:101F800002AC8DF8060000BF2046FEF7E9FB2046B4
:101F9000FEF754FC6420FEF781FEF5E7F1EE100A2F
:101FA0004FF6FF71C0F2C03120EA010040F04070EE
:101FB000E1EE100A7047000000000000000001027E
:101FC0000304060708090006101600061016000094
:101FD000F01F00080000002010000000EC010008C5
:101FE0000020000810000020800700000C020008FC
:101FF00001000000100000000024F40000000000B8
:040000050800018965
:00000001FF
